:020000040800F2
:10000000608B002061020008713400086113000851
:100010006D340008AD0400084939000800000000F4
:10002000000000000000000000000000A5360008ED
:10003000B10400080000000075340008A93600086B
:100040007B0200087B0200087B0200087B0200089C
:100050007B0200087B0200087B0200087B0200088C
:100060007B0200087B0200087B0200087B0200087C
:100070007B0200087B0200087B0200087B0200086C
:100080007B0200087B0200087B02000800000000E1
:100090000000000000000000000000007B020008DB
:1000A0007B0200087B0200087B0200087B0200083C
:1000B0007B0200087B0200087B0200087B0200082C
:1000C0007B0200087B0200087B0200087B0200081C
:1000D0007B0200087B0200087B0200080000000091
:1000E0007B0200087B0200087B0200080000000081
:1000F0000000000000000000000000007B0200087B
:10010000000000007B0200087B0200087B02000860
:1001100000000000000000000000000000000000DF
:100120007B0200087B0200087B0200087B020008BB
:100130007B0200080000000000000000000000003A
:100140000000000000000000000000007B0200082A
:100150007B0200087B0200087B0200087B0200088B
:100160007B0200087B020008000000000000000085
:10017000000000000000000000000000000000007F
:10018000000000007B0200080000000000000000EA
:100190007B02000800F002F800F052F814A696E87E
:1001A000000CB244B344DA4501D100F049F8BAE892
:1001B0000F000FA696E83000A5EB040504EB060738
:1001C000AAEB0704A7F101074FEA15154FEA34140B
:1001D000A4F10104AC4201D300F032F813F0010F96
:1001E00018BFFB1A43F0010300F001F8DBE71847E2
:1001F0001838000038380000103A24BF78C878C199
:10020000FAD8520724BF30C830C144BF04680C601C
:1002100070470000704700000023002400250026DE
:10022000103A28BF78C1FBD8520728BF30C148BF59
:100230000B6070471FB503F0CDFB1FBD10B510BD9F
:1002400000F0FAF81146FFF7F5FF03F07FFB00F02E
:1002500018F903B4FFF7F2FF03BC00F01FF9000028
:100260000948804709480047FEE7FEE7FEE7FEE74A
:10027000FEE7FEE7FEE7FEE7FEE7FEE70448054986
:10028000054A064B704700005537000895010008E5
:1002900060850020608B0020608700206087002040
:1002A00053EA020C00F069802DE9F04B4FF0000694
:1002B000002B1FBFB3FA83F503FA05F424FA05F601
:1002C0005E4012BF1643B2FA82F502FA05F4C5F198
:1002D00020051EBF22FA05FC44EA0C04203556EA2C
:1002E000044C4FEA144418BF641C4FF000084FF050
:1002F0000009904271EB030C39D3002919BFB1FA00
:1003000081F701FA07F6B0FA80F700FA07F6C7F1AD
:1003100020071EBF20FA07FC46EA0C062037B6FB72
:10032000F4FCA7EB0507103F07F01F0BCBF12006ED
:100330002CFA06F60CFA0BFB44BFB3460026202F1E
:10034000A4BF5E464FF0000B5BEA060C08BF4FF0FF
:10035000010B19EB0B0948EB0608ABFB027C06FB13
:1003600002CC0BFB03CCC01B71EB0C01C1E70B46AD
:10037000024641464846BDE8F08B13B5084318BF16
:100380004FF0FF300146AFF30080BDE81C407047DE
:1003900002F0FF0343EA032242EA024200F024B8DB
:1003A0004FF000020429C0F0128010F0030C00F09E
:1003B0001B80CCF1040CBCF1020F18BF00F8012B1C
:1003C000A8BF20F8022BA1EB0C0100F00DB85FEAEA
:1003D000C17C24BF00F8012B00F8012B48BF00F8B6
:1003E000012B70474FF0000200B513469446964625
:1003F000203922BFA0E80C50A0E80C50B1F1200138
:10040000BFF4F7AF090728BFA0E80C5048BF0CC0E5
:100410005DF804EB890028BF40F8042B08BF704743
:1004200048BF20F8022B11F0804F18BF00F8012BB5
:100430007047704770477047754600F02BF8AE461E
:1004400005006946534620F00700854618B020B5E0
:10045000FFF714FFBDE820404FF000064FF0000703
:100460004FF000084FF0000BAC46ACE8C009ACE818
:10047000C009ACE8C009ACE8C00921F007018D460D
:10048000704710B50446AFF300802046BDE8104029
:10049000FFF7DFBE00487047100000200149182018
:1004A000ABBEFEE72600020070470000FEE700003A
:1004B0007047000072B600BFFEE70000B0B504460A
:1004C00000F0E6F8054640F20000C2F200000078B5
:1004D000611C18BF044400BF00F0DAF8401BA042C2
:1004E000FAD3B0BD2DE9F04F83B000F1200200F146
:1004F0003E4741F20005009207F1FF77C4F2020582
:1005000007224FEAB726A84208BF042200254FF071
:1005100000084FF00009042E38BF4FEAB7220192BD
:100520000AE000BF09F1010908F10208B9F1100F52
:1005300005F1040500F0A2800F68012202FA09FE0D
:1005400017EA0E0AEED0D1F804C003220CF003071C
:100550007E1E02FA08F4012E6FEA040B12D884689A
:10056000CE6804EA0B0406FA08F634438460446853
:1005700024EA0E06CCF3001404FA09F4264346607C
:1005800004E000BF032F01D103271EE0C6688C687A
:1005900006EA0B0604FA08F42643022FC66014D1BB
:1005A0006FF00302009E02EA590756F807C005F0F3
:1005B0001C040F220B69A2402CEA0202A3401A433A
:1005C000F251D1F804C00CF00307026807FA08F3EF
:1005D00002EA0B021A431CF4403F0260A2D0002240
:1005E00043F644030292C4F202031A6843F600443D
:1005F00042F480421A601A68C4F2010402F4804294
:100600000292029A29F003024FF6084C2244CFF6D8
:10061000FF7C52F80C3005F00C070F26BE40B343A8
:10062000019E06FA07F73B4342F80C30A2684B687C
:1006300042EA0A0743F60C4CDE0258BF22EA0A07D8
:10064000A760C4F2010CDCF800209E0242EA0A070F
:1006500058BF22EA0A07CCF8007062689E0342EA9B
:100660000A0758BF22EA0A0767602268DB0342EAEA
:100670000A0758BF22EA0A07276053E703B0BDE81C
:10068000F08F0000002A08BF090481617047000054
:1006900048F25C50C2F200000068704740F200006F
:1006A00048F25C51C2F20000C2F2000100780A6810
:1006B000104408607047000080B543F60040C4F263
:1006C0000200016841F400710160016841F4806139
:1006D0000160016841F480710160032000F074F84A
:1006E0000F2000F005F800F027F8002080BD000082
:1006F00070B540F20006C2F2000640F208013278FE
:10070000C2F200014FF47A730968B3FBF2F20446B7
:10071000B1FBF2F1084600F01BFD0F2C4FF0010574
:1007200008D838B94FF0FF3021460022002500F0EC
:100730001FF87460284670BD82B0002043F6400167
:100740000190C4F202014A6842F480424A604A6859
:1007500002F480420192019A0090086840F08050B3
:100760000860086800F080500090009802B0704760
:1007700010B54EF60C5CCEF2000CDCF80030C3F382
:10078000022E8EF00704042C28BF0424BEF10303BC
:100790004FF0FF3E0EFA04F438BF0023A143994006
:1007A0000EFA03F39A43114300F00F0200F1604385
:1007B0000901043A03F564436244002848BF02F18A
:1007C0000C03197010BD00004EF60C51CEF2000162
:1007D0000A684FF6FF031A4060F30A2242F0806075
:1007E00040F0FD7008607047002804BF012070478A
:1007F0002DE9F04143F60808C4F202080446D8F88F
:10080000F8030D4600F00700814207D988F8F85335
:10081000D8F8F80300F00700A84277D120688107D4
:1008200017D5410705D5D8F8001041F4E051C8F8B4
:100830000010010705D5D8F8001041F46041C8F850
:100840000010D8F80010A26821F0F0011143C8F898
:100850000010C00740D1D8F8F80300F00700854227
:1008600007D288F8F853D8F8F80300F00700A84238
:100870004CD12068410707D5D8F80010E26821F470
:10088000E0511143C8F80010000708D5D8F800005F
:10089000216920F4604040EAC100C8F8000000F07F
:1008A0007DF8D8F8001043F6EE12C1F30311C0F63C
:1008B0000002515C40F2080220FA01F140F204000B
:1008C000C2F200000068C2F200021160FFF710FFE0
:1008D0000020BDE8F08100BF6068811E022907D2B8
:1008E00058F8081C89015CBF0120BDE8F08111E0C7
:1008F000012807D158F8081C89035CBF0120BDE816
:10090000F08107E058F8081C890703D40120BDE8EE
:10091000F08100BFD8F8001021F003010843C8F8A7
:100920000000FFF7B5FE064641F28837D8F8000010
:10093000616800F00C00B0EB810F8CD0FFF7A8FECF
:10094000801BB842F2D90320BDE8F08140F20800D4
:1009500043F60801C2F20000C4F20201006809680F
:1009600043F6FE12C1F38221C0F60002515CC8407A
:100970007047000040F2080043F60801C2F2000090
:10098000C4F202010068096843F6FE12C1F3423165
:10099000C0F60002515CC8407047000010B543F635
:1009A0000404C4F202046168C1F3810142F2004010
:1009B000C0F2F400DFE801F002040A0210BD00BF3B
:1009C00047F64000C0F27D1010BD00BF20682168CE
:1009D0002368490247F64001C0F27D1100F03F0252
:1009E000C3F388105CBF42F20041C0F2F401A1FBE6
:1009F00000010023FFF754FC21680222C1F30141EA
:100A000002EB4101B0FBF1F010BD0000002804BF73
:100A1000012070472DE9F04182B00446007843F68A
:100A20000006C007C4F202060CD0B06800F00C004B
:100A3000042840F081803068800303D56068002876
:100A400000F06881207880071BD5B06810F00C0F8B
:100A500009D0B06800F00C00082840F0878070686A
:100A6000400200F183803068800703D5E0680128E8
:100A700040F050813068216920F0F80040EAC10060
:100A800030602078000713D4207840072AD4A56965
:100A9000002D00F03A81B06800F00C00082840F00A
:100AA000A580012D40F00E81012002B0BDE8F0814B
:100AB0006069002800F082800020C4F247200121F4
:100AC000C0F8801EFFF7E4FD054600BF706F800789
:100AD000DAD4FFF7DDFD401B0228F7D9032002B06E
:100AE000BDE8F081306C5FEAC0080AD400200190B4
:100AF000306C40F080503064306C00F080500190D9
:100B0000019847F20007C4F200073868C00547D4CF
:100B1000386840F480703860FFF7BAFD054600BFC2
:100B20003868C0053CD4FFF7B3FD401B0228F7D955
:100B3000032002B0BDE8F081B06800F00C00082886
:100B400003D1706840023FF576AF61683068B1F557
:100B5000803F07D0B1F5A02F40F09A8040F480206C
:100B60003060306840F4803030609AE0E0680028FF
:100B700040F20000C4F247205CD001210160FFF781
:100B800087FD0546306880073FF574AFFFF780FDAD
:100B9000401B0228F6D9032002B0BDE8F08100BF57
:100BA000A168306F012905D0052955D140F0040016
:100BB0003067306F40F00100306756E00020C4F22B
:100BC00047200021C0F8801EFFF762FD054600BFE8
:100BD000706F80077FF558AFFFF75AFD401B022862
:100BE000F6D9032002B0BDE8F08100BF0027C4F2AF
:100BF000472700203866FFF74BFD022D05460DD133
:100C00003068800140F18A80FFF742FD401B0228D6
:100C10004FF00300F4D902B0BDE8F08130688001E4
:100C200073D5FFF735FD401B02284FF00300F5D9BF
:100C3000F1E700BF00210160FFF72AFD054600BF74
:100C4000306880077FF51DAFFFF722FD401B0228AB
:100C50004FF00300F4D9DEE720F001003067306F79
:100C6000002920F0040030677AD0FFF711FD054617
:100C700041F28837306F800700F18480FFF708FD6C
:100C8000401BB842F6D9032002B0BDE8F08100BF96
:100C900020F4803030603068002920F480203060FB
:100CA0007AD0FFF7F5FC0546306880033FF5CAAE01
:100CB000FFF7EEFC401B6428F6D9032002B0BDE824
:100CC000F08100BF7068E16900F480028A4221D19E
:100CD000216A00F03F028A421CD147F6C071626A65
:100CE0000140B1EB821F15D1A16A4FF6FF73C90312
:100CF000994300F44032A1F580318A420AD1E16A79
:100D000000F07060B0EB016F04D1002002B0BDE8CC
:100D1000F08100BF012002B0BDE8F08104F11C05A4
:100D20002FCD084340EA8210D9034FF6FF7291435A
:100D3000A1F5803140EA0560084370600120386603
:100D4000FFF7A6FC044600BF30688001DDD4FFF742
:100D50009FFC001B02284FF00300F5D95BE700BFA2
:100D6000FFF796FC054641F2883700BF306F8007D9
:100D700008D5FFF78DFC401BB8424FF00300F5D9B2
:100D800049E700BFB8F1000F3FF581AE306C20F0AD
:100D9000805030647BE600BFFFF77AFC054600BF59
:100DA000306880037FF54EAEFFF772FC401B64286D
:100DB0004FF00300F4D92EE770B528B1416A29B18C
:100DC00000210161142106E0012070BD4168B1F5E8
:100DD000827F02D01C21002242500026866290F8B9
:100DE000511029B980F85060054600F03DF82846BA
:100DF000022180F8511090E82E0002F482720C68F3
:100E000003F4044324F040040C601A4405F4006326
:100E100005691A4405F0020345691A4405F0010307
:100E20008569C4691A4405F400731A4404F0380350
:100E3000046A1A4404F08003846A1A4304F40053D9
:100E40001A430A60436A042202EA154203F01003BF
:100E50001A444A60CA6922F40062CA6101214665E7
:100E600080F85110304670BD80B586B043F2000165
:100E70000068C4F20101002288420592CDE90322F4
:100E80000292019202D006B080BD00BF43F630004E
:100E90000092C4F20200436943F480534361436902
:100EA00003F480530093009B0092036843F0010316
:100EB0000360006800F0010000900098A0200190FD
:100EC0000220CDE90202032004900520059001F5DF
:100ED000504001A9FFF706FB06B080BD2DE9F041A7
:100EE00084B01D4616460F460446FFF7D1FB94F822
:100EF000511001290ED18046002F4FF0010018BF7C
:100F0000002E03D104B0BDE8F08100BF94F850007A
:100F1000012803D1022004B0BDE8F081012084F84B
:100F200050000320002184F8510061652763A686E4
:100F3000E686A163A187E187A0682164B0F5004F30
:100F40002068616407D1016821F0400101600168F7
:100F500041F4804101600168490603D4016841F011
:100F6000400101606168731EE268B1FA81F1B3FA71
:100F700083F349095B09B2F5006F41EA030139D1F6
:100F800031B137F8021BC1602763E08E0138E0867B
:100F9000E08E002870D0681C0BD11AE0216B31F86C
:100FA000022BC2602163E08E0138E086E08E0028CB
:100FB00062D0206881688907F0D4FFF769FBA0EB55
:100FC0000800A842F2D338E0FFF762FBE08E002869
:100FD00052D0206881688907F6D5216B31F8022B41
:100FE000C2602163E08E0138E086E08E0028F0D1F7
:100FF00042E000BF39B139780173206B01302063C2
:10100000E08E0138E086E08EB0B3681C0BD123E09F
:10101000216B09780173206B01302063E08E013869
:10102000E086E08E40B3206881688907F0D4FFF73E
:101030002FFBA0EB0800A842F3D3012084F8510055
:10104000002084F85000032004B0BDE8F08100BF08
:10105000FFF71EFBE08E78B1206881688907F7D51D
:10106000216B09780173206B01302063E08E013819
:10107000E086E08E0028EFD12046022101222B4697
:10108000CDF8008002F0F8F9E0B1606D40F020008A
:10109000606520206065A06838B900200290206853
:1010A000C1680291806802900298012084F8510082
:1010B000002084F85000606D002818BF012004B0A3
:1010C000BDE8F08140F20800C2F20000006849F675
:1010D0008171C1F25E61A0FB0101480D4FF47A718C
:1010E000484303906068B0F5827F0BD12046802191
:1010F00000222B46CDF8008002F0BEF90028C4D1B2
:10110000C9E700BF03980028C5D0039801380390B1
:10111000206881680906BED503990029BBD00399D0
:101120000139039181680906B5D503990029B2D028
:1011300003990139039181680906ACD50399002907
:10114000A9D003990139039180680006DAD4A2E797
:10115000411E0020B0EB116F1CBF012070474EF202
:101160001002CEF2000251604EF62351CEF2000181
:10117000F0230B700721906011607047002804BFB6
:101180000120704710B5044690F83D0028B90020B2
:1011900084F83C00204600F01FF8022084F83D004F
:1011A0002068211D02F0E0FA012084F8460084F84E
:1011B0003E0084F83F0084F8400084F8410084F841
:1011C000420084F8430084F8440084F8450084F821
:1011D0003D00002010BD0000006844F60001C4F28C
:1011E0000101884218BF704781B00020009043F68B
:1011F0004400C4F20200016841F4802101600068EB
:1012000000F480200090009801B0704790F83D10E5
:1012100001291CBF01207047022180F83D100068A1
:1012200040F6FF31C4F2000188420FDCB0F1804F7C
:101230001DD040F20041C4F20001884217D040F6B0
:101240000001C4F20001884211D017E040F60041CD
:10125000C4F2000188420AD044F20001C4F2010144
:10126000884204D00021C4F20101884206D181687D
:1012700001F00701062904BF00207047016841F012
:101280000101016000207047002804BF0120704761
:1012900010B5044690F8410028B9002084F84000B9
:1012A000204600F021F8242084F841002068C1681D
:1012B00021F40051C160204602F0D2FA2068016991
:1012C00021F490410161416921F02A014161C16825
:1012D00041F40051C16000202021606484F8411075
:1012E00084F84210606310BD80B586B041F2000101
:1012F0000068C4F20101002288420592CDE9032270
:101300000292019202D006B080BD00BF43F63000C9
:101310000092C4F20200436943F010034361436941
:1013200003F010030093009B0092036843F0010355
:101330000360006800F00100009000984FF4C06066
:1013400001900220CDE902020320049007200590BD
:1013500001F5704001A9FFF7C5F806B080BD000097
:10136000FEE700008C468842B8BF8446C8BF0146ED
:1013700088B28445C8BF7047B0B50499FF2917D01B
:101380007F2A2FDD0CF1010109B2814227DC0CF12B
:10139000020109B2814222DC0CF1030109B281424F
:1013A0001DDC0CF1040C0FFA8CF18142EADD16E031
:1013B0007F2A2FDD0CF1010109B281420FDC0CF113
:1013C000020109B281420ADC0CF1030109B2814237
:1013D00005DC0CF1040C0FFA8CF18142EADDBDE86A
:1013E000B040704740F27431C2F2000101EB0221BB
:1013F000644604E001340FFA84FC8445EFDC25B236
:101400007F2DF7DC44EA02052DB2002D58BF21F8EC
:101410001C30EFE740F2743491B2C2F2000404EBE6
:10142000012E04EB0221644605E000BF01340FFAEF
:1014300084FC8445D3DC25B27F2DF7DC44EA020529
:101440002DB2002DF2D4A5B23EF81550002D1D4648
:1014500018BFED4321F81C50E8E700002DE9F04FDC
:1014600085B0054602930E46491B4FF0FF3348BF37
:101470004942B542B8BF01230393029B1446A5EB32
:10148000060A4FF0FF320F98B8BFA3EB040AA3423D
:10149000C8BF01220E9F04920FFA8AF20FFA81FB55
:1014A000A1EB0A08FF28C2F100092BD028462146EB
:1014B0003A4600F06BF8B54202D10298A04260D0E3
:1014C000B6B200BF4FEA480000B248450399C8BF12
:1014D0000D4458450499B8BF0C44AFB22DB224B2A4
:1014E0000E9AB8BFD844484528462146C8BFA8EB45
:1014F0000A0800F04BF8B742E4D102988442E1D1E7
:101500003FE000BFA8B2A1B201F034FDF943B842F8
:10151000019108BF0F46BAB22846214600F036F8BE
:10152000B54202D10298A0422BD0B0B200900298EE
:1015300080B202904FEA480000B248450399C8BF04
:101540000D4458450499BCBF0C44D844AEB2A7B270
:10155000484530463946C8BFA8EB0A0801F00AFDE5
:101560000E9988420846019908BF084682B228B2FF
:1015700021B200F00BF800988642DBD10298874236
:10158000D8D1012005B0BDE8F08F00007F29D8BF79
:101590007F2801DD704700BF51EA00035FBF40F2C2
:1015A0007433C2F2000303EB012121F810207047CD
:1015B0002DE9F04F89B09946129B804608916AB197
:1015C00040F27006C2F200063088824210D175885F
:1015D00028044AD1012009B0BDE8F08F089940469F
:1015E0001A46FFF7D3FF012009B0BDE8F08F00BF16
:1015F00010B200250028758034D4032040F2740C0A
:10160000A0EB42010020C2F2000C134600270EE0BE
:101610000FB2B7F1FF3F1FDDC71A01EB87010A3197
:10162000013B013000B21FB2B8422F4618DCBDB2F8
:101630000CEB85042CF8250005B263801CB2A54292
:1016400007F10105E4DAADB20CEB85042CF8253086
:10165000BD1C6080DCE700BF01EB80010631E0E7E4
:10166000129B758032802804B4D06FEA030A0021EF
:1016700009F001000190CDF81C80CDE902A920E01D
:10168000304659464A460AF00804FFF77FFF002C0F
:10169000059C04BF34465D46DDF81C80DDF808A0DB
:1016A0004A4620B229B2FFF771FFDDF80C9040F2F4
:1016B0007000C2F200000699408801318142BFF4F7
:1016C00089AF40F27402C2F2000202EB810032F8EC
:1016D0002160428808980691871A019806EB080154
:1016E000002813980492059118BF0C4618BF3D4678
:1016F0000FFA84FBFF282DB21AD108991FFA88F03F
:1017000089B201F037FC1299884211D11FFA8AF28E
:101710005846294609F00209FFF738FFB9F1000FD2
:10172000DDF84890A8EB060614BFB3462F4612E03A
:1017300009F00204CA46DDF84890584629464A4650
:10174000FFF724FF1398002CA8EB060614BFB3463E
:101750002F46FF2824D10798089980B289B201F05A
:1017600009FC484518D1DDF808A0DDF80C800FFA17
:101770008BF039B21FFA8AF208F00404FFF706FF73
:1017800008980499002C01EB000508BF5E46AB46A3
:1017900008BFBB461FE000BFDDF84890DDF80CA095
:1017A0000FFA8BF039B24A460AF00404FFF7EEFE56
:1017B00008980499002C01EB0005139808BF5E46B9
:1017C00036B218BF2F46FF280FFA87FB7FF458AFB9
:1017D000D046DDF808A0079808F008041FFA80F842
:1017E00008981FFA80F94046494601F0C3FB129F52
:1017F000002C059908BF314608BF5D46B8423846FF
:1018000008BF50460CB282B230B20FFA8BF12DB243
:10181000FFF7BCFE4046494601F0ACFBB8420BD195
:101820001FFA8AF220462946FFF7B0FEDDF80C9039
:10183000DDF81C803BE700BFDDF81C803A4630E74E
:10184000002A04BF002070472DE9F04FADF5037D5D
:101850000DF5867A0E4681460AF1AE005221984671
:101860001546FEF79DFD0DF10C0B58464FF48071A7
:10187000FF22FEF78DFD28B2B0F1FF3F4FF0801040
:1018800043904490459046904790489049904A90A4
:101890004B904C904D904E904F9050905190529054
:1018A00053905490559056905790589059905A9004
:1018B0005B905C905D905E905F90609061906290B4
:1018C00063906490659066906790689069906A9064
:1018D0006B906C906D906E906F9070907190729014
:1018E00073907490759076907790789079907A90C4
:1018F0007B907C907D907E907F9080908190829074
:1019000040F3248103204FEAC872A0EB4500002178
:101910004FEA88734FEA487E4FEA087C904602936C
:1019200010E000BF02B2B2F1FF3F40F30B814A1B4F
:1019300000EB82000A30013D013109B22AB2914226
:1019400000F30481B8F1000F3ED0771BBAB27F2AB2
:101950001AD84FF6FE73C0F2010303EA470701EB02
:10196000090244463AF9078012B24245B8BF904690
:101970004B463BF907902AF807804A45C8BF914675
:10198000A0462BF8079099462AB20FB297421BDA6D
:10199000771ABAB27F2A17D84FF6FE73C0F2010346
:1019A00003EA470705EB09023AF9073012B29A42F7
:1019B000B8BF13463BF907402AF80730A242C8BF18
:1019C00014462BF8074000BF029A002A3AD5771B2D
:1019D000BAB27F2A16D84FF6FE73C0F2010303EAAB
:1019E0004703A9EB01023AF9034012B2A242B8BF81
:1019F00014463BF903702AF80340BA42C8BF1746A1
:101A00002BF803702AB20BB293421BDA771ABAB2E0
:101A10007F2A17D84FF6FE73C0F2010303EA47038B
:101A2000A9EB05023AF9034012B2A242B8BF14462C
:101A30003BF903702AF80340BA42C8BF17462BF897
:101A4000037000BFBEF1000F3AD5AF19BAB27F2ABA
:101A500016D84FF6FE73C0F2010303EA4703A9EB61
:101A600001023AF9034012B2A242B8BF14463BF950
:101A700003702AF80340BA42C8BF17462BF8037018
:101A80002AB20BB293421BDA8F19BAB27F2A17D847
:101A90004FF6FE73C0F2010303EA4703A9EB050208
:101AA0003AF9034012B2A242B8BF14463BF90370A0
:101AB0002AF80340BA42C8BF17462BF8037000BF8C
:101AC000BCF1000F7FF52EAFAF19BAB27F2A16D83E
:101AD0004FF6FE73C0F2010303EA470301EB09026C
:101AE0003AF9034012B2A242B8BF14463BF9037060
:101AF0002AF80340BA42C8BF17462BF803702AB22F
:101B00000BB29342BFF60EAF8F19BAB27F2A3FF6DF
:101B100009AF4FF6FE73C0F2010303EA470305EB7A
:101B200009023AF9034012B2A242B8BF14463BF987
:101B300003702AF80340BA42C8BF17462BF8037057
:101B4000F0E600BF00EB81000630F5E6DDE98C56DB
:101B5000002702E00137802F0CD03AF917003BF93B
:101B600017108842F6DC3AB22B460096FFF7FAFBD4
:101B7000F0E700BF01200DF5037DBDE8F08F000008
:101B800080B582B0DDE904CE80B289B292B29BB258
:101B9000CDE900CE00F004F8012002B080BD0000C5
:101BA0002DE9F04788428E469C4638BF86469A42C9
:101BB00038BF94460FFA8CF488BF13469C4201DD6F
:101BC000BDE8F08788420FFA8EF888BF0146884545
:101BD00047DCDDE90890FF284ED040F27435C2F2B0
:101BE000000505E00CF1010C0FFA8CF49C42E7DCD7
:101BF0000FFA8CF07F284646704617DD704600BF0E
:101C0000421C12B28A42EDDC821C12B28A42E9DC2A
:101C1000C21C12B28A42E5DC043002B28A42EFDD15
:101C2000E0E700BF013006B28E42DBDC02B27F2A61
:101C3000F8DC40EA0C0212B2002A5CBF05EB042279
:101C400022F81690EEE700BF0CF1030000B29842B4
:101C5000C8BFBDE8F0870CF1040C0FFA8CF0984275
:101C6000AEDC0CF1010000B29842A9DC0CF10200DC
:101C700000B29842E8DDA3E740F2743AC2F2000AEB
:101C800006E000BF0CF1010C0FFA8CF49C4297DCCB
:101C90000FFA8CF07F2813DD704600BF441C24B27D
:101CA0008C42EFDC841C24B28C42EBDCC41C24B2DA
:101CB0008C42E7DC043004B28C42EFDDE2E700BF87
:101CC0001FFA8CF64046774604E000BF013738B271
:101CD0008842D7DC3AB27F2AF8DC47EA0C0212B21B
:101CE000002AF3D4BAB20AEB062535F812200AEB23
:101CF0000425002A4A4618BFD24325F81020E5E7FC
:101D000040F274324FF0000CC2F200026FF0FF0399
:101D1000D1184033A1F80001A1F80201A1F8040193
:101D2000A1F80601A1F80801A1F80A01A1F80C0127
:101D3000A1F80E01A1F81001A1F81201A1F81401F7
:101D4000A1F81601A1F81801A1F81A01A1F81C01C7
:101D5000A1F81E01A1F82001A1F82201A1F8240197
:101D6000A1F82601A1F82801A1F82A01A1F82C0167
:101D7000A1F82E01A1F83001A1F83201A1F8340137
:101D8000A1F83601A1F83801A1F83A01A1F83C0107
:101D9000A1F83E01BCD10CF1010CBCF1800F02F5A1
:101DA000807208BF7047B1E72DE9F04F81B040F273
:101DB0000044C4F20204A4F58065284640210022B4
:101DC0004FF0000AFEF75EFC6420FEF777FB284622
:101DD000402101220127FEF755FC6420FEF76EFB2F
:101DE00011208DF80300204601210022FEF74AFC55
:101DF0002046022100224FF00208FEF743FC48F281
:101E00007435C2F200050DF10301284601224FF09E
:101E1000FF33FFF763F8204602210122FEF732FC70
:101E20007820FEF74BFBB1208DF8030020460121FE
:101E30000022FEF727FC204602210022FEF722FCAA
:101E40000DF10301284601224FF0FF33FFF746F85A
:101E5000204602210122FEF715FC20460121012225
:101E60008DF803700126FEF70DFC204602210022AA
:101E7000FEF708FC0DF10301284601224FF0FF3365
:101E8000FFF72CF8204602210122FEF7FBFB2C2055
:101E90008DF803002046012101222C27FEF7F2FBDA
:101EA000204602210022FEF7EDFB0DF1030128463A
:101EB00001224FF0FF33FFF711F8204602210122E3
:101EC000FEF7E0FB2D208DF80300204601210122C2
:101ED0004FF02D09FEF7D6FB204602210022FEF727
:101EE000D1FB0DF10301284601224FF0FF33FEF72D
:101EF000F5FF204602210122FEF7C4FBB2208DF837
:101F00000300204601210022FEF7BCFB20460221EF
:101F10000022FEF7B7FB0DF10301284601224FF026
:101F2000FF33FEF7DBFF204602210122FEF7AAFB6A
:101F30002046012101228DF803600126FEF7A2FB55
:101F4000204602210022FEF79DFB0DF103012846E9
:101F500001224FF0FF33FEF7C1FF2046022101228C
:101F6000FEF790FB2046012101228DF803702C27FB
:101F7000FEF788FB204602210022FEF783FB0DF1CD
:101F80000301284601224FF0FF33FEF7A7FF20464A
:101F900002210122FEF776FB2046012101228DF865
:101FA00003904FF02D09FEF76DFB20460221002221
:101FB000FEF768FB0DF10301284601224FF0FF33C5
:101FC000FEF78CFF204602210122FEF75BFBB320C7
:101FD0008DF80300204601210022FEF753FB204626
:101FE00002210022FEF74EFB0DF1030128460122DB
:101FF0004FF0FF33FEF772FF204602210122FEF769
:1020000041FB2046012101228DF803600126FEF7E5
:1020100039FB204602210022FEF734FB0DF10301BB
:10202000284601224FF0FF33FEF758FF20460221D9
:102030000122FEF727FB2046012101228DF80370C3
:102040002C27FEF71FFB204602210022FEF71AFB79
:102050000DF10301284601224FF0FF33FEF73EFF4A
:10206000204602210122FEF70DFB2046012101221C
:102070008DF803904FF02D09FEF704FB2046022156
:102080000022FEF7FFFA0DF10301284601224FF06E
:10209000FF33FEF723FF204602210122FEF7F2FA6A
:1020A0002046012101228DF80360FEF7EBFA20465D
:1020B00002210022FEF7E6FA0DF103012846012273
:1020C0004FF0FF33FEF70AFF204602210122FEF700
:1020D000D9FA2046012101228DF80370FEF7D2FAC9
:1020E000204602210022FEF7CDFA0DF10301284619
:1020F00001224FF0FF33FEF7F1FE204602210122BC
:10210000FEF7C0FA2046012101228DF80390FEF768
:10211000B9FA204602210022FEF7B4FA0DF10301BC
:10212000284601224FF0FF33FEF7D8FE2046022159
:102130000122FEF7A7FAB4208DF803002046012102
:102140000022FEF79FFA204602210022FEF79AFAAB
:102150000DF10301284601224FF0FF33FEF7BEFECA
:10216000204602210122FEF78DFA07208DF8030098
:10217000204601210122FEF785FA20460221002295
:10218000FEF780FA0DF10301284601224FF0FF33DC
:10219000FEF7A4FE204602210122FEF773FAC020BA
:1021A0008DF80300204601210022FEF76BFA20463D
:1021B00002210022FEF766FA0DF1030128460122F2
:1021C0004FF0FF33FEF78AFE204602210122FEF780
:1021D00059FAA2208DF80300204601210122FEF7C2
:1021E00051FA204602210022FEF74CFA0DF10301BC
:1021F000284601224FF0FF33FEF770FE20460221F1
:102200000122FEF73FFA2046012101228DF80380CA
:102210004FF0020BFEF736FA204602210022FEF7AD
:1022200031FA0DF10301284601224FF0FF33FEF78A
:1022300055FE204602210122FEF724FA84208DF863
:102240000300204601210122FEF71CFA204602214C
:102250000022FEF717FA0DF10301284601224FF084
:10226000FF33FEF73BFE204602210122FEF70AFA69
:10227000C1208DF80300204601210022FEF702FA5A
:10228000204602210022FEF7FDF90DF10301284648
:1022900001224FF0FF33FEF721FE204602210122EA
:1022A000FEF7F0F94FF0C5082046012101228DF814
:1022B0000380FEF7E7F9204602210022FEF7E2F94B
:1022C0000DF10301284601224FF0FF33FEF706FE11
:1022D000204602210122FEF7D5F9C2208DF8030025
:1022E000204601210022FEF7CDF9204602210022DE
:1022F000FEF7C8F90DF10301284601224FF0FF3324
:10230000FEF7ECFD204602210122FEF7BBF90A2070
:102310008DF80300204601210122FEF7B3F9204683
:1023200002210022FEF7AEF90DF103012846012239
:102330004FF0FF33FEF7D2FD204602210122FEF7C7
:10234000A1F92046012101228DF803A0FEF79AF998
:10235000204602210022FEF795F90DF103012846DF
:1023600001224FF0FF33FEF7B9FD20460221012282
:10237000FEF788F9C3208DF80300204601210022D2
:10238000FEF780F9204602210022FEF77BF90DF1CD
:102390000301284601224FF0FF33FEF79FFD204640
:1023A00002210122FEF76EF98A272046012101222F
:1023B0008DF80370FEF766F9204602210022FEF731
:1023C00061F90DF10301284601224FF0FF33FEF7BA
:1023D00085FD204602210122FEF754F92A262046D7
:1023E000012101228DF80360FEF74CF920460221FD
:1023F0000022FEF747F90DF10301284601224FF0B4
:10240000FF33FEF76BFD204602210122FEF73AF969
:10241000C4208DF80300204601210022FEF732F986
:10242000204602210022FEF72DF90DF10301284676
:1024300001224FF0FF33FEF751FD20460221012219
:10244000FEF720F92046012101228DF80370FEF7E6
:1024500019F9204602210022FEF714F90DF10301BB
:10246000284601224FF0FF33FEF738FD20460221B7
:102470000122FEF707F9EE208DF803002046012126
:102480000122FEF7FFF8204602210022FEF7FAF8AB
:102490000DF10301284601224FF0FF33FEF71EFD28
:1024A000204602210122FEF7EDF8204601210022FC
:1024B0008DF80380FEF7E6F8204602210022FEF7A1
:1024C000E1F80DF10301284601224FF0FF33FEF73A
:1024D00005FD204602210122FEF7D4F80E208DF8DA
:1024E0000300204601210122FEF7CCF820460221FC
:1024F0000022FEF7C7F80DF10301284601224FF034
:10250000FF33FEF7EBFC204602210122FEF7BAF86A
:1025100020208DF80300204601210022FEF7B2F8AA
:10252000204602210022FEF7ADF80DF103012846F6
:1025300001224FF0FF33FEF7D1FC20460221012299
:10254000FEF7A0F83A208DF8030020460121002272
:10255000FEF798F8204602210022FEF793F80DF1CD
:102560000301284601224FF0FF33FEF7B7FC204657
:1025700002210122FEF786F805208DF8030020468F
:1025800001210122FEF77EF8204602210022FEF7FB
:1025900079F80DF10301284601224FF0FF33FEF7D1
:1025A0009DFC204602210122FEF76CF82046012105
:1025B00000228DF80360FEF765F820460221002214
:1025C000FEF760F80DF10301284601224FF0FF33BA
:1025D000FEF784FC204602210122FEF753F8204634
:1025E000012101228DF803A0FEF74CF820460221BC
:1025F0000022FEF747F80DF10301284601224FF0B3
:10260000FF33FEF76BFC204602210122FEF73AF869
:102610002046012101228DF803A0FEF733F8204661
:1026200002210022FEF72EF80DF1030128460122B7
:102630004FF0FF33FEF752FC204602210122FEF745
:1026400021F82046012101228DF803A0FEF71AF897
:10265000204602210022FEF715F80DF1030128465D
:1026600001224FF0FF33FEF739FC20460221012200
:10267000FEF708F87F262046012101228DF803602D
:10268000FEF700F8204602210022FDF7FBFF0DF1C6
:102690000301284601224FF0FF33FEF71FFC2046BE
:1026A00002210122FDF7EEFF2B2720460121002207
:1026B0008DF80370FDF7E6FF204602210022FDF7AA
:1026C000E1FF0DF10301284601224FF0FF33FEF731
:1026D00005FC204602210122FDF7D4FF20460121FE
:1026E00001228DF803A0FDF7CDFF20460221002234
:1026F000FDF7C8FF0DF10301284601224FF0FF331B
:10270000FEF7ECFB204602210122FDF7BBFF20462D
:10271000012101228DF803A0FDF7B4FF204602211C
:102720000022FDF7AFFF0DF10301284601224FF013
:10273000FF33FEF7D3FB204602210122FDF7A2FF63
:102740002046012101228DF803A0FDF79BFF2046C2
:1027500002210022FDF796FF0DF103012846012218
:102760004FF0FF33FEF7BAFB204602210122FDF7AE
:1027700089FF2046012101228DF80360FDF782FFC9
:10278000204602210022FDF77DFF0DF103012846BE
:1027900001224FF0FF33FEF7A1FB20460221012268
:1027A000FDF770FFE0208DF8030020460121002294
:1027B000FDF768FF204602210022FDF763FF0DF1BF
:1027C0000301284601224FF0FF33FEF787FB204626
:1027D00002210122FDF756FF2046012101228DF83A
:1027E00003B0FDF74FFF204602210022FDF74AFF0C
:1027F0000DF10301284601224FF0FF33FEF76EFB77
:10280000204602210122FDF73DFF1C208DF8030028
:10281000204601210122FDF735FF2046022100223A
:10282000FDF730FF0DF10301284601224FF0FF3381
:10283000FEF754FB204602210122FDF723FF4FF053
:1028400007092046012101228DF80390FDF71AFFA8
:10285000204602210022FDF715FF0DF10301284655
:1028600001224FF0FF33FEF739FB204602210122FF
:10287000FDF708FF12208DF80300204601210122F8
:10288000FDF700FF204602210022FDF7FBFE0DF1BF
:102890000301284601224FF0FF33FEF71FFB2046BD
:1028A00002210122FDF7EEFE37208DF803002046BD
:1028B00001210122FDF7E6FE204602210022FDF75C
:1028C000E1FE0DF10301284601224FF0FF33FEF730
:1028D00005FB204602210122FDF7D4FE32208DF8AF
:1028E0000300204601210122FDF7CCFE20460221F3
:1028F0000022FDF7C7FE0DF10301284601224FF02B
:10290000FF33FEF7EBFA204602210122FDF7BAFE63
:102910004FF029082046012101228DF80380FDF7A0
:10292000B1FE204602210022FDF7ACFE0DF10301AD
:10293000284601224FF0FF33FEF7D0FA204602214D
:102940000122FDF79FFE4FF02D0B204601210122B1
:102950008DF803B0FDF796FE204602210022FDF718
:1029600091FE0DF10301284601224FF0FF33FEF7DF
:10297000B5FA204602210122FDF784FE20460121FE
:1029800001228DF80380FDF77DFE20460221002202
:10299000FDF778FE0DF10301284601224FF0FF33C9
:1029A000FEF79CFA204602210122FDF76BFE25204E
:1029B0008DF80300204601210122FDF763FE204629
:1029C00002210022FDF75EFE0DF1030128460122DF
:1029D0004FF0FF33FEF782FA204602210122FDF775
:1029E00051FE2046012101228DF80370FDF74AFEB9
:1029F000204602210022FDF745FE0DF10301284685
:102A000001224FF0FF33FEF769FA2046022101222E
:102A1000FDF738FE39208DF8030020460121012200
:102A2000FDF730FE204602210022FDF72BFE0DF1BE
:102A30000301284601224FF0FF33FEF74FFA2046EC
:102A400002210122FDF71EFE2046012101228DF800
:102A500003A0FDF717FE204602210022FDF712FE1B
:102A60000DF10301284601224FF0FF33FEF736FA3D
:102A7000204602210122FDF705FE01208DF803000A
:102A8000204601210122FDF7FDFD20460221002202
:102A9000FDF7F8FD0DF10301284601224FF0FF3349
:102AA000FEF71CFA204602210122FDF7EBFD03266A
:102AB0002046012101228DF80360FDF7E3FD204649
:102AC00002210022FDF7DEFD0DF10301284601225F
:102AD0004FF0FF33FEF702FA204602210122FDF7F4
:102AE000D1FD10272046012101228DF80370FDF74A
:102AF000C9FD204602210022FDF7C4FD0DF10301AE
:102B0000284601224FF0FF33FEF7E8F92046022164
:102B10000122FDF7B7FDE1208DF8030020460121D9
:102B20000022FDF7AFFD204602210022FDF7AAFD9D
:102B30000DF10301284601224FF0FF33FEF7CEF9D5
:102B4000204602210122FDF79DFD204601210122A0
:102B50008DF80360FDF796FD204602210022FDF767
:102B600091FD0DF10301284601224FF0FF33FEF7DE
:102B7000B5F9204602210122FDF784FD1D208DF8C4
:102B80000300204601210122FDF77CFD20460221A1
:102B90000022FDF777FD0DF10301284601224FF0D9
:102BA000FF33FEF79BF9204602210122FDF76AFD63
:102BB0002046012101228DF80390FDF763FD204698
:102BC00002210022FDF75EFD0DF1030128460122DE
:102BD0004FF0FF33FEF782F9204602210122FDF774
:102BE00051FD06208DF80300204601210122FDF74A
:102BF00049FD204602210022FDF744FD0DF10301AD
:102C0000284601224FF0FF33FEF768F920460221E3
:102C10000122FDF737FD2E262046012101228DF8E5
:102C20000360FDF72FFD204602210022FDF72AFD5B
:102C30000DF10301284601224FF0FF33FEF74EF954
:102C4000204602210122FDF71DFD2C208DF80300F6
:102C5000204601210122FDF715FD20460221002218
:102C6000FDF710FD0DF10301284601224FF0FF335F
:102C7000FEF734F9204602210122FDF703FD20462C
:102C8000012101228DF80380FDF7FCFC2046022182
:102C90000022FDF7F7FC0DF10301284601224FF059
:102CA000FF33FEF71BF9204602210122FDF7EAFC63
:102CB0002046012101228DF803B0FDF7E3FC2046F8
:102CC00002210022FDF7DEFC0DF10301284601225E
:102CD0004FF0FF33FEF702F9204602210122FDF7F3
:102CE000D1FC2046012101228DF80360FDF7CAFCCA
:102CF000204602210022FDF7C5FC0DF10301284604
:102D000001224FF0FF33FEF7E9F8204602210122AD
:102D1000FDF7B8FC2046012101228DF80360FDF784
:102D2000B1FC204602210022FDF7ACFC0DF10301AD
:102D3000284601224FF0FF33FEF7D0F8204602214B
:102D40000122FDF79FFC37208DF80300204601216A
:102D50000122FDF797FC204602210022FDF792FC9C
:102D60000DF10301284601224FF0FF33FEF7B6F8BC
:102D7000204602210122FDF785FC3F208DF803004B
:102D8000204601210122FDF77DFC20460221002280
:102D9000FDF778FC0DF10301284601224FF0FF33C7
:102DA000FEF79CF8204602210122FDF76BFC20462D
:102DB000012101228DF803A0FDF764FC20460221C9
:102DC0000022FDF75FFC0DF10301284601224FF0C0
:102DD000FF33FEF783F8204602210122FDF752FC63
:102DE0002046012101228DF803A0FDF74BFC20466F
:102DF00002210022FDF746FC0DF1030128460122C5
:102E00004FF0FF33FEF76AF8204602210122FDF75A
:102E100039FC02208DF80300204601210122FDF734
:102E200031FC204602210022FDF72CFC0DF10301AC
:102E3000284601224FF0FF33FEF750F820460221CA
:102E40000122FDF71FFC2046012101228DF80370AD
:102E5000FDF718FC204602210022FDF713FC0DF1BE
:102E60000301284601224FF0FF33FEF737F82046D2
:102E700002210122FDF706FC13208DF803002046F5
:102E800001210022FDF7FEFB204602210022FDF772
:102E9000F9FB0DF10301284601224FF0FF33FEF745
:102EA0001DF8204602210122FDF7ECFB0A20FDF768
:102EB00005FB2046012100228DF80380FDF7E2FB8F
:102EC000204602210022FDF7DDFB0DF1030128461B
:102ED00001224FF0FF33FEF701F8204602210122C4
:102EE000FDF7D0FB0A20FDF7E9FA36208DF8030044
:102EF000204601210022FDF7C5FB204602210022C9
:102F0000FDF7C0FB0DF10301284601224FF0FF330E
:102F1000FDF7E4FF204602210122FDF7B3FBC820A4
:102F20008DF80300204601210122FDF7ABFB20466E
:102F300002210022FDF7A6FB0DF103012846012224
:102F40004FF0FF33FDF7CAFF204602210122FDF7B3
:102F500099FB40F27430C2F200004FF40041FDF7DB
:102F600041FA00F047F96420FDF7A8FA01B0BDE886
:102F7000F08F000040F27432C2F2000202EB012135
:102F800031F81000704700002DE9F04F81B040F299
:102F9000004840F2743548F25C4A48F2743940F215
:102FA0007417C4F202080026C2F20005C2F2000A39
:102FB000C2F20009C2F2000706E000BF0136802E0F
:102FC00005F5807500F012814FF0000B6FF0FF00E7
:102FD00029184FEACB12B1F8003142EA5B225A407D
:102FE000C3EB43131A44D301B1F8024143EA52221E
:102FF0006240C4EB44131A44D301B1F8044143EADC
:1030000052226240C4EB44131A44D301B1F8064182
:1030100043EA52226240C4EB44131A44D301B1F88C
:10302000084143EA52226240C4EB44131A44D301DC
:10303000B1F80A4143EA52226240C4EB44131A44F5
:10304000D301B1F80C4143EA52226240C4EB44136D
:103050001A44D301B1F80E4143EA52226240C4EB54
:1030600044131A44D301B1F8104143EA522262409A
:10307000C4EB44131A44D301B1F8124143EA52227B
:103080006240C4EB44131A44D301B1F8144143EA3B
:1030900052226240C4EB44131A44D301B1F81641E2
:1030A00043EA52226240C4EB44131A44D301B1F8FC
:1030B000184143EA52226240C4EB44131A44D3013C
:1030C000B1F81A4143EA52226240C4EB44131A4455
:1030D000D301B1F81C4143EA52226240C4EB4413CD
:1030E0001A44D301B1F81E1143EA52224A40C1EBFF
:1030F0004111203002EB010B7FF46AAF3AF8160061
:103100001FFA8BF188423FF459AFB1B200207F2201
:103110000B4600F043FA2C208DF8030040460121B5
:103120000022FDF7AFFA404602210022FDF7AAFA7D
:1031300048460DF1030101224FF0FF33FDF7CEFEAB
:10314000404602210122FDF79DFA6FF0FF0000BF0B
:103150002A18B2F80031B2F802411BBA39181B0C18
:10316000A1F8003123BAB2F804411B0CA1F80231D6
:1031700023BAB2F806411B0CA1F8043123BAB2F805
:1031800008411B0CA1F8063123BAB2F80A411B0C06
:10319000A1F8083123BAB2F80C41B2F80E211B0C89
:1031A000A1F80A3123BA12BA1B0C120C1030A1F884
:1031B0000C31A1F80E21CBD1404601210122FDF7AF
:1031C00061FA404602210022FDF75CFA4846394682
:1031D0004FF480724FF0FF33FDF780FE404602212E
:1031E0000122FDF74FFA2AF816B0E7E601B0BDE874
:1031F000F08F00002DE9F04381B040F2004900203B
:1032000000217F227F23C4F20209002700F0C6F9C3
:103210002C208DF80300484601210022FDF732FAE8
:10322000484602210022FDF72DFA48F27438C2F216
:1032300000080DF10301404601224FF0FF33FDF776
:103240004DFE484602210122FDF71CFA40F274357A
:1032500040F27426C2F20005C2F200066FF0FF00D1
:103260002A18B2F80031B2F802411BBA31181B0C0F
:10327000A1F8003123BAB2F804411B0CA1F80231C5
:1032800023BAB2F806411B0CA1F8043123BAB2F8F4
:1032900008411B0CA1F8063123BAB2F80A411B0CF5
:1032A000A1F8083123BAB2F80C41B2F80E211B0C78
:1032B000A1F80A3123BA12BA1B0C120C1030A1F873
:1032C0000C31A1F80E21CBD1484601210122FDF796
:1032D000D9F9484602210022FDF7D4F9404631468B
:1032E0004FF480724FF0FF33FDF7F8FD484602219E
:1032F0000122FDF7C7F90137802F05F58075ADD1A3
:1033000001B0BDE8F08300002DE9F04387B000274D
:1033100043F630000697CDE90477CDE902770197AF
:10332000C4F20200016840F2000941F0800101602E
:103330000168C4F2020901F080010191019901972D
:103340000168002241F0010101600168402601F09E
:103350000101019101990197016841F002010160A9
:103360000068402100F00200019001984846FDF7F6
:1033700089F909F580652846072100224FF00708E2
:10338000FDF780F9029602AE012448463146CDE9A8
:1033900003470597FDF7A6F828463146CDE9028494
:1033A000CDE90477FDF79EF807B0BDE8F083000093
:1033B00080B548F2743043F20001C2F20000C4F25A
:1033C00001014FF48272002380E80E0000F1140125
:1033D0004FF4007C4FF0080E81E808500A21C0E944
:1033E0000333C0E90833C0E90A31FDF7E5FC0028E2
:1033F00008BF80BDBDE88040FDF75CB880B548F2ED
:10340000CC3044F60001C2F20000C4F201010023F6
:103410004F224FF6FF7C80E80E1003618361FDF7B9
:10342000ADFE002808BF80BDBDE88040FDF742B872
:1034300080B548F2144041F20001C2F20000C4F22B
:10344000010100234FF00C0C4FF4E13280E80E0034
:10345000C0E90333C0E905C3C361FDF715FF0028C8
:1034600008BF80BDBDE88040FDF724B8FEE700003E
:10347000FEE70000704700002DE9F04381B0089C92
:10348000984615460E468146FDF702F9201A00EBD4
:103490000804FDF7FDF840F20801C2F200010968D6
:1034A000C1F3CB3161430091D9F800108A683240F2
:1034B000921BB2FA82F25209954203D1002001B068
:1034C000BDE8F083074618F101000ED130E000BFDF
:1034D000009801380090D9F8000080683040801BC7
:1034E000B0FA80F040098542E8D0FDF7D1F8C01B62
:1034F000A04227D200980028EAD10024EBE700BFC1
:1035000088683040801BB0FA80F040098542D5D0F1
:1035100088683040801BB0FA80F040098542CDD0E9
:1035200088683040801BB0FA80F040098542C5D0E1
:1035300088683040801BB0FA80F040098542DFD1B6
:10354000BCE700BFD9E900014268B1F5827F22F0F3
:10355000E00242600BD1D9F80810B1F5004F02D05B
:10356000B1F5806F03D1016821F040010160D9F805
:103570002810B1F5005F07D1016821F40051016006
:10358000016841F400510160012089F851000020D8
:1035900089F85000032001B0BDE8F0832DE9F04325
:1035A00083B00646002040F2004401902A20C4F275
:1035B0000204154689468DF80A00204601210022A2
:1035C0009846FDF75FF8204602210022FDF75AF8E1
:1035D00048F27437C2F200070DF10A0138460122A1
:1035E0004FF0FF33FDF77AFC204602210122FDF760
:1035F00049F8B01C8DF80500A81C8DF8070020467E
:1036000001210122FDF73EF8204602210022FDF7AC
:1036100039F801AD3846294604224FF0FF33FDF753
:103620005DFC204602210122FDF72CF82B208DF8AD
:103630000B00204601210022FDF724F8204602213C
:103640000022FDF71FF80DF10B01384601224FF063
:10365000FF33FDF743FC204602210122FDF712F85B
:1036600009F103008DF8050008F103008DF807004B
:10367000204601210122FDF705F820460221002203
:10368000FDF700F83846294604224FF0FF33FDF7D6
:1036900025FC204602210122FCF7F4FF03B0BDE81F
:1036A000F083000070470000FCF7F8BFF0B593B05E
:1036B00007AC20463021FCF795FE002543F640007C
:1036C0000695CDE90455CDE902550195C4F20200F5
:1036D0000168022641F08051016000680F2700F068
:1036E00080500190019847F200000195C4F200005B
:1036F000016866F38F310160006800F4404001907A
:103700000198012007904FF4803008904FF480001A
:103710000E906020CDE910060420129020460D96F0
:103720000F97FDF773F918B172B600BFFEE700BF3F
:103730004FF48050CDE9050502A80221CDE90276BB
:103740000495FDF751F818B172B600BFFEE700BF4F
:1037500013B0F0BD4EF68850CEF20000016841F47F
:103760007001016070470000B0B540F2FF7E05684F
:10377000C4F2000E40F2000C7045C4F2010C1DDDD5
:1037800040F60003C4F20003984220D060451ED0EA
:1037900040F60043C4F20003984218D04FF6FF737E
:1037A000C4F2000398421DDC704527DCB0F1804F65
:1037B0003CD040F20043C4F2000335E0B0F1804F4A
:1037C00005D040F20043C4F200039842E6D14B68B2
:1037D00025F0700243EA02054FF6FF73C4F20003BE
:1037E0009842E1DD44F2FF33C4F20103984211DC58
:1037F00060451BD044F2000314E000BF40F6000314
:10380000C4F20003984211D040F60043C4F2000312
:103810000AE000BF44F60003C4F20103984205D059
:1038200044F20043C4F20103984204D1CB6825F46A
:10383000407243EA02050A688C684B696045C462BD
:10384000826202D10969CCF83010026825F080014B
:1038500042F0040219430260012242610160B0BDDE
:10386000B0B50446006804F108030ECB056919439E
:1038700025F440552A4302616269E3691143C26835
:10388000194349F20C639A431143C1604169A2692B
:1038900021F4407141F20043114340F48062C4F2CC
:1038A00001039A42416103D1FDF764F802E000BFD1
:1038B000FDF74CF8E1694FF69C7563681922C0F674
:1038C000FF75B1F5004FA0FB02011FD15A00DB0FBD
:1038D000FCF7E6FC48F21F51C5F2EB11A0FB0123F7
:1038E0005A0905F1805302FB0300322303EBC000A9
:1038F000A0FB01014FF4F87000EA111000EB021078
:10390000C1F34211084421688860B0BD9A009B0F42
:10391000FCF7C6FC48F21F51C5F2EB11A0FB0123D6
:103920005A0902FB0500322303EB0010A0FB010142
:10393000F02000EA511000EB0210C1F343110844DB
:1039400021688860B0BD0000FEE7000082B0FCF78F
:10395000B3FEFFF7ABFEFFF7D7FCFFF729FDFFF73C
:1039600067FDFFF74BFDFEF71FFA48F2CC30C2F2BD
:103970000000FDF74BFC00244FF47845FF2600BF04
:103980000020FEF7BDF9402030210A220323CDE9B3
:103990000054FDF70DFE402030210A220C23CDE912
:1039A0000054FDF74DFF00203F2100221F23CDE9E9
:1039B0000056FDF753FD30207F2100223F23CDE943
:1039C0000056FEF7DDF8FFF7DFFA4FF4FA70FCF768
:1039D00075FDD5E7F1EE100A4FF6FF71C0F2C03168
:1039E00020EA010040F04070E1EE100A704700004C
:1039F000000000000000010203040607080900009F
:103A00000000010203040000283A00080000002022
:103A100010000000F8010008383A000810000020EB
:103A2000508B000018020008010000001000000088
:083A30000024F4000000000076
:040000050800019559
:00000001FF
