:020000040800F2
:10000000708F0020690200081D180008B116000852
:1000100019180008690600085133000800000000A4
:10002000000000000000000000000000AD300008EB
:100030006D0600080000000021180008B13000081B
:10004000830200088302000883020008830200087C
:10005000830200088302000883020008830200086C
:10006000830200088302000883020008830200085C
:10007000830200088302000883020008830200084C
:1000800083020008830200088302000800000000C9
:1000900000000000000000000000000083020008D3
:1000A000830200088302000883020008830200081C
:1000B000830200088302000883020008830200080C
:1000C00083020008830200088302000883020008FC
:1000D0008302000883020008830200080000000079
:1000E0008302000883020008830200080000000069
:1000F0000000000000000000000000008302000873
:100100000000000083020008830200088302000848
:1001100000000000000000000000000000000000DF
:10012000830200088302000883020008830200089B
:100130008302000800000000000000000000000032
:100140000000000000000000000000008302000822
:10015000830200088302000883020008830200086B
:100160008302000883020008000000000000000075
:10017000000000000000000000000000000000007F
:1001800000000000830200080000000000000000E2
:100190008302000800F002F800F057F814A696E871
:1001A000000CB244B344DA4501D100F04EF8BAE88D
:1001B0000F000FA696E83000A5EB040504EB060738
:1001C000AAEB0704A7F101074FEA15154FEA34140B
:1001D000A4F10104AC4201D300F037F813F0010F91
:1001E00018BFFB1A43F0010300F001F8DBE71847E2
:1001F000844A0000A44A0000103A24BF78C878C19D
:10020000FAD8520724BF30C830C144BF04680C601C
:1002100070470000704700000023002400250026DE
:10022000103A28BF78C1FBD8520728BF30C148BF59
:100230000B607047642900F0F780002070471FB5FD
:1002400003F0F8F81FBD10B510BD00F0D2F911464B
:10025000FFF7F5FF03F07EF800F0F0F903B4FFF7C5
:10026000F2FF03BC00F0F8F909488047094800474D
:10027000FEE7FEE7FEE7FEE7FEE7FEE7FEE7FEE756
:10028000FEE7FEE704480549054A064B70470000B3
:100290005D3100089501000870890020708F0020F2
:1002A000708B0020708B002053EA020C00F06980F4
:1002B0002DE9F04B4FF00006002B1FBFB3FA83F57A
:1002C00003FA05F424FA05F65E4012BF1643B2FAAB
:1002D00082F502FA05F4C5F120051EBF22FA05FCDD
:1002E00044EA0C04203556EA044C4FEA144418BF83
:1002F000641C4FF000084FF00009904271EB030CB2
:1003000039D3002919BFB1FA81F701FA07F6B0FA1B
:1003100080F700FA07F6C7F120071EBF20FA07FC96
:1003200046EA0C062037B6FBF4FCA7EB0507103FA6
:1003300007F01F0BCBF120062CFA06F60CFA0BFB8C
:1003400044BFB3460026202FA4BF5E464FF0000BEB
:100350005BEA060C08BF4FF0010B19EB0B0948EBE9
:100360000608ABFB027C06FB02CC0BFB03CCC01BDC
:1003700071EB0C01C1E70B46024641464846BDE819
:10038000F08B13B5084318BF4FF0FF300146AFF3B1
:100390000080BDE81C4070470FB41CB5074B06AA8F
:1003A0007B4469460090059800F00BF900206946EF
:1003B00000F01AF91CBC5DF814FB000045020000B7
:1003C0002DE9F0410E460446002020622046E168F7
:1003D000884730B3252805D0D4E901219047206A09
:1003E000401CF2E7E168204600278847050018D046
:1003F000A5F14100192802D820354FF40067324694
:10040000294620462760FFF715FF40B1012804D098
:10041000F61D26F007060836D8E7361DD6E728462B
:10042000DAE7206ABDE8F0812DE9F04106460024B4
:1004300010687529314616A510D0AFF3008000284A
:1004400002DA404213A507E031688A0701D512A5F8
:1004500002E0490704D511A5012401E0AFF30080B3
:1004600000210A2206F1240709E0B0FBF2FCB0FBF0
:10047000F2F302FB1C00303078541846491C002867
:10048000F3D123462A463046BDE8F04100F03AB8A1
:10049000000000002D0000002B00000020000000E4
:1004A00002F0FF0343EA032242EA024200F002B8EC
:1004B0004FF0000200B5134694469646203922BFFD
:1004C000A0E80C50A0E80C50B1F12001BFF4F7AF48
:1004D000090728BFA0E80C5048BF0CC05DF804EB2A
:1004E000890028BF40F8042B08BF704748BF20F898
:1004F000022B11F0804F18BF00F8012B7047704796
:10050000704770472DE9F0470D46994692460446DC
:1005100000F124080168880604D5E06921F0100183
:10052000216000E00120A84201DD471B00E0002718
:10053000A1697A1902EB0900081AA0612078C006A7
:1005400002D42046AFF30080002608E0D4E9012160
:100550001AF806009047206A401C761C20624E451F
:10056000F4DB2078C0060AD52046AFF3008006E011
:10057000D4E9012130209047206A401C2062381EB7
:10058000A7F10107F4DC07E0D4E9012118F8050020
:100590009047206A401C2062281EA5F10105F3DC6B
:1005A0002046AFF300802078000602D50220BDE887
:1005B000F0870120FBE7000001694A1C026108780E
:1005C000704700B58FB0CDE9013100210591054993
:1005D0007944CDE9031011466846FFF7F1FE0FB0EC
:1005E00000BD0000E5FFFFFF0A6802F8010B0A608A
:1005F0007047754600F02CF8AE4605006946534634
:1006000020F00700854618B020B5FFF73BFEBDE897
:1006100020404FF000064FF000074FF000084FF069
:10062000000BAC46ACE8C009ACE8C009ACE8C009B6
:10063000ACE8C00921F007018D46704710B50446AB
:10064000AFF300802046BDE81040FFF707BE000072
:10065000004870472000002001491820ABBEFEE78B
:100660002600020070470000FEE70000704700000F
:1006700072B600BFFEE70000B0B5044600F0E6F831
:10068000054640F20000C2F200000078611C18BF6D
:10069000044400BF00F0DAF8401BA042FAD3B0BD1A
:1006A0002DE9F04F83B000F1200200F13E4741F206
:1006B0000005009207F1FF77C4F2020507224FEA16
:1006C000B726A84208BF042200254FF000084FF0CB
:1006D0000009042E38BF4FEAB72201920AE000BF9A
:1006E00009F1010908F10208B9F1100F05F104053B
:1006F00000F0A2800F68012202FA09FE17EA0E0A32
:10070000EED0D1F804C003220CF003077E1E02FADB
:1007100008F4012E6FEA040B12D88468CE6804EA4C
:100720000B0406FA08F634438460446824EA0E0693
:10073000CCF3001404FA09F42643466004E000BF39
:10074000032F01D103271EE0C6688C6806EA0B065A
:1007500004FA08F42643022FC66014D16FF0030296
:10076000009E02EA590756F807C005F01C040F2244
:100770000B69A2402CEA0202A3401A43F251D1F8BD
:1007800004C00CF00307026807FA08F302EA0B0240
:100790001A431CF4403F0260A2D0002243F64403F7
:1007A0000292C4F202031A6843F6004442F4804203
:1007B0001A601A68C4F2010402F480420292029A9A
:1007C00029F003024FF6084C2244CFF6FF7C52F882
:1007D0000C3005F00C070F26BE40B343019E06FA0D
:1007E00007F73B4342F80C30A2684B6842EA0A071D
:1007F00043F60C4CDE0258BF22EA0A07A760C4F297
:10080000010CDCF800209E0242EA0A0758BF22EAE7
:100810000A07CCF8007062689E0342EA0A0758BFD4
:1008200022EA0A0767602268DB0342EA0A0758BF28
:1008300022EA0A07276053E703B0BDE8F08F000003
:10084000002A08BF090481617047000048F668105B
:10085000C2F200000068704740F2000048F66811DC
:10086000C2F20000C2F2000100780A681044086079
:100870007047000080B543F60040C4F202000168F2
:1008800041F400710160016841F480610160016818
:1008900041F480710160032000F074F80F2000F033
:1008A00005F800F027F8002080BD000070B540F288
:1008B0000006C2F2000640F21C013278C2F20001CA
:1008C0004FF47A730968B3FBF2F20446B1FBF2F11C
:1008D000084600F01BFD0F2C4FF0010508D838B971
:1008E0004FF0FF3021460022002500F01FF8746011
:1008F000284670BD82B0002043F640010190C4F24A
:1009000002014A6842F480424A604A6802F4804226
:100910000192019A0090086840F0805008600868D1
:1009200000F080500090009802B0704710B54EF66D
:100930000C5CCEF2000CDCF80030C3F3022E8EF01B
:100940000704042C28BF0424BEF103034FF0FF3E2C
:100950000EFA04F438BF0023A14399400EFA03F3C2
:100960009A43114300F00F0200F160430901043A79
:1009700003F564436244002848BF02F10C03197078
:1009800010BD00004EF60C51CEF200010A684FF681
:10099000FF031A4060F30A2242F0806040F0FD70CD
:1009A00008607047002804BF012070472DE9F0411E
:1009B00043F60808C4F202080446D8F8F8030D46C6
:1009C00000F00700814207D988F8F853D8F8F803F7
:1009D00000F00700A84277D12068810717D54107AA
:1009E00005D5D8F8001041F4E051C8F8001001070F
:1009F00005D5D8F8001041F46041C8F80010D8F8C7
:100A00000010A26821F0F0011143C8F80010C007DF
:100A100040D1D8F8F80300F00700854207D288F8E3
:100A2000F853D8F8F80300F00700A8424CD120682A
:100A3000410707D5D8F80010E26821F4E0511143CE
:100A4000C8F80010000708D5D8F80000216920F484
:100A5000604040EAC100C8F8000000F07DF8D8F816
:100A6000001043F25A42C1F30311C0F60002515C78
:100A700040F21C0220FA01F140F20400C2F2000030
:100A80000068C2F200021160FFF710FF0020BDE80D
:100A9000F08100BF6068811E022907D258F8081C47
:100AA00089015CBF0120BDE8F08111E0012807D178
:100AB00058F8081C89035CBF0120BDE8F08107E0FD
:100AC00058F8081C890703D40120BDE8F08100BF55
:100AD000D8F8001021F003010843C8F80000FFF720
:100AE000B5FE064641F28837D8F80000616800F08C
:100AF0000C00B0EB810F8CD0FFF7A8FE801BB84232
:100B0000F2D90320BDE8F08140F21C0043F6080151
:100B1000C2F20000C4F202010068096843F26A42AE
:100B2000C1F38221C0F60002515CC840704700004A
:100B300040F21C0043F60801C2F20000C4F20201B8
:100B40000068096843F26A42C1F34231C0F600020C
:100B5000515CC8407047000010B543F60404C4F26D
:100B600002046168C1F3810142F20040C0F2F40066
:100B7000DFE801F002040A0210BD00BF47F64000A2
:100B8000C0F27D1010BD00BF2068216823684902B3
:100B900047F64001C0F27D1100F03F02C3F3881018
:100BA0005CBF42F20041C0F2F401A1FB000100234E
:100BB000FFF77AFB21680222C1F3014102EB4101F8
:100BC000B0FBF1F010BD0000002804BF0120704709
:100BD0002DE9F04182B00446007843F60006C007D4
:100BE000C4F202060CD0B06800F00C00042840F0FB
:100BF00081803068800303D56068002800F0688138
:100C0000207880071BD5B06810F00C0F09D0B068B1
:100C100000F00C00082840F087807068400200F166
:100C200083803068800703D5E068012840F0508158
:100C30003068216920F0F80040EAC1003060207877
:100C4000000713D4207840072AD4A569002D00F0AE
:100C50003A81B06800F00C00082840F0A580012D12
:100C600040F00E81012002B0BDE8F08160690028EB
:100C700000F082800020C4F247200121C0F8801ECD
:100C8000FFF7E4FD054600BF706F8007DAD4FFF779
:100C9000DDFD401B0228F7D9032002B0BDE8F0813A
:100CA000306C5FEAC0080AD400200190306C40F03C
:100CB00080503064306C00F080500190019847F211
:100CC0000007C4F200073868C00547D4386840F40C
:100CD00080703860FFF7BAFD054600BF3868C00570
:100CE0003CD4FFF7B3FD401B0228F7D9032002B024
:100CF000BDE8F081B06800F00C00082803D17068EE
:100D000040023FF576AF61683068B1F5803F07D0AB
:100D1000B1F5A02F40F09A8040F480203060306818
:100D200040F4803030609AE0E068002840F2000033
:100D3000C4F247205CD001210160FFF787FD054622
:100D4000306880073FF574AFFFF780FD401B022835
:100D5000F6D9032002B0BDE8F08100BFA168306F72
:100D6000012905D0052955D140F004003067306FC6
:100D700040F00100306756E00020C4F24720002117
:100D8000C0F8801EFFF762FD054600BF706F800748
:100D90007FF558AFFFF75AFD401B0228F6D9032014
:100DA00002B0BDE8F08100BF0027C4F24727002051
:100DB0003866FFF74BFD022D05460DD130688001E6
:100DC00040F18A80FFF742FD401B02284FF00300EC
:100DD000F4D902B0BDE8F0813068800173D5FFF727
:100DE00035FD401B02284FF00300F5D9F1E700BFA5
:100DF00000210160FFF72AFD054600BF306880072B
:100E00007FF51DAFFFF722FD401B02284FF00300C6
:100E1000F4D9DEE720F001003067306F002920F0C0
:100E2000040030677AD0FFF711FD054641F288379C
:100E3000306F800700F18480FFF708FD401BB84247
:100E4000F6D9032002B0BDE8F08100BF20F4803065
:100E500030603068002920F4802030607AD0FFF7BD
:100E6000F5FC0546306880033FF5CAAEFFF7EEFC9F
:100E7000401B6428F6D9032002B0BDE8F08100BF12
:100E80007068E16900F480028A4221D1216A00F091
:100E90003F028A421CD147F6C071626A0140B1EB41
:100EA000821F15D1A16A4FF6FF73C903994300F45D
:100EB0004032A1F580318A420AD1E16A00F07060C7
:100EC000B0EB016F04D1002002B0BDE8F08100BF9B
:100ED000012002B0BDE8F08104F11C052FCD0843CC
:100EE00040EA8210D9034FF6FF729143A1F5803199
:100EF00040EA05600843706001203866FFF7A6FCF1
:100F0000044600BF30688001DDD4FFF79FFC001B62
:100F100002284FF00300F5D95BE700BFFFF796FC0E
:100F2000054641F2883700BF306F800708D5FFF7CC
:100F30008DFC401BB8424FF00300F5D949E700BFD4
:100F4000B8F1000F3FF581AE306C20F08050306476
:100F50007BE600BFFFF77AFC054600BF30688003E0
:100F60007FF54EAEFFF772FC401B64284FF0030084
:100F7000F4D92EE770B528B1416A29B10021016189
:100F8000142106E0012070BD4168B1F5827F02D0D6
:100F90001C21002242500026866290F8511029B987
:100FA00080F85060054600F03DF82846022180F8A0
:100FB000511090E82E0002F482720C6803F404438E
:100FC00024F040040C601A4405F4006305691A44D7
:100FD00005F0020345691A4405F001038569C469F7
:100FE0001A4405F400731A4404F03803046A1A44DE
:100FF00004F08003846A1A4304F400531A430A601D
:10100000436A042202EA154203F010031A444A60BC
:10101000CA6922F40062CA610121466580F8511054
:10102000304670BD80B586B043F200010068C4F25E
:101030000101002288420592CDE903220292019229
:1010400002D006B080BD00BF43F630000092C4F26B
:101050000200436943F480534361436903F48053BE
:101060000093009B0092036843F001030360006853
:1010700000F0010000900098A02001900220CDE92E
:101080000202032004900520059001F5504001A9BB
:10109000FFF706FB06B080BD2DE9F04184B01D4688
:1010A00016460F460446FFF7D1FB94F8511001296C
:1010B0000ED18046002F4FF0010018BF002E03D143
:1010C00004B0BDE8F08100BF94F85000012803D1BE
:1010D000022004B0BDE8F081012084F85000032014
:1010E000002184F8510061652763A686E686A16326
:1010F000A187E187A0682164B0F5004F2068616492
:1011000007D1016821F040010160016841F480418C
:1011100001600168490603D4016841F040010160A3
:101120006168731EE268B1FA81F1B3FA83F3490989
:101130005B09B2F5006F41EA030139D131B137F8EB
:10114000021BC1602763E08E0138E086E08E002834
:1011500070D0681C0BD11AE0216B31F8022BC260F1
:101160002163E08E0138E086E08E002862D020689E
:1011700081688907F0D4FFF769FBA0EB0800A8425B
:10118000F2D338E0FFF762FBE08E002852D02068EF
:1011900081688907F6D5216B31F8022BC260216383
:1011A000E08E0138E086E08E0028F0D142E000BFFA
:1011B00039B139780173206B01302063E08E01383A
:1011C000E086E08EB0B3681C0BD123E0216B097878
:1011D0000173206B01302063E08E0138E086E08EE1
:1011E00040B3206881688907F0D4FFF72FFBA0EB9C
:1011F0000800A842F3D3012084F85100002084F8AD
:101200005000032004B0BDE8F08100BFFFF71EFBD3
:10121000E08E78B1206881688907F7D5216B09785D
:101220000173206B01302063E08E0138E086E08E90
:101230000028EFD12046022101222B46CDF8008064
:1012400000F0F0FAE0B1606D40F020006065202011
:101250006065A06838B9002002902068C1680291DA
:10126000806802900298012084F85100002084F8E0
:101270005000606D002818BF012004B0BDE8F08167
:1012800040F21C00C2F20000006849F68171C1F210
:101290005E61A0FB0101480D4FF47A714843039051
:1012A0006068B0F5827F0BD12046802100222B465A
:1012B000CDF8008000F0B6FA0028C4D1C9E700BF1D
:1012C00003980028C5D003980138039020688168EE
:1012D0000906BED503990029BBD0039901390391B2
:1012E00081680906B5D503990029B2D0039901395F
:1012F000039181680906ACD503990029A9D0039907
:101300000139039180680006DAD4A2E7411E00206B
:10131000B0EB116F1CBF012070474EF21002CEF2ED
:10132000000251604EF62351CEF20001F0230B7003
:101330000721906011607047002804BF01207047AA
:1013400010B5044690F83D0028B9002084F83C0010
:10135000204600F01FF8022084F83D002068211D7F
:1013600001F006FF012084F8460084F83E0084F86E
:101370003F0084F8400084F8410084F8420084F87B
:10138000430084F8440084F8450084F83D000020C0
:1013900010BD0000006844F60001C4F2010188425B
:1013A00018BF704781B00020009043F64400C4F29B
:1013B0000200016841F480210160006800F480208F
:1013C0000090009801B0704790F83D1001291CBFB3
:1013D00001207047022180F83D10006840F6FF317F
:1013E000C4F2000188420FDCB0F1804F1DD040F202
:1013F0000041C4F20001884217D040F60001C4F257
:101400000001884211D017E040F60041C4F200010B
:1014100088420AD044F20001C4F20101884204D09B
:101420000021C4F20101884206D1816801F0070160
:10143000062904BF00207047016841F001010160E6
:1014400000207047002804BF0120704710B50446F3
:1014500090F8410028B9002084F84000204600F0B0
:1014600021F8242084F841002068C16821F400514B
:10147000C160204601F0F8FE2068016921F4904126
:101480000161416921F02A014161C16841F40051C3
:10149000C16000202021606484F8411084F842106B
:1014A000606310BD80B586B041F200010068C4F2EF
:1014B0000101002288420592CDE9032202920192A5
:1014C00002D006B080BD00BF43F630000092C4F2E7
:1014D0000200436943F010034361436903F01003C2
:1014E0000093009B0092036843F0010303600068CF
:1014F00000F00100009000984FF4C06001900220BD
:10150000CDE90202032004900720059001F5704008
:1015100001A9FFF7C5F806B080BD00002DE9F04332
:1015200081B0044690F84100202809D100294FF0ED
:10153000010018BF002A07D101B0BDE8F08300BF49
:10154000022001B0BDE8F0830020606421201D4628
:101550000E4684F841001746FFF778F9A784E78420
:10156000A1688146B1F5805F02D1206900285DD075
:1015700037460020E28C2168002A5DD06A1C24D006
:10158000002D4AD0804600BF0868000608D4FFF747
:101590005DF9A0EB0900A8427AD82168C868F3E792
:1015A00017B117F8010B04E038F8020B00276FF3AE
:1015B0005F204860E08C0138E084E08C0028E3D1B3
:1015C0003AE000BF0A68120609D40A68120606D477
:1015D0000A6812065CBF0A685FEA0262F2D51FB1B0
:1015E00017F8012B05E000BF30F8022B00276FF33E
:1015F0005F224A60E28C013AE284E28C002AE4D164
:101600001AE000BF30F8022B00276FF35F224A6018
:10161000E28C013AE284E28C72B10A68120635D596
:10162000002FEFD017F8012BF1E700BF002730465D
:10163000E28C2168002AA1D1086840061ED42DB38F
:10164000681C14D1086840062AD40868400627D4CC
:101650000868400624D4086840064FF00000F1D521
:101660000DE000BF2068C1680068400618D4FFF78D
:10167000EDF8A0EB0900A842F4D909E000202021F0
:1016800084F8411001B0BDE8F08300BFFFF7DEF839
:101690000320202184F8411001B0BDE8F08300BF91
:1016A0000020202184F8411001B0BDE8F083000043
:1016B000FEE700002DE9F04387B0002743F6300035
:1016C0000697CDE90477CDE902770197C4F20200CD
:1016D000016840F2000941F0800101600168C4F234
:1016E000020901F08001019101990197016800222E
:1016F00041F0010101600168402601F00101019102
:1017000001990197016841F00201016000684021E0
:1017100000F00200019001984846FFF791F809F5A2
:1017200080652846072100224FF00708FFF788F858
:10173000029602AE012448463146CDE9034705979B
:10174000FEF7AEFF28463146CDE90284CDE90477A5
:10175000FEF7A6FF07B0BDE8F083000080B548F6AD
:10176000800043F20001C2F20000C4F201014FF414
:101770008272002380E80E0000F114014FF4007C17
:101780004FF0080E81E808500A21C0E90333C0E990
:101790000833C0E90A31FFF7EDFB002808BF80BD20
:1017A000BDE88040FEF764BF80B548F6D80044F637
:1017B0000001C2F20000C4F2010100234F224FF6E3
:1017C000FF7C80E80E1003618361FFF7B5FD002800
:1017D00008BF80BDBDE88040FEF74ABF80B548F62F
:1017E000201041F20001C2F20000C4F20101002306
:1017F0004FF00C0C4FF4E13280E80E00C0E90333E7
:10180000C0E905C3C361FFF71DFE002808BF80BD06
:10181000BDE88040FEF72CBFFEE70000FEE70000B9
:10182000704700002DE9F04381B0089C98461546AA
:101830000E468146FFF70AF8201A00EB0804FFF76E
:1018400005F840F21C01C2F200010968C1F3CB3176
:1018500061430091D9F800108A683240921BB2FAB5
:1018600082F25209954203D1002001B0BDE8F08315
:10187000074618F101000ED130E000BF0098013892
:101880000090D9F8000080683040801BB0FA80F0EA
:1018900040098542E8D0FEF7D9FFC01BA04227D2FD
:1018A00000980028EAD10024EBE700BF88683040A8
:1018B000801BB0FA80F040098542D5D0886830405E
:1018C000801BB0FA80F040098542CDD08868304056
:1018D000801BB0FA80F040098542C5D0886830404E
:1018E000801BB0FA80F040098542DFD1BCE700BF21
:1018F000D9E900014268B1F5827F22F0E00242603E
:101900000BD1D9F80810B1F5004F02D0B1F5806FB6
:1019100003D1016821F040010160D9F82810B1F528
:10192000005F07D1016821F400510160016841F4B2
:1019300000510160012089F85100002089F8500011
:10194000032001B0BDE8F0832DE9F04F85B002938C
:101950000F9B0091032B049000F28A80A2F12001DA
:10196000DFE803F0020E060A0E9B5A680AE000BF89
:101970000E9BDA6806E000BF0E9B1A6902E000BF0A
:101980000E9B9A685878C9B29B78414301FB032AA1
:10199000002871D00E990F78002F6DD00299002485
:1019A000090A01910122012106E000BF0E98394683
:1019B0004078013484425FD2002953D000984FF020
:1019C000000900EB040C1FFA8CF10802039048F2A6
:1019D0008000C2F2000000EB011E002105E000BF04
:1019E0000131B94209F10109E0D20E9801F0070373
:1019F00090F8028090F803B004FB08F000EBD100EF
:101A00001AF8000002FA03F6BBF1000F4FF0800550
:101A100008BF25FA03F60642E2D0049800EB09035A
:101A200043EA0C0080B27F28DAD8039A98B242EADF
:101A3000400640F28005019AC2F20005AF19AA558E
:101A4000029EC0087E7003F007031EF80060802528
:101A500025FA03F333430EF800300E98012207787D
:101A6000BEE700BF002101348442A5D304E000BFDB
:101A70000E98407800288DD105B0BDE8F08F0000A9
:101A80002DE9F04F81B048F2800C4FF0000E802617
:101A9000C2F2000C00274FF0800A4FF0000900242A
:101AA00008E000BF0EF1010EBEF1800F0CF1100C2A
:101AB00000F084800723E04609E000BF1FFA89F99F
:101AC0004C4588BFA14601240833872BEAD018F87B
:101AD000010B0028F8D01FFA8EF41FFA8AFA42B2DE
:101AE000544538BFA246B2F1FF3FA3F107020FDD14
:101AF000450617D4810620D4C10629D4010732D463
:101B000041073BD4810744D4C007D7D04DE000BF84
:101B1000B5B2AA42BDB238BF1646AA4288BF174620
:101B20004506E7D59D1FB1B28D42B9B238BF2E46EA
:101B30008A4228BF2F468106DED5591FB2B2914294
:101B4000BAB238BF0E46914288BF0F46C106D5D5FE
:101B5000191FB2B29142BAB238BF0E46914288BF45
:101B60000F460107CCD5D91EB2B29142BAB238BFE6
:101B70000E46914288BF0F464107C3D5991EB2B2A7
:101B80009142BAB238BF0E46914288BF0F468107D4
:101B9000BAD5591EB2B29142BAB238BF0E4691427E
:101BA00088BF0F46C0073FF489AFB0B28342B8B2D6
:101BB00038BF1E46834288BF1F467FE7E00766D0D6
:101BC0001FFA86F81FFA8AF51FFA89F940F2004BCE
:101BD000BAB2404629464B46C4F2020B01F0E2F984
:101BE0002C208DF80300584601210022FEF728FE24
:101BF0005846022100220224FEF722FE48F6800009
:101C0000C2F200000DF1030101224FF0FF33FFF794
:101C100043FA584602210122FEF712FE4D452ED806
:101C2000B81B04EB40004FEA480440F2800548F638
:101C30008008C2F2000586B2C2F200081FFA8AF0DC
:101C400004EB00202F18584601210122FEF7F8FD71
:101C5000584602210022FEF7F3FD4046394632463F
:101C60004FF0FF33FFF718FA584602210122FEF722
:101C7000E7FD0AF1010A1FFA8AF04845DED948F269
:101C80008000C2F200004FF40061FEF711FC01B0C9
:101C9000BDE8F08F2DE9F04782B09A461378FBB18A
:101CA000DDE90A780D468146561C044603E000BF74
:101CB00016F8013BA3B1A0B2A9B2DAB25346CDE9FE
:101CC0000078FFF741FE3878044410FA84F0802849
:101CD000EED378784C46054410FA85F07F28E7D992
:101CE00002B0BDE8F0870000B0B582B0020AC1B210
:101CF000914209D140F28000C2F200004FF400414D
:101D0000FEF7CEFB2EE000BF40F280010023C2F2BE
:101D1000000147F6FE7500BFCC186070A270E0703D
:101D200022716071A271E07122726072A272E0721F
:101D300022736073A273E07322746074A274E074FF
:101D400022756075A275E07522766076A276E076DF
:101D500022776077A277E07703F11E04CA5420331C
:101D6000AC42D9D3002000217F227F2301F01AF951
:101D700040F200442C20C4F202048DF807002046F3
:101D800001210022FEF75CFD204602210022FEF721
:101D900057FD48F68005C2F200050DF107012846FF
:101DA00001224FF0FF33FFF777F92046022101228D
:101DB000FEF746FD204601210122FEF741FD2046A7
:101DC00002210022FEF73CFD40F28001C2F2000138
:101DD00028464FF400424FF0FF33FFF75DF92046ED
:101DE00002210122FEF72CFD02B0B0BD2DE9F04F1B
:101DF00081B040F20044C4F20204A4F58065284694
:101E0000402100224FF0000AFEF71AFD6420FEF781
:101E100033FC2846402101220127FEF711FD6420F2
:101E2000FEF72AFC11208DF8030020460121002234
:101E3000FEF706FD2046022100224FF00208FEF7C1
:101E4000FFFC48F68005C2F200050DF103012846AB
:101E500001224FF0FF33FFF71FF920460221012234
:101E6000FEF7EEFC7820FEF707FCB1208DF80300AA
:101E7000204601210022FEF7E3FC20460221002239
:101E8000FEF7DEFC0DF10301284601224FF0FF337F
:101E9000FFF702F9204602210122FEF7D1FC20467D
:101EA000012101228DF803700126FEF7C9FC2046AE
:101EB00002210022FEF7C4FC0DF103012846012295
:101EC0004FF0FF33FFF7E8F8204602210122FEF72A
:101ED000B7FC2C208DF803002046012101222C277D
:101EE000FEF7AEFC204602210022FEF7A9FC0DF110
:101EF0000301284601224FF0FF33FFF7CDF82046BB
:101F000002210122FEF79CFC2D208DF803002046C3
:101F1000012101224FF02D09FEF792FC20460221FB
:101F20000022FEF78DFC0DF10301284601224FF03F
:101F3000FF33FFF7B1F8204602210122FEF780FCB3
:101F4000B2208DF80300204601210022FEF778FC24
:101F5000204602210022FEF773FC0DF10301284602
:101F600001224FF0FF33FFF797F8204602210122AC
:101F7000FEF766FC2046012101228DF80360012650
:101F8000FEF75EFC204602210022FEF759FC0DF10F
:101F90000301284601224FF0FF33FFF77DF820466A
:101FA00002210122FEF74CFC2046012101228DF87E
:101FB00003702C27FEF744FC204602210022FEF786
:101FC0003FFC0DF10301284601224FF0FF33FFF7DC
:101FD00063F8204602210122FEF732FC204601214F
:101FE00001228DF803904FF02D09FEF729FC2046C1
:101FF00002210022FEF724FC0DF1030128460122F4
:102000004FF0FF33FFF748F8204602210122FEF788
:1020100017FCB3208DF80300204601210022FEF7B3
:102020000FFC204602210022FEF70AFC0DF10301FD
:10203000284601224FF0FF33FFF72EF820460221F9
:102040000122FEF7FDFB2046012101228DF80360ED
:102050000126FEF7F5FB204602210022FEF7F0FBE9
:102060000DF10301284601224FF0FF33FFF714F86A
:10207000204602210122FEF7E3FB20460121012236
:102080008DF803702C27FEF7DBFB2046022100228F
:10209000FEF7D6FB0DF10301284601224FF0FF3376
:1020A000FEF7FAFF204602210122FEF7C9FB204677
:1020B000012101228DF803904FF02D09FEF7C0FB9E
:1020C000204602210022FEF7BBFB0DF1030128464A
:1020D00001224FF0FF33FEF7DFFF204602210122ED
:1020E000FEF7AEFB2046012101228DF80360FEF7CA
:1020F000A7FB204602210022FEF7A2FB0DF10301FF
:10210000284601224FF0FF33FEF7C6FF204602218A
:102110000122FEF795FB2046012101228DF8037074
:10212000FEF78EFB204602210022FEF789FB0DF10F
:102130000301284601224FF0FF33FEF7ADFF204692
:1021400002210122FEF77CFB2046012101228DF8AD
:102150000390FEF775FB204602210022FEF770FB7C
:102160000DF10301284601224FF0FF33FEF794FFE3
:10217000204602210122FEF763FBB4208DF8030004
:10218000204601210022FEF75BFB204602210022AF
:10219000FEF756FB0DF10301284601224FF0FF33F5
:1021A000FEF77AFF204602210122FEF749FB0720B5
:1021B0008DF80300204601210122FEF741FB204655
:1021C00002210022FEF73CFB0DF10301284601220B
:1021D0004FF0FF33FEF760FF204602210122FEF799
:1021E0002FFBC0208DF80300204601210022FEF7BE
:1021F00027FB204602210022FEF722FB0DF10301FE
:10220000284601224FF0FF33FEF746FF2046022109
:102210000122FEF715FBA2208DF8030020460121C4
:102220000122FEF70DFB204602210022FEF708FBEB
:102230000DF10301284601224FF0FF33FEF72CFF7A
:10224000204602210122FEF7FBFA2046012101224D
:102250008DF803804FF0020BFEF7F2FA20460221C0
:102260000022FEF7EDFA0DF10301284601224FF09E
:10227000FF33FEF711FF204602210122FEF7E0FAAC
:1022800084208DF80300204601210122FEF7D8FAB0
:10229000204602210022FEF7D3FA0DF10301284661
:1022A00001224FF0FF33FEF7F7FE20460221012204
:1022B000FEF7C6FAC1208DF8030020460121002256
:1022C000FEF7BEFA204602210022FEF7B9FA0DF110
:1022D0000301284601224FF0FF33FEF7DDFE2046C2
:1022E00002210122FEF7ACFA4FF0C5082046012179
:1022F00001228DF80380FEF7A3FA20460221002276
:10230000FEF79EFA0DF10301284601224FF0FF333C
:10231000FEF7C2FE204602210122FEF791FAC220FA
:102320008DF80300204601210022FEF789FA20469D
:1023300002210022FEF784FA0DF103012846012252
:102340004FF0FF33FEF7A8FE204602210122FEF7E0
:1023500077FA0A208DF80300204601210122FEF7BA
:102360006FFA204602210022FEF76AFA0DF10301FE
:10237000284601224FF0FF33FEF78EFE2046022151
:102380000122FEF75DFA2046012101228DF803A00B
:10239000FEF756FA204602210022FEF751FA0DF10F
:1023A0000301284601224FF0FF33FEF775FE204659
:1023B00002210122FEF744FAC3208DF803002046D3
:1023C00001210022FEF73CFA204602210022FEF7FE
:1023D00037FA0DF10301284601224FF0FF33FEF7D3
:1023E0005BFE204602210122FEF72AFA8A272046B8
:1023F000012101228DF80370FEF722FA2046022106
:102400000022FEF71DFA0DF10301284601224FF0CC
:10241000FF33FEF741FE204602210122FEF710FAAB
:102420002A262046012101228DF80360FEF708FAD2
:10243000204602210022FEF703FA0DF1030128468F
:1024400001224FF0FF33FEF727FE20460221012232
:10245000FEF7F6F9C4208DF8030020460121002282
:10246000FEF7EEF9204602210022FEF7E9F90DF110
:102470000301284601224FF0FF33FEF70DFE2046F0
:1024800002210122FEF7DCF92046012101228DF80C
:102490000370FEF7D5F9204602210022FEF7D0F99D
:1024A0000DF10301284601224FF0FF33FEF7F4FD42
:1024B000204602210122FEF7C3F9EE208DF8030029
:1024C000204601210122FEF7BBF92046022100220D
:1024D000FEF7B6F90DF10301284601224FF0FF3354
:1024E000FEF7DAFD204602210122FEF7A9F9204677
:1024F000012100228DF80380FEF7A2F92046022177
:102500000022FEF79DF90DF10301284601224FF04C
:10251000FF33FEF7C1FD204602210122FEF790F9AC
:102520000E208DF80300204601210122FEF788F9D4
:10253000204602210022FEF783F90DF1030128460F
:1025400001224FF0FF33FEF7A7FD204602210122B2
:10255000FEF776F920208DF80300204601210022A5
:10256000FEF76EF9204602210022FEF769F90DF10F
:102570000301284601224FF0FF33FEF78DFD204670
:1025800002210122FEF75CF93A208DF80300204673
:1025900001210022FEF754F9204602210022FEF715
:1025A0004FF90DF10301284601224FF0FF33FEF7EA
:1025B00073FD204602210122FEF742F905208DF825
:1025C0000300204601210122FEF73AF920460221AC
:1025D0000022FEF735F90DF10301284601224FF0E4
:1025E000FF33FEF759FD204602210122FEF728F9AC
:1025F0002046012100228DF80360FEF721F92046D4
:1026000002210022FEF71CF90DF1030128460122E8
:102610004FF0FF33FEF740FD204602210122FEF776
:102620000FF92046012101228DF803A0FEF708F9D9
:10263000204602210022FEF703F90DF1030128468E
:1026400001224FF0FF33FEF727FD20460221012231
:10265000FEF7F6F82046012101228DF803A0FEF7CF
:10266000EFF8204602210022FEF7EAF80DF10301FF
:10267000284601224FF0FF33FEF70EFD20460221CF
:102680000122FEF7DDF82046012101228DF803A08A
:10269000FEF7D6F8204602210022FEF7D1F80DF110
:1026A0000301284601224FF0FF33FEF7F5FC2046D8
:1026B00002210122FEF7C4F87F26204601210122D3
:1026C0008DF80360FEF7BCF8204602210022FEF7D9
:1026D000B7F80DF10301284601224FF0FF33FEF752
:1026E000DBFC204602210122FEF7AAF82B27204618
:1026F000012100228DF80370FEF7A2F82046022186
:102700000022FEF79DF80DF10301284601224FF04B
:10271000FF33FEF7C1FC204602210122FEF790F8AC
:102720002046012101228DF803A0FEF789F82046FA
:1027300002210022FEF784F80DF103012846012250
:102740004FF0FF33FEF7A8FC204602210122FEF7DE
:1027500077F82046012101228DF803A0FEF770F8DA
:10276000204602210022FEF76BF80DF103012846F6
:1027700001224FF0FF33FEF78FFC20460221012299
:10278000FEF75EF82046012101228DF803A0FEF736
:1027900057F8204602210022FEF752F80DF10301FE
:1027A000284601224FF0FF33FEF776FC2046022137
:1027B0000122FEF745F82046012101228DF8036031
:1027C000FEF73EF8204602210022FEF739F80DF10F
:1027D0000301284601224FF0FF33FEF75DFC20463F
:1027E00002210122FEF72CF8E0208DF8030020469C
:1027F00001210022FEF724F8204602210022FEF7E4
:102800001FF80DF10301284601224FF0FF33FEF7B8
:1028100043FC204602210122FEF712F82046012146
:1028200001228DF803B0FEF70BF8204602210022AA
:10283000FEF706F80DF10301284601224FF0FF33A1
:10284000FEF72AFC204602210122FDF7F9FF1C2099
:102850008DF80300204601210122FDF7F1FF2046FB
:1028600002210022FDF7ECFF0DF1030128460122B1
:102870004FF0FF33FEF710FC204602210122FDF746
:10288000DFFF4FF007092046012101228DF8039058
:10289000FDF7D6FF204602210022FDF7D1FF0DF102
:1028A0000301284601224FF0FF33FEF7F5FB2046D7
:1028B00002210122FDF7C4FF12208DF803002046FB
:1028C00001210122FDF7BCFF204602210022FDF775
:1028D000B7FF0DF10301284601224FF0FF33FEF749
:1028E000DBFB204602210122FDF7AAFF37208DF8ED
:1028F0000300204601210122FDF7A2FF204602210C
:102900000022FDF79DFF0DF10301284601224FF043
:10291000FF33FEF7C1FB204602210122FDF790FFA5
:1029200032208DF80300204601210122FDF788FFA7
:10293000204602210022FDF783FF0DF10301284606
:1029400001224FF0FF33FEF7A7FB204602210122B0
:10295000FDF776FF4FF029082046012101228DF86E
:102960000380FDF76DFF204602210022FDF768FF7E
:102970000DF10301284601224FF0FF33FEF78CFBD7
:10298000204602210122FDF75BFF4FF02D0B204670
:10299000012101228DF803B0FDF752FF20460221EC
:1029A0000022FDF74DFF0DF10301284601224FF0F3
:1029B000FF33FEF771FB204602210122FDF740FFA5
:1029C0002046012101228DF80380FDF739FF2046C2
:1029D00002210022FDF734FF0DF1030128460122F8
:1029E0004FF0FF33FEF758FB204602210122FDF78E
:1029F00027FF25208DF80300204601210122FDF745
:102A00001FFF204602210022FDF71AFF0DF10301EE
:102A1000284601224FF0FF33FEF73EFB20460221FD
:102A20000122FDF70DFF2046012101228DF80370E0
:102A3000FDF706FF204602210022FDF701FF0DF100
:102A40000301284601224FF0FF33FEF725FB204605
:102A500002210122FDF7F4FE39208DF80300204603
:102A600001210122FDF7ECFE204602210022FDF7A4
:102A7000E7FE0DF10301284601224FF0FF33FEF778
:102A80000BFB204602210122FDF7DAFE2046012140
:102A900001228DF803A0FDF7D3FE2046022100227B
:102AA000FDF7CEFE0DF10301284601224FF0FF3362
:102AB000FEF7F2FA204602210122FDF7C1FE0120B5
:102AC0008DF80300204601210122FDF7B9FE2046C2
:102AD00002210022FDF7B4FE0DF103012846012278
:102AE0004FF0FF33FEF7D8FA204602210122FDF70E
:102AF000A7FE03262046012101228DF80360FDF781
:102B00009FFE204602210022FDF79AFE0DF10301EF
:102B1000284601224FF0FF33FEF7BEFA204602217D
:102B20000122FDF78DFE10272046012101228DF89C
:102B30000370FDF785FE204602210022FDF780FE8E
:102B40000DF10301284601224FF0FF33FEF7A4FAEE
:102B5000204602210122FDF773FEE1208DF80300DB
:102B6000204601210022FDF76BFE204602210022B3
:102B7000FDF766FE0DF10301284601224FF0FF33F9
:102B8000FEF78AFA204602210122FDF759FE20466F
:102B9000012101228DF80360FDF752FE204602213B
:102BA0000022FDF74DFE0DF10301284601224FF0F2
:102BB000FF33FEF771FA204602210122FDF740FEA5
:102BC0001D208DF80300204601210122FDF738FE6B
:102BD000204602210022FDF733FE0DF103012846B5
:102BE00001224FF0FF33FEF757FA2046022101225F
:102BF000FDF726FE2046012101228DF80390FDF706
:102C00001FFE204602210022FDF71AFE0DF10301EE
:102C1000284601224FF0FF33FEF73EFA20460221FC
:102C20000122FDF70DFE06208DF80300204601214C
:102C30000122FDF705FE204602210022FDF700FEDD
:102C40000DF10301284601224FF0FF33FEF724FA6D
:102C5000204602210122FDF7F3FD2E262046012108
:102C600001228DF80360FDF7EBFD204602210022D2
:102C7000FDF7E6FD0DF10301284601224FF0FF3379
:102C8000FEF70AFA204602210122FDF7D9FD2C2089
:102C90008DF80300204601210122FDF7D1FD2046D9
:102CA00002210022FDF7CCFD0DF10301284601228F
:102CB0004FF0FF33FEF7F0F9204602210122FDF725
:102CC000BFFD2046012101228DF80380FDF7B8FDEC
:102CD000204602210022FDF7B3FD0DF10301284635
:102CE00001224FF0FF33FEF7D7F9204602210122DF
:102CF000FDF7A6FD2046012101228DF803B0FDF766
:102D00009FFD204602210022FDF79AFD0DF10301EF
:102D1000284601224FF0FF33FEF7BEF9204602217C
:102D20000122FDF78DFD2046012101228DF803606F
:102D3000FDF786FD204602210022FDF781FD0DF101
:102D40000301284601224FF0FF33FEF7A5F9204684
:102D500002210122FDF774FD2046012101228DF898
:102D60000360FDF76DFD204602210022FDF768FD9E
:102D70000DF10301284601224FF0FF33FEF78CF9D5
:102D8000204602210122FDF75BFD37208DF803006C
:102D9000204601210122FDF753FD20460221002299
:102DA000FDF74EFD0DF10301284601224FF0FF33E0
:102DB000FEF772F9204602210122FDF741FD3F2076
:102DC0008DF80300204601210122FDF739FD204640
:102DD00002210022FDF734FD0DF1030128460122F6
:102DE0004FF0FF33FEF758F9204602210122FDF78C
:102DF00027FD2046012101228DF803A0FDF720FDCB
:102E0000204602210022FDF71BFD0DF1030128469B
:102E100001224FF0FF33FEF73FF920460221012245
:102E2000FDF70EFD2046012101228DF803A0FDF7DC
:102E300007FD204602210022FDF702FD0DF10301EE
:102E4000284601224FF0FF33FEF726F920460221E3
:102E50000122FDF7F5FC02208DF803002046012138
:102E60000122FDF7EDFC204602210022FDF7E8FCDF
:102E70000DF10301284601224FF0FF33FEF70CF954
:102E8000204602210122FDF7DBFC20460121012220
:102E90008DF80370FDF7D4FC204602210022FDF7D7
:102EA000CFFC0DF10301284601224FF0FF33FEF75E
:102EB000F3F8204602210122FDF7C2FC13208DF811
:102EC0000300204601210022FDF7BAFC2046022122
:102ED0000022FDF7B5FC0DF10301284601224FF059
:102EE000FF33FEF7D9F8204602210122FDF7A8FCA6
:102EF0000A20FDF7C1FB2046012100228DF8038046
:102F0000FDF79EFC204602210022FDF799FC0DF101
:102F10000301284601224FF0FF33FEF7BDF820469B
:102F200002210122FDF78CFC0A20FDF7A5FB3620CB
:102F30008DF80300204601210022FDF781FC204688
:102F400002210022FDF77CFC0DF10301284601223D
:102F50004FF0FF33FEF7A0F8204602210122FDF7D3
:102F60006FFCC8208DF80300204601210122FDF7E7
:102F700067FC204602210022FDF762FC0DF10301EF
:102F8000284601224FF0FF33FEF786F82046022143
:102F90000122FDF755FC0020FEF7A6FE01B0BDE8BA
:102FA000F08F00002DE9F04383B00646002040F288
:102FB000004401902A20C4F20204154689468DF887
:102FC0000A002046012100229846FDF739FC2046E0
:102FD00002210022FDF734FC48F68007C2F2000708
:102FE0000DF10A01384601224FF0FF33FEF754F885
:102FF000204602210122FDF723FCB01C8DF80500BC
:10300000A81C8DF80700204601210122FDF718FCBD
:10301000204602210022FDF713FC01AD3846294667
:1030200004224FF0FF33FEF737F820460221012239
:10303000FDF706FC2B208DF80B0020460121002215
:10304000FDF7FEFB204602210022FDF7F9FB0DF102
:103050000B01384601224FF0FF33FEF71DF82046E2
:1030600002210122FDF7ECFB09F103008DF80500B8
:1030700008F103008DF80700204601210122FDF729
:10308000DFFB204602210022FDF7DAFB3846294605
:1030900004224FF0FF33FDF7FFFF204602210122FB
:1030A000FDF7CEFB03B0BDE8F083000070470000E1
:1030B000FDF7D2BBF0B593B007AC20463021FDF749
:1030C000F7F9002543F640000695CDE90455CDE912
:1030D00002550195C4F202000168022641F08051B8
:1030E000016000680F2700F080500190019847F2BE
:1030F00000000195C4F20000016866F38F310160A1
:10310000006800F4404001900198012007904FF4BE
:10311000803008904FF480000E906020CDE91006BA
:103120000420129020460D960F97FDF74DFD18B123
:1031300072B600BFFEE700BF4FF48050CDE9050531
:1031400002A80221CDE902760495FDF72BFC18B107
:1031500072B600BFFEE700BF13B0F0BD4EF6885058
:10316000CEF20000016841F4700101607047000078
:10317000B0B540F2FF7E0568C4F2000E40F2000CCC
:103180007045C4F2010C1DDD40F60003C4F20003DB
:10319000984220D060451ED040F60043C4F20003A0
:1031A000984218D04FF6FF73C4F2000398421DDC1A
:1031B000704527DCB0F1804F3CD040F20043C4F2B0
:1031C000000335E0B0F1804F05D040F20043C4F277
:1031D00000039842E6D14B6825F0700243EA0205ED
:1031E0004FF6FF73C4F200039842E1DD44F2FF336F
:1031F000C4F20103984211DC60451BD044F2000385
:1032000014E000BF40F60003C4F20003984211D05E
:1032100040F60043C4F200030AE000BF44F6000396
:10322000C4F20103984205D044F20043C4F2010302
:10323000984204D1CB6825F4407243EA02050A683B
:103240008C684B696045C462826202D10969CCF81E
:103250003010026825F0800142F004021943026038
:10326000012242610160B0BDB0B50446006804F1BE
:1032700008030ECB0569194325F440552A43026122
:103280006269E3691143C268194349F20C639A43C6
:103290001143C1604169A26921F4407141F20043C8
:1032A000114340F48062C4F201039A42416103D1A8
:1032B000FDF73EFC02E000BFFDF726FCE1694FF69A
:1032C0009C7563681922C0F6FF75B1F5004FA0FB2D
:1032D00002011FD15A00DB0FFCF7E6FF48F21F5135
:1032E000C5F2EB11A0FB01235A0905F1805302FB43
:1032F0000300322303EBC000A0FB01014FF4F87080
:1033000000EA111000EB0210C1F3421108442168D9
:103310008860B0BD9A009B0FFCF7C6FF48F21F51B2
:10332000C5F2EB11A0FB01235A0902FB0500322371
:1033300003EB0010A0FB0101F02000EA511000EBAC
:103340000210C1F34311084421688860B0BD000039
:10335000FEE7000086B0FDF78DFAFFF7ABFEFEF743
:10336000A9F9FEF7FBF9FEF739FAFEF71DFAFEF7A9
:103370003DFD48F6D80AC2F2000A5046FEF724F88E
:1033800040F2080843F24E4548F620194FF0000B72
:10339000C2F20008C0F6000503AFC2F20009ADF8A2
:1033A00014B0CDE903BB00BFDAF800000021C0F87B
:1033B00024B0466A00202A461F23CDE9008BFEF781
:1033C00069FC002010212A461F230124CDE9008436
:1033D000FEF760FC002020212A461F230224CDE9AD
:1033E0000084FEF757FC002030212A461F230324C7
:1033F000CDE90084FEF74EFCFEF742FBDAF8000050
:10340000446A4FF4FA70FDF737F9384607A132469F
:103410002346FCF7C1FF484639460A226423FEF7DB
:103420007DF84FF4FA70FDF727F9BDE725642D3ECE
:1034300025642C00F1EE100A4FF6FF71C0F2C03186
:1034400020EA010040F04070E1EE100A704741426E
:1034500043444561626364650000000000000000B1
:103460000000010203040607080900000000010231
:103470000304000000000000000000000000000045
:103480000000000000181818181818180018180064
:1034900000000000006C2424240000000000000054
:1034A0000000000000006C6CFE2424FFFF262600B4
:1034B0000000000000107C7E161E7C68C86E3E086E
:1034C0000C00000000864B6B2F1018EC94967300D4
:1034D0000000000000183E26361CDEDB7367FE008D
:1034E000000000000018181818000000000000007C
:1034F0000000000000203018080C0C0C0C0C1818F0
:1035000030200000000C1C183030302030303018D3
:103510000C0400000018587E3876180000000000E7
:103520000000000000000000181818FE181818000D
:10353000000000000000000000000000001838102B
:103540001C000000000000000000003C0000000023
:10355000000000000000000000000000001818003B
:103560000000000000406020301018180C0C060607
:103570000000000000003C66C6F3DBCFC2663C00E2
:10358000000000000000181E1210101010107E0025
:103590000000000000003C76606030380C7E7E0049
:1035A0000000000000003E6260703C6040603E0031
:1035B00000000000000030382C2C2623FF202000C3
:1035C0000000000000007E7E061E7E6060603E00FF
:1035D000000000000000781C06167EC6C6663C008F
:1035E0000000000000007E7E60303018180C0C00D7
:1035F0000000000000007C66466E3C6646667C006B
:103600000000000000003C6662467E5C60701E00A8
:10361000000000000000000018180000001818004A
:10362000000000000000000018180000001838100A
:103630001C0000000000000070180C061C30200068
:103640000000000000000000007E7E007E00000000
:1036500000000000000000040E187060381C040018
:1036600000000000000C3C606060380800181C007E
:103670000000000000386CC6C2BBAFBFBFFF6B03C9
:10368000263C00000000383C3C2C66667EC2C3002D
:103690000000000000003E6666667EE6C6663E00EC
:1036A000000000000000784C06060606064E7C006E
:1036B0000000000000003E72C2C2C2C2E2723E00C0
:1036C0000000000000007E0606067E0606067E005C
:1036D0000000000000007E0606067E0606060600C4
:1036E000000000000000FCCE0603F3C3C6CEFC00C1
:1036F000000000000000C6C6C6C6FEC6C6C6C6009C
:103700000000000000007E181818181818187E0015
:103710000000000000007E606060606060323E007B
:103720000000000000006666361E1E1E3666E600BB
:1037300000000000000006060606060606067E00DB
:1037400000000000000066E6EEFADADAC3C3C30048
:10375000000000000000C6CECEDADAF2F2E2E200AB
:103760000000000000003C6EC2C3C3C3C3663C003F
:103770000000000000003E76C6C6663E0606060053
:103780000000000000003C6EC6C3C3C3C3663C1803
:10379000F060000000003E7666663E366666C60053
:1037A0000000000000007C46060E7C7060623E0057
:1037B000000000000000FE1818181818181818004B
:1037C000000000000000C2C2C2C2C2C2C2663C0009
:1037D000000000000000C3C34666662C3C3C180095
:1037E000000000000000C3C3C3DBDAFAFEE6660097
:1037F000000000000000C7663C3C183C7C66C70027
:10380000000000000000C366663C3C181818180051
:103810000000000000007E7E7030180C0C7E7E00E0
:1038200000000000003C0C0C0C0C0C0C0C0C0C0CE4
:103830003C3C00000006060C0C18181030206040BC
:1038400000000000003C303030303030303030305C
:103850003C3C00000000183C246600000000000012
:103860000000000000000000000000000000000058
:10387000FFFF000000060C00000000000000000038
:1038800000000000000000003E62607C66665E0092
:1038900000000000000606067E6EC6C6C6663E0034
:1038A0000000000000000000784C0606064E7C0078
:1038B00000000000006060607C66666266765C0006
:1038C00000000000000000003C66467E06067C000A
:1038D0000000000000F0F818187E181818181800DA
:1038E0000000000000000000FC66667E1E067CC230
:1038F000663C0000000606067E6E6666666666002A
:1039000000000000001818001E18181818187E0073
:1039100000000000002070003E20202020202020F9
:103920003E1E00000006060666361E1E3676E600BF
:1039300000000000001E1E181818181818187E0025
:1039400000000000000000006FDFDBDBDBDBDB00E2
:1039500000000000000000007E6E6666666666007D
:1039600000000000000000003C66C6C2C6663C00C5
:1039700000000000000000007E6EC6C6C6663E065F
:1039800006060000000000007C66666266765C60E9
:103990006060000000000000766EC60606060600A5
:1039A00000000000000000007C060E3C60603E004D
:1039B0000000000000000C0C7F0C0C0C0C187800B0
:1039C00000000000000000006666666666765C0027
:1039D0000000000000000000C346666C3C3C18007C
:1039E000000000000000000083C3DBDAFA6E66000E
:1039F0000000000000000000C66C3C183C66E600B9
:103A00000000000000000000C346666C3C3C181833
:103A10000F070000000000007E6030180C0E7E00D2
:103A2000000000000070181818180E0E181818184A
:103A3000786000001818181818181818181818188E
:103A400018180000000C18101010707010101010D2
:103A50001C0C0000000000000000CEFB6000000015
:103A600000000000003F33333333333333333F0040
:103A70000000000000000000000000000000000046
:103A8000000000000018181818181810001018006E
:103A900000000000002C242424000000000000008E
:103AA0000000000000006824FE2424247E2424005A
:103AB0000000000000107C161216386848483E08C6
:103AC0000800000000864B692E100868949263007D
:103AD0000000000000003C26261C4E527362FE00CF
:103AE0000000000000181818180000000000000076
:103AF0000000000000201018080C0C0C0C0808181E
:103B00003020000000040810103020202030101851
:103B1000080400000010502C38561000000000006F
:103B20000000000000000000181818FE1818180007
:103B30000000000000000000000000000018181045
:103B40000C000000000000000000003C000000002D
:103B50000000000000000000000000000018180035
:103B6000000000000040602030101008080404022B
:103B70000000000000003C6642E2DACE42663C00F3
:103B8000000000000000181E1210101010107E001F
:103B90000000000000003C626060201008047E000D
:103BA0000000000000003E6060203C4040603E009D
:103BB000000000000000303828242622FF202000CA
:103BC0000000000000007E0606067E4040603E00C9
:103BD000000000000000780C06126E4242463C00D5
:103BE0000000000000007E406020301018080C002B
:103BF0000000000000003C46426C386642423C0037
:103C00000000000000003C664242665840201E0052
:103C10000000000000000000181800000018180044
:103C20000000000000000000181800000018181024
:103C30000C0000000000000020180C060830600096
:103C4000000000000000000000007E007E00000078
:103C500000000000000000000C1820603008040084
:103C600000000000000C38606060180800080800C0
:103C7000000000000038448282BBADA5A5F52903F1
:103C8000023C0000000018382C2464467EC28300E9
:103C90000000000000003E6242623E4242423E009E
:103CA00000000000000078040202020202067C000C
:103CB0000000000000003E6242C2C2C242621E001A
:103CC0000000000000007E0606067E0606067E0056
:103CD0000000000000007E0606067E0606060600BE
:103CE00000000000000078060202734242467C0099
:103CF000000000000000424242427E424242420036
:103D00000000000000007E181818181818187E000F
:103D10000000000000003E202020202020221E0065
:103D20000000000000004222120A0E1A3222420055
:103D300000000000000004040404040404047C00E7
:103D40000000000000004666E6FADADA83838300AA
:103D500000000000000046464E4A5A52726262005D
:103D60000000000000003C46C2C3C3C3C2463C0082
:103D70000000000000003E624242621E0202020099
:103D80000000000000003C46C2C3C3C3C2463C184A
:103D9000F000000000003E6646663E36266646009D
:103DA0000000000000007C060206386040403E0033
:103DB000000000000000FE18181818181818180045
:103DC00000000000000042424242424242463C00A3
:103DD00000000000000083C2424664242C38180012
:103DE00000000000000083838292DADA6E666600CB
:103DF000000000000000C2662C1818382466C300BA
:103E00000000000000008342662C381818181800C3
:103E10000000000000007E402030180804067E00EC
:103E2000000000000038080808080808080808080A
:103E30000838000000020404080810103020604018
:103E400000000000003C3030303030303030303056
:103E5000303C00000000183824460000000000003C
:103E60000000000000000000000000000000000052
:103E700000FF000000040800000000000000000037
:103E800000000000000000003C60407C42625E00D8
:103E900000000000000202023A46424242423E0056
:103EA00000000000000000007804060206047C0008
:103EB00000000000004040407C46424242665C00F8
:103EC00000000000000000003C46427E02067C002C
:103ED0000000000000F01808087E08080808080024
:103EE0000000000000000000FC6642661A027CC26E
:103EF000423C0000000202023A4642424242420074
:103F000000000000001818001E10101010107E0095
:103F100000000000002030003E2020202020202033
:103F2000301E00000006060646361E0E1626460007
:103F300000000000001E10101010101010107E0065
:103F400000000000000000006ED2D2D2D2D2D20017
:103F500000000000000000003A4642424242420097
:103F600000000000000000003C4642C242463C0007
:103F700000000000000000003A46424242423E0279
:103F800002020000000000007C46424242665C40A3
:103F90004040000000000000764EC60606060600FF
:103FA00000000000000000007C04043C60403E0073
:103FB00000000000000008087F08080808087800D2
:103FC00000000000000000004242424242665C00E5
:103FD0000000000000000000C24266242C181800F7
:103FE00000000000000000008383DA5A7A66660051
:103FF00000000000000000004664381838644600E5
:104000000000000000000000C24266242C3818188E
:104010000C070000000000007E60301808047E00DD
:10402000000000000070180808080C0E08080808B6
:104030001870000010101010101010101010101038
:1040400010100000000C181010103070101010101C
:10405000180C00000000000000008ED2600000007C
:1040600000000000001F11111111111111111F008A
:104070000000000000000000000000000000000040
:104080000000000000203030101010100008080060
:104090000000000000D85848480000000000000060
:1040A0000000000000009048FE4824247E12120008
:1040B000000000000060F824341C386848683F04A1
:1040C00004000000000C96526E30186894D2710003
:1040D0000000000000007844643CDC5271235E0064
:1040E0000000000000203030100000000000000040
:1040F0000000000000C0603018080C0404040C0824
:104100001810000000181030202020203010180C4B
:10411000060200000010147838D4100000000000DF
:104120000000000000000000101010FE1808080039
:104130000000000000000000000000000018180847
:1041400006000000000000000000003C000000002D
:10415000000000000000000000000000001C1C0027
:10416000000000000080C040203010080C04020352
:1041700000000000000078CC84E29ACE42623C004D
:10418000000000000000302C3030101010187E00AD
:104190000000000000007844C04020100C067F00A2
:1041A0000000000000007C404060384040601E007D
:1041B0000000000000006070586C2422FF303000C6
:1041C000000000000000F80C04047C4040201E00A9
:1041D000000000000000F01804166E4242623C002D
:1041E000000000000000FC8040603010080C060059
:1041F0000000000000007884C46C386642623E0013
:1042000000000000000078C4C6C6E65860300E000A
:10421000000000000000000030300000001818000E
:1042200000000000000000003030000000181808F6
:10423000060000000000000060300C060C18200092
:10424000000000000000000000007E007E00000072
:10425000000000000000000008102060300C060084
:10426000000000000018604040603808000C0C009E
:10427000000000000070888402FAA9A59555290164
:10428000011E000000003030686C64467E4341002F
:104290000000000000007CC4C4443E4242623E0074
:1042A000000000000000F00C0406020202067C0080
:1042B0000000000000007CC4868682C242331F00DA
:1042C000000000000000F80C04047C0606023E001A
:1042D000000000000000F80C04047C040602020048
:1042E000000000000000F00C0602F24242467C0092
:1042F00000000000000084848686FE424243610084
:10430000000000000000FC301010101818083E00DB
:1043100000000000000078404040602020301E0077
:104320000000000000008C44241C0E1A12326300AE
:1043300000000000000008080C04040406067E00CB
:104340000000000000008CCCEAAA9ADAC1414100CA
:104350000000000000008C8C8C9ED25252636100E1
:1043600000000000000078CC868282C343623E00D9
:104370000000000000007CC484C4661E020202002B
:1043800000000000000078CC868282C343623E08B1
:104390007800000000007CC4C4443E362222620043
:1043A000000000000000F804040C386040603F008A
:1043B000000000000000FC30101010181808080061
:1043C00000000000000084848686C24242623E00F3
:1043D000000000000000068684446424341C1C0095
:1043E000000000000000060282929ADA76676300FD
:1043F00000000000000084CC6838183824624100B6
:1044000000000000000006844C68381818080800F6
:10441000000000000000FCC06030100804027F00B3
:104420000000000000701018080808080C040404BC
:10443000061E000000080808081810101030202080
:104440000000000000784060202020301010101084
:10445000180E00000000303048440000000000004A
:10446000000000000000000000000000000000004C
:10447000007F0000000810000000000000000000A5
:104480000000000000000000F844424262527E003A
:1044900000000000000C0C04744C464642621E00F2
:1044A0000000000000000000F80C060202063C00BC
:1044B0000000000000808080F844424262527E008A
:1044C000000000000000000078C4463E02023C00EC
:1044D0000000000000C0301010FE080808080C049E
:1044E0000603000000000000F844424262723E20D1
:1044F000301E0000000C0C04744C46464262220040
:1045000000000000003030001E101018180878005D
:1045100000000000004060003C20202020301010EF
:10452000190F000000080C04744C443E1232620063
:10453000000000000018080808080C0404047C00AF
:104540000000000000000000DAB692D24B4949009A
:104550000000000000000000744E46464262220047
:1045600000000000000000007844C2C242623E0029
:104570000000000000000000744CC64642623E038A
:104580000101000000000000F844424262723E2037
:10459000203000000000000074CCC40606020200B7
:1045A00000000000000000007804043860603E0055
:1045B0000000000000001018FE0808080C0C38006D
:1045C0000000000000000000C4C4464262727E0089
:1045D0000000000000000000C6C64464241C0C005B
:1045E00000000000000000008282929A5E762200A5
:1045F0000000000000000000C44C28181C266300C6
:104600000000000000000000C6464464241C180C92
:104610000601000000000000FC6030180C063E009F
:104620000000000000E030101010080E0808080C10
:104630000C18000020202030101010101808080856
:104640000C040000001820203010307010180808EA
:104650000C0700000000000000008ED26000000087
:104660000000000000E090904848442422121F00FF
:10467000000000000000000000000000000000003A
:1046800000FF000000181818181818100010180063
:1046900000FF0000002C2424240000000000000083
:1046A00000FF000000006824FE2424247E2424004F
:1046B00000FF000000107C161216386848483E08BB
:1046C00008FF000000864B692E1008689492630072
:1046D00000FF000000003C26261C4E527362FE00C4
:1046E00000FF00000018181818000000000000006B
:1046F00000FF000000201018080C0C0C0C08081813
:1047000030FF000000040810103020202030101866
:1047100008FF00000010502C385610000000000068
:1047200000FF000000000000181818FE18181800FC
:1047300000FF00000000000000000000001818103A
:104740000CFF0000000000000000003C0000000022
:1047500000FF00000000000000000000001818002A
:1047600000FF000000406020301010080804040220
:1047700000FF000000003C6642E2DACE42663C00E8
:1047800000FF00000000181E1210101010107E0014
:1047900000FF000000003C626060201008047E0002
:1047A00000FF000000003E6060203C4040603E0092
:1047B00000FF00000000303828242622FF202000BF
:1047C00000FF000000007E0606067E4040603E00BE
:1047D00000FF00000000780C06126E4242463C00CA
:1047E00000FF000000007E406020301018080C0020
:1047F00000FF000000003C46426C386642423C002C
:1048000000FF000000003C664242665840201E0047
:1048100000FF000000000000181800000018180039
:1048200000FF000000000000181800000018181019
:104830000CFF00000000000020180C06083060008B
:1048400000FF00000000000000007E007E0000006D
:1048500000FF0000000000000C1820603008040079
:1048600000FF0000000C38606060180800080800B5
:1048700000FF00000038448282BBADA5A5F52903E6
:1048800002FF0000000018382C2464467EC283001A
:1048900000FF000000003E6242623E4242423E0093
:1048A00000FF0000000078040202020202067C0001
:1048B00000FF000000003E6242C2C2C242621E000F
:1048C00000FF000000007E0606067E0606067E004B
:1048D00000FF000000007E0606067E0606060600B3
:1048E00000FF0000000078060202734242467C008E
:1048F00000FF00000000424242427E42424242002B
:1049000000FF000000007E181818181818187E0004
:1049100000FF000000003E202020202020221E005A
:1049200000FF000000004222120A0E1A322242004A
:1049300000FF0000000004040404040404047C00DC
:1049400000FF000000004666E6FADADA838383009F
:1049500000FF0000000046464E4A5A527262620052
:1049600000FF000000003C46C2C3C3C3C2463C0077
:1049700000FF000000003E624242621E020202008E
:1049800000FF000000003C46C2C3C3C3C2463C183F
:10499000F0FF000000003E6646663E362666460092
:1049A00000FF000000007C060206386040403E0028
:1049B00000FF00000000FE1818181818181818003A
:1049C00000FF0000000042424242424242463C0098
:1049D00000FF0000000083C2424664242C38180007
:1049E00000FF0000000083838292DADA6E666600C0
:1049F00000FF00000000C2662C1818382466C300AF
:104A000000FF000000008342662C381818181800B8
:104A100000FF000000007E402030180804067E00E1
:104A200000FF0000003808080808080808080808FF
:104A300008FF000000020404080810103020604045
:104A400000FF0000003C303030303030303030304B
:104A500030FF00000000183824460000000000006D
:104A600000FF000000000000000000000000000047
:104A700000FF00000004080000000000000000002B
:104A800000FF0000000000003C60407C42625E00CD
:104A900000FF0000000202023A46424242423E004B
:104AA00000FF0000000000007804060206047C00FD
:104AB00000FF0000004040407C46424242665C00ED
:104AC00000FF0000000000003C46427E02067C0021
:104AD00000FF000000F01808087E08080808080019
:104AE00000FF000000000000FC6642661A027CC263
:104AF00042FF0000000202023A46424242424200A5
:104B000000FF0000001818001E10101010107E008A
:104B100000FF0000002030003E2020202020202028
:104B200030FF00000006060646361E0E162646001A
:104B300000FF0000001E10101010101010107E005A
:104B400000FF0000000000006ED2D2D2D2D2D2000C
:104B500000FF0000000000003A464242424242008C
:104B600000FF0000000000003C4642C242463C00FC
:104B700000FF0000000000003A46424242423E026E
:104B800002FF0000000000007C46424242665C409A
:104B900040FF000000000000764EC6060606060034
:104BA00000FF0000000000007C04043C60403E0068
:104BB00000FF0000000008087F08080808087800C7
:104BC00000FF0000000000004242424242665C00DA
:104BD00000FF000000000000C24266242C181800EC
:104BE00000FF0000000000008383DA5A7A66660046
:104BF00000FF0000000000004664381838644600DA
:104C000000FF000000000000C24266242C38181883
:104C10000CFF0000000000007E60301808047E00D9
:104C200000FF00000070180808080C0E08080808AB
:104C300018FF00001010101010101010101010109D
:104C400010FF0000000C1810101030701010101021
:104C500018FF00000000000000008ED2600000007D
:104C600000FF0000001F11111111111111111F007F
:104C7000001F0000984C00080000002020000000E9
:104C8000F8010008B84C000820000020508F0000F8
:104C900018020008000000000100000010000000E1
:104CA00008100101723A00087240000872340008CE
:084CB000724600080024F40024
:040000050800019559
:00000001FF
