:020000040800F2
:10000000D00A002071020008951800081913000892
:1000100091180008E1060008E52000080000000033
:100020000000000000000000000000002120000887
:10003000E5060008000000001D200008252000083B
:100040008B0200088B0200088B0200088B0200085C
:100050008B0200088B0200088B0200088B0200084C
:100060008B0200088B0200088B0200088B0200083C
:100070008B0200088B0200088B0200088B0200082C
:100080008B0200088B0200088B02000800000000B1
:100090000000000000000000000000008B020008CB
:1000A0008B0200088B0200088B0200088B020008FC
:1000B0008B0200088B0200088B0200088B020008EC
:1000C0008B0200088B0200088B0200088B020008DC
:1000D0008B0200088B0200088B0200080000000061
:1000E0008B0200088B0200088B0200080000000051
:1000F0000000000000000000000000008B0200086B
:10010000000000008B0200088B0200088B02000830
:1001100000000000000000000000000000000000DF
:100120008B0200088B0200088B0200088B0200087B
:100130008B0200080000000000000000000000002A
:100140000000000000000000000000008B0200081A
:100150008B0200088B0200088B0200088B0200084B
:100160008B0200088B020008000000000000000065
:10017000000000000000000000000000000000007F
:10018000000000008B0200080000000000000000DA
:100190008B02000800F002F800F05AF814A696E866
:1001A000000CB244B344DA4501D100F051F8BAE88A
:1001B0000F000FA696E83000A5EB040504EB060738
:1001C000AAEB0704A7F101074FEA15154FEA34140B
:1001D000A4F10104AC4201D300F03AF813F0010F8E
:1001E00018BFFB1A43F0010300F001F8DBE71847E2
:1001F00094250000B4250000103A24BF78C878C1C7
:10020000FAD8520724BF30C830C144BF04680C601C
:1002100070470000704700000023002400250026DE
:10022000103A28BF78C1FBD8520728BF30C148BF59
:100230000B607047642900F02581732900F011825A
:10024000002070471FB501F08BFF1FBD10B510BD1A
:1002500000F00BFA1146FFF7F5FF01F045FF00F043
:1002600029FA03B4FFF7F2FF03BC00F031FA0000F3
:100270000948804709480047FEE7FEE7FEE7FEE73A
:10028000FEE7FEE7FEE7FEE7FEE7FEE70448054976
:10029000054A064B70470000D12000089501000870
:1002A000D0040020D00A0020D0060020D006002074
:1002B00053EA020C00F069802DE9F04B4FF0000684
:1002C000002B1FBFB3FA83F503FA05F424FA05F6F1
:1002D0005E4012BF1643B2FA82F502FA05F4C5F188
:1002E00020051EBF22FA05FC44EA0C04203556EA1C
:1002F000044C4FEA144418BF641C4FF000084FF040
:100300000009904271EB030C39D3002919BFB1FAEF
:1003100081F701FA07F6B0FA80F700FA07F6C7F19D
:1003200020071EBF20FA07FC46EA0C062037B6FB62
:10033000F4FCA7EB0507103F07F01F0BCBF12006DD
:100340002CFA06F60CFA0BFB44BFB3460026202F0E
:10035000A4BF5E464FF0000B5BEA060C08BF4FF0EF
:10036000010B19EB0B0948EB0608ABFB027C06FB03
:1003700002CC0BFB03CCC01B71EB0C01C1E70B469D
:10038000024641464846BDE8F08B13B5084318BF06
:100390004FF0FF300146AFF30080BDE81C407047CE
:1003A0000FB41CB5074B06AA7B446946009005981C
:1003B00000F02DF90020694600F03CF91CBC5DF806
:1003C00014FB0000890200002DE9F0410E460446AE
:1003D000002020622046E168884730B3252805D0F8
:1003E000D4E901219047206A401CF2E7E1682046E9
:1003F00000278847050018D0A5F14100192802D828
:1004000020354FF400673246294620462760FFF723
:1004100011FF40B1012804D0F61D26F0070608366A
:10042000D8E7361DD6E72846DAE7206ABDE8F0812E
:1004300070B50C460546012A05D02878800600D5FF
:10044000EA69002302E0012305E05B1C934202D22B
:10045000E05C0028F9D1A869E618C01AA861286AEA
:10046000184428622846AFF3008004E0D5E9012152
:1004700014F8010B9047B442F8D32846AFF300803C
:1004800070BD00002DE9F041064600241068752972
:10049000314616A510D0AFF30080002802DA4042A2
:1004A00013A507E031688A0701D512A502E04907C4
:1004B00004D511A5012401E0AFF3008000210A2238
:1004C00006F1240709E0B0FBF2FCB0FBF2F302FBFB
:1004D0001C00303078541846491C0028F3D12346BC
:1004E0002A463046BDE8F04100F032B80000000076
:1004F0002D0000002B000000200000004FF0000243
:1005000000B5134694469646203922BFA0E80C5009
:10051000A0E80C50B1F12001BFF4F7AF090728BFE4
:10052000A0E80C5048BF0CC05DF804EB890028BF60
:1005300040F8042B08BF704748BF20F8022B11F089
:10054000804F18BF00F8012B704770477047704705
:100550002DE9F0470D4699469246044600F12408DD
:100560000168880604D5E06921F01001216000E0EF
:100570000120A84201DD471B00E00027A1697A198C
:1005800002EB0900081AA0612078C00602D42046B8
:10059000AFF30080002608E0D4E901211AF8060034
:1005A0009047206A401C761C20624E45F4DB207880
:1005B000C0060AD52046AFF3008006E0D4E9012149
:1005C00030209047206A401C2062381EA7F10107A6
:1005D000F4DC07E0D4E9012118F805009047206A0F
:1005E000401C2062281EA5F10105F3DC2046AFF374
:1005F00000802078000602D50220BDE8F0870120A7
:10060000FBE7000001694A1C02610878704700B5E9
:100610008FB0CDE901310021059105497944CDE93B
:10062000031011466846FFF7CFFE0FB000BD000073
:10063000E5FFFFFF0A6802F8010B0A60704710B57A
:10064000436913B1AFF3008001E0FFF7F1FE012031
:1006500010BD127800F124010A7000224A700122B4
:10066000EDE711684FF0FF32E9E7754600F02CF82E
:10067000AE4605006946534620F00700854618B08F
:1006800020B5FFF703FEBDE820404FF000064FF015
:1006900000074FF000084FF0000BAC46ACE8C00973
:1006A000ACE8C009ACE8C009ACE8C00921F007011A
:1006B0008D46704710B50446AFF300802046BDE874
:1006C0001040FFF7CEBD000000487047100000202A
:1006D00001491820ABBEFEE726000200704700006B
:1006E000FEE700007047000072B600BFFEE70000A2
:1006F000B0B5044600F0E0F8054640F20000C2F252
:1007000000000078611C18BF044400BF00F0D4F85A
:10071000401BA042FAD3B0BD2DE9F04F83B000F1E9
:10072000200200F13E4741F20005009207F1FF77F9
:10073000C4F2020507224FEAB726A84208BF0422E6
:1007400000254FF000084FF00009042E38BF4FEA93
:10075000B72201920AE000BF09F1010908F102087D
:10076000B9F1100F05F1040500F0A2800F68012215
:1007700002FA09FE17EA0E0AEED0D1F804C00322ED
:100780000CF003077E1E02FA08F4012E6FEA040B38
:1007900012D88468CE6804EA0B0406FA08F63443DB
:1007A0008460446824EA0E06CCF3001404FA09F4C9
:1007B0002643466004E000BF032F01D103271EE05B
:1007C000C6688C6806EA0B0604FA08F42643022F72
:1007D000C66014D16FF00302009E02EA590756F872
:1007E00007C005F01C040F220B69A2402CEA02028C
:1007F000A3401A43F251D1F804C00CF00307026879
:1008000007FA08F302EA0B021A431CF4403F0260A5
:10081000A2D0002243F644030292C4F202031A68F3
:1008200043F6004442F480421A601A68C4F201049C
:1008300002F480420292029A29F003024FF6084C19
:100840002244CFF6FF7C52F80C3005F00C070F263F
:10085000BE40B343019E06FA07F73B4342F80C3013
:10086000A2684B6842EA0A0743F60C4CDE0258BF06
:1008700022EA0A07A760C4F2010CDCF800209E02FD
:1008800042EA0A0758BF22EA0A07CCF800706268F9
:100890009E0342EA0A0758BF22EA0A0767602268F5
:1008A000DB0342EA0A0758BF22EA0A07276053E738
:1008B00003B0BDE8F08F000040F2C440C2F2000077
:1008C00000687047002804BF01207047F0B581B070
:1008D000044690F83D0028B9002084F83C002046EA
:1008E00000F050F9242084F83D002068016821F0D0
:1008F00001010160016841F400410160016821F4D7
:100900000041016000F0D0FA636848F2A16CC0F2C7
:10091000010C40F60011C0F23D0163453CBF48F2B6
:100920008041C0F21E01884202D2012001B0F0BD18
:100930004DF68361C4F21B31A0FB01122168970CB4
:10094000D1F804E04FF496762EF03F0545EA924543
:100950004D60774348F638160D6AC0F24106A7FB92
:10096000067625F03F07634538BF960C721C3A4364
:100970000A62CA6948F2A0664CF6FF77C0F2010627
:10098000B34222EA07020BD801385B00B0FBF3F058
:1009900001306FF31F30042898BF04201BE000BF14
:1009A000A768013857B119277B43B0FBF3F001303A
:1009B0006FF31F3070B100F5804007E003EB430395
:1009C000B0FBF3F001306FF31F3018B100F50040B9
:1009D00001E000BF01201043C8610868D4E9072383
:1009E00020F0C000104318430860886848F2FF32C6
:1009F00004F10C0790438CCF18431043A66988601C
:100A0000C86820F0FF0038433043C860086840F0F1
:100A10000100086000202021206484F83D1020633C
:100A200084F83E0001B0F0BD2DE9F04383B0994653
:100A300016460F460446FFF73FFF94F83D10202965
:100A400024D10546206800BF816989071AD5FFF7C0
:100A500033FF411B20681A29F6D381698907F3D532
:100A600000202021206384F83D1084F83E00216C92
:100A700041F02001216484F83C00022003B0BDE86D
:100A8000F08300BF94F83C10012903D1022003B089
:100A9000BDE8F083012284F83C200368DDE90B18EF
:100AA0000A9ADB0703D1036843F00103036003687C
:100AB00023F400630360212084F83D00402084F883
:100AC0003E000020206462626185608D3946208589
:100AD0000020CFF6FF70E062204632464B46CDE95B
:100AE000008500F01BFC18B1012003B0BDE8F083C5
:100AF000208D98B9204641462A4600F073FC88B301
:100B0000206C0428F0D12068016841F40071016074
:100B1000012003B0BDE8F0830004EBD0204641463D
:100B20002A4600F00FFE0028EAD1616A22680846D2
:100B300010F8013B1361238D6062581E2085678D7C
:100B4000013F678557697F07E6D50704E4D04878F9
:100B50001061881C6062981E2085618D0139618555
:100B6000DAE700BF2068016841F4007101602020CD
:100B700084F83D00002084F83E0084F83C0003B077
:100B8000BDE8F083B0B586B045F200410068C4F21C
:100B90000001002488420594CDE9034402940194A5
:100BA00002D006B0B0BD00BF43F630050094C4F2D9
:100BB0000205286840F002002860286800F0020062
:100BC00000900098C02001901220CDE9020403207B
:100BD00004900420059001F5D83001A9FFF79CFD91
:100BE0000094286940F400102861286900F400107E
:100BF0000090009806B0B0BD40F2000040F2C44141
:100C0000C2F20000C2F2000100780A6810440860D5
:100C10007047000080B543F60040C4F2020001684E
:100C200041F400710160016841F480610160016874
:100C300041F480710160032000F074F80F2000F08F
:100C400005F800F027F8002080BD000070B540F2E4
:100C50000006C2F2000640F208013278C2F200013A
:100C60004FF47A730968B3FBF2F20446B1FBF2F178
:100C7000084600F03BFB0F2C4FF0010508D838B9AF
:100C80004FF0FF3021460022002500F01FF874606D
:100C9000284670BD82B0002043F640010190C4F2A6
:100CA00002014A6842F480424A604A6802F4804283
:100CB0000192019A0090086840F08050086008682E
:100CC00000F080500090009802B0704710B54EF6CA
:100CD0000C5CCEF2000CDCF80030C3F3022E8EF078
:100CE0000704042C28BF0424BEF103034FF0FF3E89
:100CF0000EFA04F438BF0023A14399400EFA03F31F
:100D00009A43114300F00F0200F160430901043AD5
:100D100003F564436244002848BF02F10C031970D4
:100D200010BD00004EF60C51CEF200010A684FF6DD
:100D3000FF031A4060F30A2242F0806040F0FD7029
:100D400008607047002804BF012070472DE9F0417A
:100D500043F60808C4F202080446D8F8F8030D4622
:100D600000F00700814207D988F8F853D8F8F80353
:100D700000F00700A84277D12068810717D5410706
:100D800005D5D8F8001041F4E051C8F8001001076B
:100D900005D5D8F8001041F46041C8F80010D8F823
:100DA0000010A26821F0F0011143C8F80010C0073C
:100DB00040D1D8F8F80300F00700854207D288F840
:100DC000F853D8F8F80300F00700A8424CD1206887
:100DD000410707D5D8F80010E26821F4E05111432B
:100DE000C8F80010000708D5D8F80000216920F4E1
:100DF000604040EAC100C8F8000000F069F8D8F887
:100E0000001042F27A12C1F30311C0F60002515CE5
:100E100040F2080220FA01F140F20400C2F20000A0
:100E20000068C2F200021160FFF710FF0020BDE869
:100E3000F08100BF6068811E022907D258F8081CA3
:100E400089015CBF0120BDE8F08111E0012807D1D4
:100E500058F8081C89035CBF0120BDE8F08107E059
:100E600058F8081C890703D40120BDE8F08100BFB1
:100E7000D8F8001021F003010843C8F80000FFF77C
:100E80001BFD064641F28837D8F80000616800F083
:100E90000C00B0EB810F8CD0FFF70EFD801BB84229
:100EA000F2D90320BDE8F08140F2080043F60801C2
:100EB000C2F20000C4F202010068096842F28A121C
:100EC000C1F38221C0F60002515CC84070470000A7
:100ED00010B543F60404C4F202046168C1F3810151
:100EE00042F20040C0F2F400DFE801F002040A021E
:100EF00010BD00BF47F64000C0F27D1010BD00BF1E
:100F0000206821682368490247F64001C0F27D113C
:100F100000F03F02C3F388105CBF42F20041C0F210
:100F2000F401A1FB00010023FFF7C2F921680222AE
:100F3000C1F3014102EB4101B0FBF1F010BD000033
:100F4000002804BF012070472DE9F04182B004461B
:100F5000007843F60006C007C4F202060CD0B06861
:100F600000F00C00042840F081803068800303D535
:100F70006068002800F06881207880071BD5B06881
:100F800010F00C0F09D0B06800F00C00082840F0F9
:100F900087807068400200F183803068800703D545
:100FA000E068012840F050813068216920F0F800A5
:100FB00040EAC10030602078000713D42078400751
:100FC0002AD4A569002D00F03A81B06800F00C0029
:100FD000082840F0A580012D40F00E81012002B0CC
:100FE000BDE8F0816069002800F082800020C4F232
:100FF00047200121C0F8801EFFF75EFC054600BFB8
:10100000706F8007DAD4FFF757FC401B0228F7D92E
:10101000032002B0BDE8F081306C5FEAC0080AD45A
:1010200000200190306C40F080503064306C00F053
:1010300080500190019847F20007C4F20007386819
:10104000C00547D4386840F480703860FFF734FC3E
:10105000054600BF3868C0053CD4FFF72DFC401B97
:101060000228F7D9032002B0BDE8F081B06800F093
:101070000C00082803D1706840023FF576AF616824
:101080003068B1F5803F07D0B1F5A02F40F09A80CD
:1010900040F480203060306840F4803030609AE066
:1010A000E068002840F20000C4F247205CD0012133
:1010B0000160FFF701FC0546306880073FF574AF1B
:1010C000FFF7FAFB401B0228F6D9032002B0BDE867
:1010D000F08100BFA168306F012905D0052955D1E5
:1010E00040F004003067306F40F00100306756E098
:1010F0000020C4F247200021C0F8801EFFF7DCFB6F
:10110000054600BF706F80077FF558AFFFF7D4FB2F
:10111000401B0228F6D9032002B0BDE8F08100BFD1
:101120000027C4F2472700203866FFF7C5FB022DD1
:1011300005460DD13068800140F18A80FFF7BCFB85
:10114000401B02284FF00300F4D902B0BDE8F08143
:101150003068800173D5FFF7AFFB401B02284FF0CA
:101160000300F5D9F1E700BF00210160FFF7A4FB00
:10117000054600BF306880077FF51DAFFFF79CFB79
:10118000401B02284FF00300F4D9DEE720F00100F5
:101190003067306F002920F0040030677AD0FFF705
:1011A0008BFB054641F28837306F800700F1848061
:1011B000FFF782FB401BB842F6D9032002B0BDE81E
:1011C000F08100BF20F4803030603068002920F4C6
:1011D000802030607AD0FFF76FFB054630688003CF
:1011E0003FF5CAAEFFF768FB401B6428F6D9032021
:1011F00002B0BDE8F08100BF7068E16900F48002D0
:101200008A4221D1216A00F03F028A421CD147F66E
:10121000C071626A0140B1EB821F15D1A16A4FF61D
:10122000FF73C903994300F44032A1F580318A422B
:101230000AD1E16A00F07060B0EB016F04D10020C8
:1012400002B0BDE8F08100BF012002B0BDE8F0812E
:1012500004F11C052FCD084340EA8210D9034FF654
:10126000FF729143A1F5803140EA05600843706048
:1012700001203866FFF720FB044600BF306880017C
:10128000DDD4FFF719FB001B02284FF00300F5D94E
:101290005BE700BFFFF710FB054641F2883700BF50
:1012A000306F800708D5FFF707FB401BB8424FF0AF
:1012B0000300F5D949E700BFB8F1000F3FF581AE53
:1012C000306C20F0805030647BE600BFFFF7F4FA0A
:1012D000054600BF306880037FF54EAEFFF7ECFA9D
:1012E000401B64284FF00300F4D92EE7411E002074
:1012F000B0EB116F1CBF012070474EF21002CEF20E
:10130000000251604EF62351CEF20001F0230B7023
:101310000721906011607047FEE700002DE9F0435F
:1013200083B0044600680F4601680A9D0B9E41F495
:10133000807199469046016020464FF001110022CD
:101340002B46009600F0ACF850B120680068C0054C
:1013500044BF4FF400702064032003B0BDE8F08365
:10136000206807F0FE0101610221C0F20101204660
:101370002A46334600F07AF920B1012003B0BDE8D7
:10138000F08300BF0020029020683246416902913C
:101390008069294602900298204600F0D3F958B19E
:1013A000206C0428E9D12068016841F400710160D3
:1013B000012003B0BDE8F0832068B9F1010F0AD025
:1013C0004FEA1821016120462946324600F0BAF959
:1013D0000028E5D120685FFA88F10161002003B0A0
:1013E000BDE8F08370B50368044653F8140F400756
:1013F00011D40E46481C29D086BB00BF1868400592
:1014000027D4FFF759FA236853F8140F400737D54C
:1014100018684007F2D5002070BD00BF186840076B
:10142000F9D41868400514D418684007F3D4186834
:1014300040050ED418684007EDD41868400508D45C
:10144000186840074FF0000048BF70BD186840059D
:10145000E4D56FF480601860042012E0154603E0C4
:1014600053F8140F4007D6D418684005F1D4FFF79D
:1014700023FA401B2368B042F2D958694007EFD4E1
:10148000202000212022216384F83D2084F83E1092
:10149000226C10432064012084F83C1070BD0000D1
:1014A0002DE9F041054600681E46144601F47F020E
:1014B00001338FB242D0DDF81880B2F5803F40F0A2
:1014C000878040693840C01BB0FA80F040098442F0
:1014D00040F0C8804EB924E040693840C01BB0FAE3
:1014E00080F04009844240F0BD80FFF7E5F9A0EBB1
:1014F00008012868B142EFD941693940C91BB1FAE6
:1015000081F149098C42E7D19BE000BF4069384036
:10151000C01BB0FA80F0400984424FF0000040F058
:10152000A280FFF7C9F9286841693940C91BB1FA9F
:1015300081F149098C42E9D183E000BFB2F5803FD7
:1015400024D100BF41693940C91BB1FA81F1490971
:101550008C4240F0878041693940C91BB1FA81F162
:1015600049098C4240F07E8041693940C91BB1FA7B
:1015700081F149098C4275D141693940C91BB1FAE1
:1015800081F149098C42DDD06CE000BF81693940AE
:10159000C91BB1FA81F149098C4263D18169394093
:1015A000C91BB1FA81F149098C425BD1816939408B
:1015B000C91BB1FA81F149098C4253D18169394083
:1015C000C91BB1FA81F149098C42DFD04AE000BF62
:1015D00080693840C01BB0FA80F04009844241D194
:1015E00046B923E080693840C01BB0FA80F040095A
:1015F000844237D1FFF760F9A0EB08012868B142B7
:10160000F0D981693940C91BB1FA81F149098C428D
:10161000E8D116E080693840C01BB0FA80F040097C
:1016200084424FF0000018BFBDE8F081FFF744F995
:10163000286881693940C91BB1FA81F149098C4296
:10164000E8D100202021286385F83D1085F83E0070
:10165000296C41F02001296485F83C000120BDE897
:10166000F08100BF0020BDE8F0810000F0B581B03E
:10167000044600681D4643698FB203EA0701B94278
:1016800002D1002001B0F0BD4169164601323CD0C4
:10169000490512D47EB300BFFFF70EF9411B206845
:1016A000B14203D941693940B9422BD1416939402E
:1016B000B942E6D041694905EED5016841F40071AF
:1016C00001606FF4806141610420002120222163C8
:1016D00084F83D2084F83E10226C1043206484F886
:1016E0003C10012001B0F0BD41693940B942C8D079
:1016F00041694905E1D4FFF7DFF8206841693940C5
:10170000B942F1D02020E0E741694905D5D44169CB
:101710003940B942B5D041694905CED44169394013
:10172000B942AED041694905C7D441693940B9428F
:10173000A7D041694905C0D441693940B942E3D1D4
:101740009FE7000070B50368044653F8140F0006C5
:1017500011D40E46481C29D086BB00BF186840052E
:1017600027D4FFF7A9F8236853F8140F000637D5DC
:1017700018680006F2D5002070BD00BF186800068A
:10178000F9D41868400514D418680006F3D4186812
:1017900040050ED418680006EDD41868400508D43A
:1017A000186800064FF0000048BF70BD186840057B
:1017B000E4D56FF480601860042012E0154603E061
:1017C00053F8140F0006D6D418684005F1D4FFF77B
:1017D00073F8401B2368B042F2D958690006EFD471
:1017E000202000212022216384F83D2084F83E102F
:1017F000226C10432064012084F83C1070BD00006E
:1018000083B0002043F630010290C4F202010A685E
:1018100042F080020A600A6802F080020292029A94
:1018200001900A6842F001020A600A6802F00102AF
:101830000192019A0090086840F002000860086870
:1018400000F002000090009803B0704780B540F2AD
:10185000704045F20041C2F20000C4F2000148F2BB
:10186000A06200234FF4804CC0F2010280E80E0019
:10187000C0E9033CC0E90533C0E90733FFF722F8AC
:10188000002808BF80BDBDE88040FEF72DBF0000E6
:10189000FEE70000FEE700002DE9F04385B064207C
:1018A0006425FEF725FF40F27044AE20C2F200042A
:1018B0008DF8130001260DF1130720467821002230
:1018C0000123CDE9007602954FF00008FFF7ACF850
:1018D00020467821002201238DF81380CDE900767F
:1018E0000295FFF7A1F810208DF81300204678210B
:1018F00000220123CDE900760295FFF795F84020FC
:101900008DF813002046782100220123CDE90076CE
:101910000295FFF789F881208DF813002046782181
:1019200000220123CDE900760295FFF77DF8CF2054
:101930008DF813002046782100220123CDE900769E
:101940000295FFF771F8A1208DF813002046782149
:1019500000220123CDE900760295FFF765F8C82043
:101960008DF813002046782100220123CDE900766E
:101970000295FFF759F84FF0A6092046782100227A
:1019800001238DF81390CDE900760295FFF74CF80E
:10199000A8208DF813002046782100220123CDE9EC
:1019A00000760295FFF740F83F208DF8130020469F
:1019B000782100220123CDE900760295FFF734F863
:1019C000D3208DF813002046782100220123CDE991
:1019D00000760295FFF728F820467821002201239F
:1019E0008DF81380CDE900760295FFF71DF8D5201C
:1019F0008DF813002046782100220123CDE90076DE
:101A00000295FFF711F880208DF813002046782109
:101A100000220123CDE900760295FFF705F8D920D1
:101A20008DF813002046782100220123CDE90076AD
:101A30000295FEF7F9FFF1208DF81300204678217A
:101A400000220123CDE900760295FEF7EDFFDA20B2
:101A50008DF813002046782100220123CDE900767D
:101A60000295FEF7E1FF12208DF813002046782141
:101A700000220123CDE900760295FEF7D5FFDB2099
:101A80008DF813002046782100220123CDE900764D
:101A90000295FEF7C9FF30208DF81300204678210B
:101AA00000220123CDE900760295FEF7BDFF20203C
:101AB0008DF813002046782100220123CDE900761D
:101AC0000295FEF7B1FF20467821002201238DF810
:101AD0001380CDE900760295FEF7A6FF8D208DF8E4
:101AE00013002046782100220123CDE900760295DB
:101AF000FEF79AFF14208DF813002046782100226B
:101B00000123CDE900760295FEF78EFFA4208DF823
:101B100013002046782100220123CDE900760295AA
:101B2000FEF782FF20467821002201238DF81390D2
:101B3000CDE900760295FEF777FFAF208DF8130010
:101B40002046782100220123CDE900760295FEF798
:101B50006BFF05B0BDE8F08380B584B040F2700142
:101B60004FF48060C2F20001CDE9001040F27040F5
:101B70004FF0C80CC2F20000782140220123CDF8BA
:101B800008C0FEF751FF04B080BD0000F0B585B07D
:101B9000202040F270448DF80C00012603A8C2F208
:101BA00000046425CDE900062046782100220123A7
:101BB00002950027FEF738FF0DF10D00CDE9000674
:101BC00020467821002201238DF80D700295FEF742
:101BD0002BFF21208DF80E000DF10E00CDE900063F
:101BE00020467821002201230295FEF71DFF0DF10A
:101BF0000F00CDE9000620467821002201238DF850
:101C00000F700295FEF710FF7F208DF8100004A8DA
:101C1000CDE9000620467821002201230295FEF737
:101C200003FF22208DF811000DF11100CDE900060F
:101C300020467821002201230295FEF7F5FE0DF1E2
:101C40001200CDE9000620467821002201238DF8FC
:101C500012700295FEF7E8FE07208DF813000DF1D3
:101C60001300CDE9000620467821002201230295C9
:101C7000FEF7DAFE05B0F0BD2DE9F04FDF085E0794
:101C80004FF0010C18BF0CEBD3075E0877433E06FC
:101C900008BFBDE8F08F203AD6B2FAB242F29217EE
:101CA000C0F6000740F2700B884607EB061EC2F232
:101CB000000B00BF1EF801AB44B2002C01F101047F
:101CC00018D44FFA8AF6B6F1FF3F5FFA80F9CEB228
:101CD00042DD3F2E52D801F0F8060BEB061616F83F
:101CE000097001F007050CFA05F527EA050506F865
:101CF000095043E0E4B2A4EB08049C4200F05C818C
:101D00008C1CE4B2A4EB08049C4200F05581CC1C6E
:101D1000E4B2A4EB08049C4200F04E810C1DE4B236
:101D2000A4EB08049C4200F047814C1DE4B2A4EBF4
:101D300008049C4200F040818C1DE4B2A4EB08042E
:101D40009C4200F03981CC1DE4B2A4EB08049C4213
:101D500040F02B8130E100BF3F2E0FD801F0F80694
:101D60000BEB06165D4616F809B001F007070CFAF2
:101D700007F747EA0B07AB4606F80970E6B2A6EB91
:101D800008059D4200F018815FEA4A650ED43F2E97
:101D90001BD804F0F8050BEB051515F8096004F0E5
:101DA00007040CFA04F426EA04040CE03F2E0CD8D5
:101DB00004F0F8050BEB051515F8096004F00704AD
:101DC0000CFA04F4344305F809408C1CE6B2A6EB87
:101DD00008059D4200F0F0805FEA8A650ED43F2E30
:101DE0001BD804F0F8050BEB051515F8096004F095
:101DF00007040CFA04F426EA04040CE03F2E0CD885
:101E000004F0F8050BEB051515F8096004F007045C
:101E10000CFA04F4344305F80940CC1CE6B2A6EBF6
:101E200008059D4200F0C8805FEACA650ED43F2EC7
:101E30001BD804F0F8050BEB051515F8096004F044
:101E400007040CFA04F426EA04040CE03F2E0CD834
:101E500004F0F8050BEB051515F8096004F007040C
:101E60000CFA04F4344305F809400C1DE6B2A6EB65
:101E700008059D4200F0A0805FEA0A750ED43F2E4F
:101E80001BD804F0F8050BEB051515F8096004F0F4
:101E900007040CFA04F426EA04040CE03F2E0CD8E4
:101EA00004F0F8050BEB051515F8096004F00704BC
:101EB0000CFA04F4344305F809404C1DE6B2A6EBD5
:101EC00008059D4278D05FEA4A750FD43F2E1CD892
:101ED00004F0F8050BEB051515F8096004F007048C
:101EE0000CFA04F426EA04040DE000BF3F2E0CD8DF
:101EF00004F0F8050BEB051515F8096004F007046C
:101F00000CFA04F4344305F809408C1DE6B2A6EB44
:101F100008059D4250D05FEA8A750FD43F2E1CD829
:101F200004F0F8050BEB051515F8096004F007043B
:101F30000CFA04F426EA04040DE000BF3F2E0CD88E
:101F400004F0F8050BEB051515F8096004F007041B
:101F50000CFA04F4344305F80940CC1DE6B2A6EBB4
:101F600008059D4228D05FEACA750FD13F2E1CD8C4
:101F700004F0F8050BEB051515F8096004F00704EB
:101F80000CFA04F426EA04040DE000BF3F2E0CD83E
:101F900004F0F8050BEB051515F8096004F00704CB
:101FA0000CFA04F4344305F809400831CCB2A4EB30
:101FB00008049C4202D100BF01304146013A7FF43F
:101FC00079AEBDE8F08F00002DE9F04381B098466E
:101FD00013780D46A3F12001C9B25E291BD806462D
:101FE0004FEA5809C8F18004571E00BFF0B2E9B2A9
:101FF000DAB24346FFF740FE4E44F0B28442B8BF27
:102000000235BB78B8BF0026A3F12000C0B25F281C
:1020100007F10107EAD301B0BDE8F0837047000083
:1020200070470000FEF7E8BDF0B593B007AC20465E
:102030003021FEF763FA002543F640000695CDE90E
:102040000455CDE902550195C4F20200016802264B
:1020500041F08051016000680F2700F0805001902E
:10206000019847F200000195C4F20000016866F390
:102070008F310160006800F4404001900198012018
:1020800007904FF4803008904FF480000E9060204D
:10209000CDE910060420129020460D960F97FEF70A
:1020A0004FFF18B172B600BFFEE700BF4FF480507B
:1020B000CDE9050502A80221CDE902760495FEF7D7
:1020C00041FE18B172B600BFFEE700BF13B0F0BD0D
:1020D0004EF68850CEF20000016841F470010160B4
:1020E00070470000FEE7000088B0FEF793FDFFF7A1
:1020F0009BFFFFF785FBFFF7A9FBFFF7CDFBFFF782
:1021000045FD00200790CDE90500CDE9030046F626
:102110007240C0F26400029042F26F00C6F677701F
:10212000019040F2C840C2F20000026846F24850F6
:10213000C6F66C4003AC009007A16B462046FEF744
:102140002FF900BF0020202122461023FFF73CFF7B
:10215000FFF702FDF6E700BF25642B2573000000A2
:10216000F1EE100A4FF6FF71C0F2C03120EA010013
:1021700040F04070E1EE100A7047000000000000DF
:102180000000010203040607080900000000010224
:102190000304000000000000000000000000000038
:1021A00000000000000000001FCC000C0000000038
:1021B00000000000080030006000080030006000EF
:1021C0000000022003FC1E20022003FC1E2002202F
:1021D000000000000E1811043FFF10840C7800006E
:1021E00000000F0010840F3800C0077818840078B2
:1021F000000000780F8410C411240E9800E40084BD
:1022000000080800680070000000000000000000E6
:10221000000000000000000007E018182004400241
:102220000000000040022004181807E00000000031
:1022300000000240024001800FF001800240024095
:1022400000000080008000800FF800800080008087
:1022500000000001000D000E000000000000000062
:10226000000000000080008000800080008000806E
:1022700000800000000C000C0000000000000000C6
:102280000000000000060018006001800600180031
:102290002000000007F0080810041004080807F0E8
:1022A00000000000080408041FFC000400040000F3
:1022B000000000000E0C10141024104411840E0CA9
:1022C000000000000C1810041104110412880C7096
:1022D0000000000000E00320042408241FFC002468
:1022E000000000001F981084110411041088107061
:1022F0000000000007F0088811041104188800701D
:10230000000000001C00100010FC13001C00100056
:10231000000000000E3811441084108411440E385F
:10232000000000000700088C10441044088807F0E3
:102330000000000000000000030C030C000000007F
:102340000000000000000001010600000000000085
:102350000000000000800140022004100808100462
:10236000000002200220022002200220022002207F
:102370000000000010040808041002200140008042
:10238000000000000E001200100C106C10800F00F6
:10239000000003E00C1813E4142417C4082807D025
:1023A00000000004003C03C41C40074000E4001C83
:1023B000000410041FFC1104110411040E880070A5
:1023C000000003E00C1810041004100410081C1086
:1023D000000010041FFC100410041004080807F08B
:1023E000000010041FFC1104110417C41004081885
:1023F000000010041FFC1104110017C01000080099
:10240000000003E00C181004100410441C78004075
:10241000000010041FFC10840080008010841FFC4A
:1024200010040000100410041FFC1004100400002D
:10243000000000030001100110011FFE1000100039
:10244000000010041FFC110403801464181C100405
:10245000000010041FFC1004000400040004000C21
:10246000000010041FFC1F0000FC1F001FFC1004D4
:10247000000010041FFC0C04030000E010181FFCF7
:10248000100007F00808100410041004080807F0F2
:10249000000010041FFC10841080108010800F00BA
:1024A000000007F0081810241024101C080A07F276
:1024B000000010041FFC1104110011C011300E0C9B
:1024C000000400000E1C11041084108410441C38F9
:1024D00000001800100010041FFC10041000180069
:1024E000000010001FF810040004000410041FF87E
:1024F000100010001E0011E0001C007013801C0072
:1025000010001FC0103C00E01F0000E0103C1FC086
:1025100000001004180C163401C001C01634180C49
:10252000100410001C00130400FC13041C00100015
:1025300000000804101C1064108413041C041018FC
:1025400000000000000000007FFE40024002400248
:102550000000000030000C0003800060001C00033D
:10256000000000004002400240027FFE0000000028
:10257000000000000000200040004000400020005B
:102580000000000100010001000100010001000144
:10259000000100004000400020000000000000009A
:1025A000000000000098012401440144014400FCA3
:1025B000000410001FFC0088010401040088007062
:1025C000000000000070008801040104010400887C
:1025D00000000000007000880104010411081FFCC5
:1025E0000004000000F8014401440144014400C813
:1025F00000000000010401040FFC1104110411008B
:102600001800000000D601290129012901C901068D
:10261000000010041FFC008401000100010400FC04
:10262000000400000104190419FC00040004000067
:1026300000000000000300010101190119FE000063
:10264000000010041FFC0024004001B4010C010430
:1026500000000000100410041FFC0004000400002F
:102660000000010401FC0104010001FC010401005F
:1026700000FC010401FC008401000100010400FCD5
:102680000004000000F8010401040104010400F842
:102690000000010101FF00850104010400880070B1
:1026A000000000000070008801040104010501FF22
:1026B00000010104010401FC008401040100018007
:1026C0000000000000CC0124012401240124019811
:1026D000000000000100010007F8010401040000EF
:1026E0000000010001F8000400040004010801FCDE
:1026F0000004010001800170000C001001600180E5
:10270000010001F0010C003001C00030010C01F0AB
:10271000010000000104018C00740170018C0104AF
:102720000000010101810171000E001801600180AB
:10273000010000000184010C013401440184010CFA
:102740000000000000000000000001003EFC40020C
:1027500040020000000000000000FFFF0000000039
:1027600000000000400240023EFC010000000000AA
:102770000000000060008000800040004000200059
:1027800020000000A8270008000000201000000022
:10279000F8010008B827000810000020C00A000057
:1027A00018020008000000000100000010000000F6
:0827B0000024F4000000000009
:040000050800019559
:00000001FF
