:020000040800F2
:10000000180B002061020008E11700080112000827
:10001000DD170008690400087D1F000800000000CB
:10002000000000000000000000000000D11D0008DA
:100030006D04000800000000CD1D0008D51D00085B
:100040007B0200087B0200087B0200087B0200089C
:100050007B0200087B0200087B0200087B0200088C
:100060007B0200087B0200087B0200087B0200087C
:100070007B0200087B0200087B0200087B0200086C
:100080007B0200087B0200087B02000800000000E1
:100090000000000000000000000000007B020008DB
:1000A0007B0200087B0200087B0200087B0200083C
:1000B0007B0200087B0200087B0200087B0200082C
:1000C0007B0200087B0200087B0200087B0200081C
:1000D0007B0200087B0200087B0200080000000091
:1000E0007B0200087B0200087B0200080000000081
:1000F0000000000000000000000000007B0200087B
:10010000000000007B0200087B0200087B02000860
:1001100000000000000000000000000000000000DF
:100120007B0200087B0200087B0200087B020008BB
:100130007B0200080000000000000000000000003A
:100140000000000000000000000000007B0200082A
:100150007B0200087B0200087B0200087B0200088B
:100160007B0200087B020008000000000000000085
:10017000000000000000000000000000000000007F
:10018000000000007B0200080000000000000000EA
:100190007B02000800F002F800F052F814A696E87E
:1001A000000CB244B344DA4501D100F049F8BAE892
:1001B0000F000FA696E83000A5EB040504EB060738
:1001C000AAEB0704A7F101074FEA15154FEA34140B
:1001D000A4F10104AC4201D300F032F813F0010F96
:1001E00018BFFB1A43F0010300F001F8DBE71847E2
:1001F0001020000030200000103A24BF78C878C1D9
:10020000FAD8520724BF30C830C144BF04680C601C
:1002100070470000704700000023002400250026DE
:10022000103A28BF78C1FBD8520728BF30C148BF59
:100230000B6070471FB501F0C9FE1FBD10B510BDA2
:1002400000F0D8F81146FFF7F5FF01F099FE00F035
:10025000F6F803B4FFF7F2FF03BC00F0FDF800006E
:100260000948804709480047FEE7FEE7FEE7FEE74A
:10027000FEE7FEE7FEE7FEE7FEE7FEE70448054986
:10028000054A064B70470000811E000895010008D2
:1002900018050020180B0020180700201807002060
:1002A00053EA020C00F069802DE9F04B4FF0000694
:1002B000002B1FBFB3FA83F503FA05F424FA05F601
:1002C0005E4012BF1643B2FA82F502FA05F4C5F198
:1002D00020051EBF22FA05FC44EA0C04203556EA2C
:1002E000044C4FEA144418BF641C4FF000084FF050
:1002F0000009904271EB030C39D3002919BFB1FA00
:1003000081F701FA07F6B0FA80F700FA07F6C7F1AD
:1003100020071EBF20FA07FC46EA0C062037B6FB72
:10032000F4FCA7EB0507103F07F01F0BCBF12006ED
:100330002CFA06F60CFA0BFB44BFB3460026202F1E
:10034000A4BF5E464FF0000B5BEA060C08BF4FF0FF
:10035000010B19EB0B0948EB0608ABFB027C06FB13
:1003600002CC0BFB03CCC01B71EB0C01C1E70B46AD
:10037000024641464846BDE8F08B13B5084318BF16
:100380004FF0FF300146AFF30080BDE81C407047DE
:1003900002F0FF0343EA032242EA024200F002B8FD
:1003A0004FF0000200B5134694469646203922BF0E
:1003B000A0E80C50A0E80C50B1F12001BFF4F7AF59
:1003C000090728BFA0E80C5048BF0CC05DF804EB3B
:1003D000890028BF40F8042B08BF704748BF20F8A9
:1003E000022B11F0804F18BF00F8012B70477047A7
:1003F00070477047754600F02BF8AE460500694619
:10040000534620F00700854618B020B5FFF736FFA9
:10041000BDE820404FF000064FF000074FF0000805
:100420004FF0000BAC46ACE8C009ACE8C009ACE842
:10043000C009ACE8C00921F007018D46704710B52E
:100440000446AFF300802046BDE81040FFF701BF2F
:10045000004870471000002001491820ABBEFEE79D
:100460002600020070470000FEE700007047000011
:1004700072B600BFFEE70000002804BF01207047ED
:10048000417919B1012141710020704710B5002157
:100490000171044600F008F82046BDE81040012133
:1004A000417100207047000043F63001C4F20201A0
:1004B0000068A1F50362904218BF704781B0002028
:1004C0000090086840F480500860086800F480508C
:1004D0000090009801B07047B0B5044600F0E0F815
:1004E000054640F20000C2F200000078611C18BF0F
:1004F000044400BF00F0D4F8401BA042FAD3B0BDC2
:100500002DE9F04F83B000F1200200F13E4741F2A7
:100510000005009207F1FF77C4F2020507224FEAB7
:10052000B726A84208BF042200254FF000084FF06C
:100530000009042E38BF4FEAB72201920AE000BF3B
:1005400009F1010908F10208B9F1100F05F10405DC
:1005500000F0A2800F68012202FA09FE17EA0E0AD3
:10056000EED0D1F804C003220CF003077E1E02FA7D
:1005700008F4012E6FEA040B12D88468CE6804EAEE
:100580000B0406FA08F634438460446824EA0E0635
:10059000CCF3001404FA09F42643466004E000BFDB
:1005A000032F01D103271EE0C6688C6806EA0B06FC
:1005B00004FA08F42643022FC66014D16FF0030238
:1005C000009E02EA590756F807C005F01C040F22E6
:1005D0000B69A2402CEA0202A3401A43F251D1F85F
:1005E00004C00CF00307026807FA08F302EA0B02E2
:1005F0001A431CF4403F0260A2D0002243F6440399
:100600000292C4F202031A6843F6004442F48042A4
:100610001A601A68C4F2010402F480420292029A3B
:1006200029F003024FF6084C2244CFF6FF7C52F823
:100630000C3005F00C070F26BE40B343019E06FAAE
:1006400007F73B4342F80C30A2684B6842EA0A07BE
:1006500043F60C4CDE0258BF22EA0A07A760C4F238
:10066000010CDCF800209E0242EA0A0758BF22EA89
:100670000A07CCF8007062689E0342EA0A0758BF76
:1006800022EA0A0767602268DB0342EA0A0758BFCA
:1006900022EA0A07276053E703B0BDE8F08F0000A5
:1006A00040F21450C2F2000000687047002804BFF6
:1006B00001207047F0B581B0044690F83D0028B99C
:1006C000002084F83C00204600F050F9242084F8F3
:1006D0003D002068016821F001010160016841F4DA
:1006E00000410160016821F40041016000F0D0FA8E
:1006F000636848F2A16CC0F2010C40F60011C0F230
:100700003D0163453CBF48F28041C0F21E01884272
:1007100002D2012001B0F0BD4DF68361C4F21B315D
:10072000A0FB01122168970CD1F804E04FF49676F3
:100730002EF03F0545EA92454D60774348F638165E
:100740000D6AC0F24106A7FB067625F03F07634518
:1007500038BF960C721C3A430A62CA6948F2A06616
:100760004CF6FF77C0F20106B34222EA07020BD82B
:1007700001385B00B0FBF3F001306FF31F30042849
:1007800098BF04201BE000BFA768013857B11927A4
:100790007B43B0FBF3F001306FF31F3070B100F515
:1007A000804007E003EB4303B0FBF3F001306FF34D
:1007B0001F3018B100F5004001E000BF01201043D8
:1007C000C8610868D4E9072320F0C000104318432B
:1007D0000860886848F2FF3204F10C0790438CCF20
:1007E00018431043A6698860C86820F0FF003843AA
:1007F0003043C860086840F00100086000202021F4
:10080000206484F83D10206384F83E0001B0F0BD00
:100810002DE9F04383B0994616460F460446FFF78C
:100820003FFF94F83D10202924D10546206800BFE1
:10083000816989071AD5FFF733FF411B20681A2900
:10084000F6D381698907F3D500202021206384F83D
:100850003D1084F83E00216C41F02001216484F8B1
:100860003C00022003B0BDE8F08300BF94F83C10C8
:10087000012903D1022003B0BDE8F083012284F8EE
:100880003C200368DDE90B180A9ADB0703D10368F3
:1008900043F001030360036823F400630360212035
:1008A00084F83D00402084F83E000020206462620D
:1008B0006185608D394620850020CFF6FF70E062AB
:1008C000204632464B46CDE9008500F09BFC18B12E
:1008D000012003B0BDE8F083208D98B92046414641
:1008E0002A4600F0F3FC88B3206C0428F0D120687D
:1008F000016841F400710160012003B0BDE8F0839C
:100900000004EBD0204641462A4600F08FFE002826
:10091000EAD1616A2268084610F8013B1361238D11
:100920006062581E2085678D013F678557697F0784
:10093000E6D50704E4D048781061881C6062981EF0
:100940002085618D01396185DAE700BF2068016883
:1009500041F400710160202084F83D00002084F8FB
:100960003E0084F83C0003B0BDE8F083B0B586B02B
:1009700045F200410068C4F2000100248842059459
:10098000CDE903440294019402D006B0B0BD00BF8B
:1009900043F630050094C4F20205286840F00200D6
:1009A0002860286800F0020000900098C0200190A4
:1009B0001220CDE90204032004900420059001F5E3
:1009C000D83001A9FFF79CFD0094286940F400107D
:1009D0002861286900F400100090009806B0B0BDAE
:1009E00040F2000040F21451C2F20000C2F20001D5
:1009F00000780A68104408607047000080B543F62C
:100A00000040C4F20200016841F400710160016815
:100A100041F480610160016841F48071016003204C
:100A200000F074F80F2000F005F800F027F800201F
:100A300080BD000070B540F20006C2F2000640F230
:100A400008013278C2F200014FF47A730968B3FBEF
:100A5000F2F20446B1FBF2F1084600F04FFB0F2C16
:100A60004FF0010508D838B94FF0FF302146002279
:100A7000002500F01FF87460284670BD82B0002089
:100A800043F640010190C4F202014A6842F48042F8
:100A90004A604A6802F480420192019A0090086814
:100AA00040F080500860086800F080500090009886
:100AB00002B0704710B54EF60C5CCEF2000CDCF8BC
:100AC0000030C3F3022E8EF00704042C28BF042448
:100AD000BEF103034FF0FF3E0EFA04F438BF0023CB
:100AE000A14399400EFA03F39A43114300F00F0219
:100AF00000F160430901043A03F5644362440028AD
:100B000048BF02F10C03197010BD00004EF60C51E5
:100B1000CEF200010A684FF6FF031A4060F30A2282
:100B200042F0806040F0FD7008607047002804BF0C
:100B3000012070472DE9F04143F60808C4F202088D
:100B40000446D8F8F8030D4600F00700814207D9A3
:100B500088F8F853D8F8F80300F00700A84277D1D6
:100B60002068810717D5410705D5D8F8001041F452
:100B7000E051C8F80010010705D5D8F8001041F47D
:100B80006041C8F80010D8F80010A26821F0F00108
:100B90001143C8F80010C00740D1D8F8F80300F09E
:100BA0000700854207D288F8F853D8F8F80300F018
:100BB0000700A8424CD12068410707D5D8F800109B
:100BC000E26821F4E0511143C8F80010000708D58D
:100BD000D8F80000216920F4604040EAC100C8F85C
:100BE000000000F07DF8D8F8001041F6E672C1F37D
:100BF0000311C0F60002515C40F2080220FA01F134
:100C000040F20400C2F200000068C2F2000211606B
:100C1000FFF710FF0020BDE8F08100BF6068811E73
:100C2000022907D258F8081C89015CBF0120BDE8E1
:100C3000F08111E0012807D158F8081C89035CBF36
:100C40000120BDE8F08107E058F8081C890703D4AB
:100C50000120BDE8F08100BFD8F8001021F00301A9
:100C60000843C8F80000FFF71BFD064641F288372D
:100C7000D8F80000616800F00C00B0EB810F8CD058
:100C8000FFF70EFD801BB842F2D90320BDE8F081CA
:100C900040F2080043F60801C2F20000C4F202016B
:100CA0000068096841F6F672C1F38221C0F60002BD
:100CB000515CC8407047000040F2080043F608014C
:100CC000C2F20000C4F202010068096841F6F6723F
:100CD000C1F34231C0F60002515CC84070470000C9
:100CE00010B543F60404C4F202046168C1F3810143
:100CF00042F20040C0F2F400DFE801F002040A0210
:100D000010BD00BF47F64000C0F27D1010BD00BF0F
:100D1000206821682368490247F64001C0F27D112E
:100D200000F03F02C3F388105CBF42F20041C0F202
:100D3000F401A1FB00010023FFF7B2FA21680222AF
:100D4000C1F3014102EB4101B0FBF1F010BD000025
:100D5000002804BF012070472DE9F04182B004460D
:100D6000007843F60006C007C4F202060CD0B06853
:100D700000F00C00042840F081803068800303D527
:100D80006068002800F06881207880071BD5B06873
:100D900010F00C0F09D0B06800F00C00082840F0EB
:100DA00087807068400200F183803068800703D537
:100DB000E068012840F050813068216920F0F80097
:100DC00040EAC10030602078000713D42078400743
:100DD0002AD4A569002D00F03A81B06800F00C001B
:100DE000082840F0A580012D40F00E81012002B0BE
:100DF000BDE8F0816069002800F082800020C4F224
:100E000047200121C0F8801EFFF74AFC054600BFBD
:100E1000706F8007DAD4FFF743FC401B0228F7D934
:100E2000032002B0BDE8F081306C5FEAC0080AD44C
:100E300000200190306C40F080503064306C00F045
:100E400080500190019847F20007C4F2000738680B
:100E5000C00547D4386840F480703860FFF720FC44
:100E6000054600BF3868C0053CD4FFF719FC401B9D
:100E70000228F7D9032002B0BDE8F081B06800F085
:100E80000C00082803D1706840023FF576AF616816
:100E90003068B1F5803F07D0B1F5A02F40F09A80BF
:100EA00040F480203060306840F4803030609AE058
:100EB000E068002840F20000C4F247205CD0012125
:100EC0000160FFF7EDFB0546306880073FF574AF22
:100ED000FFF7E6FB401B0228F6D9032002B0BDE86D
:100EE000F08100BFA168306F012905D0052955D1D7
:100EF00040F004003067306F40F00100306756E08A
:100F00000020C4F247200021C0F8801EFFF7C8FB74
:100F1000054600BF706F80077FF558AFFFF7C0FB35
:100F2000401B0228F6D9032002B0BDE8F08100BFC3
:100F30000027C4F2472700203866FFF7B1FB022DD7
:100F400005460DD13068800140F18A80FFF7A8FB8B
:100F5000401B02284FF00300F4D902B0BDE8F08135
:100F60003068800173D5FFF79BFB401B02284FF0D0
:100F70000300F5D9F1E700BF00210160FFF790FB06
:100F8000054600BF306880077FF51DAFFFF788FB7F
:100F9000401B02284FF00300F4D9DEE720F00100E7
:100FA0003067306F002920F0040030677AD0FFF7F7
:100FB00077FB054641F28837306F800700F1848067
:100FC000FFF76EFB401BB842F6D9032002B0BDE824
:100FD000F08100BF20F4803030603068002920F4B8
:100FE000802030607AD0FFF75BFB054630688003D5
:100FF0003FF5CAAEFFF754FB401B6428F6D9032027
:1010000002B0BDE8F08100BF7068E16900F48002C1
:101010008A4221D1216A00F03F028A421CD147F660
:10102000C071626A0140B1EB821F15D1A16A4FF60F
:10103000FF73C903994300F44032A1F580318A421D
:101040000AD1E16A00F07060B0EB016F04D10020BA
:1010500002B0BDE8F08100BF012002B0BDE8F08120
:1010600004F11C052FCD084340EA8210D9034FF646
:10107000FF729143A1F5803140EA0560084370603A
:1010800001203866FFF70CFB044600BF3068800182
:10109000DDD4FFF705FB001B02284FF00300F5D954
:1010A0005BE700BFFFF7FCFA054641F2883700BF57
:1010B000306F800708D5FFF7F3FA401BB8424FF0B6
:1010C0000300F5D949E700BFB8F1000F3FF581AE45
:1010D000306C20F0805030647BE600BFFFF7E0FA10
:1010E000054600BF306880037FF54EAEFFF7D8FAA3
:1010F000401B64284FF00300F4D92EE7411E002066
:10110000B0EB116F1CBF012070474EF21002CEF2FF
:10111000000251604EF62351CEF20001F0230B7015
:101120000721906011607047002804BF01207047BC
:1011300010B5044690F8410028B9002084F840001A
:10114000204600F021F8242084F841002068C1687E
:1011500021F40051C160204600F09CFE2068016926
:1011600021F490410161416921F02A014161C16886
:1011700041F40051C16000202021606484F84110D6
:1011800084F84210606310BD80B586B041F2000162
:101190000068C4F20101002288420592CDE90322D1
:1011A0000292019202D006B080BD00BF43F630002B
:1011B0000092C4F20200436943F0100343614369A3
:1011C00003F010030093009B0092036843F00103B7
:1011D0000360006800F00100009000984FF4C060C8
:1011E00001900220CDE9020203200490072005901F
:1011F00001F5704001A9FFF783F906B080BD00003A
:10120000FEE700002DE9F04383B0044600680F4676
:1012100001680A9D0B9E41F48071994690460160D9
:1012200020464FF0011100222B46009600F0ACF84A
:1012300050B120680068C00544BF4FF400702064BE
:10124000032003B0BDE8F083206807F0FE010161D0
:101250000221C0F2010120462A46334600F07AF905
:1012600020B1012003B0BDE8F08300BF0020029050
:1012700020683246416902918069294602900298AD
:10128000204600F0D3F958B1206C0428E9D1206839
:10129000016841F400710160012003B0BDE8F083F2
:1012A0002068B9F1010F0AD04FEA182101612046E8
:1012B0002946324600F0BAF90028E5D120685FFAE5
:1012C00088F10161002003B0BDE8F08370B50368C8
:1012D000044653F8140F400711D40E46481C29D079
:1012E00086BB00BF1868400527D4FFF7D9F92368EB
:1012F00053F8140F400737D518684007F2D500207F
:1013000070BD00BF18684007F9D41868400514D4B0
:1013100018684007F3D4186840050ED418684007D1
:10132000EDD41868400508D4186840074FF0000055
:1013300048BF70BD18684005E4D56FF48060186040
:10134000042012E0154603E053F8140F4007D6D4EA
:1013500018684005F1D4FFF7A3F9401B2368B04299
:10136000F2D958694007EFD42020002120222163C0
:1013700084F83D2084F83E10226C10432064012044
:1013800084F83C1070BD00002DE9F041054600686E
:101390001E46144601F47F0201338FB242D0DDF8BD
:1013A0001880B2F5803F40F0878040693840C01B0C
:1013B000B0FA80F04009844240F0C8804EB924E081
:1013C00040693840C01BB0FA80F04009844240F0C8
:1013D000BD80FFF765F9A0EB08012868B142EFD99D
:1013E00041693940C91BB1FA81F149098C42E7D101
:1013F0009BE000BF40693840C01BB0FA80F0400954
:1014000084424FF0000040F0A280FFF749F92868BD
:1014100041693940C91BB1FA81F149098C42E9D1CE
:1014200083E000BFB2F5803F24D100BF416939405D
:10143000C91BB1FA81F149098C4240F087804169AA
:101440003940C91BB1FA81F149098C4240F07E80D4
:1014500041693940C91BB1FA81F149098C4275D102
:1014600041693940C91BB1FA81F149098C42DDD08B
:101470006CE000BF81693940C91BB1FA81F14909AB
:101480008C4263D181693940C91BB1FA81F14909A4
:101490008C425BD181693940C91BB1FA81F149099C
:1014A0008C4253D181693940C91BB1FA81F1490994
:1014B0008C42DFD04AE000BF80693840C01BB0FAE0
:1014C00080F04009844241D146B923E08069384028
:1014D000C01BB0FA80F04009844237D1FFF7E0F832
:1014E000A0EB08012868B142F0D981693940C91BD5
:1014F000B1FA81F149098C42E8D116E0806938409F
:10150000C01BB0FA80F0400984424FF0000018BFC1
:10151000BDE8F081FFF7C4F8286881693940C91B2C
:10152000B1FA81F149098C42E8D1002020212863D9
:1015300085F83D1085F83E00296C41F020012964B2
:1015400085F83C000120BDE8F08100BF0020BDE827
:10155000F0810000F0B581B0044600681D46436983
:101560008FB203EA0701B94202D1002001B0F0BDF9
:101570004169164601323CD0490512D47EB300BF02
:10158000FFF78EF8411B2068B14203D94169394009
:10159000B9422BD141693940B942E6D04169490588
:1015A000EED5016841F4007101606FF48061416122
:1015B000042000212022216384F83D2084F83E107D
:1015C000226C1043206484F83C10012001B0F0BD6F
:1015D00041693940B942C8D041694905E1D4FFF7B2
:1015E0005FF8206841693940B942F1D02020E0E736
:1015F00041694905D5D441693940B942B5D04169FD
:101600004905CED441693940B942AED04169490556
:10161000C7D441693940B942A7D041694905C0D40E
:1016200041693940B942E3D19FE7000070B50368D2
:10163000044653F8140F000611D40E46481C29D056
:1016400086BB00BF1868400527D4FFF729F8236838
:1016500053F8140F000637D518680006F2D500209D
:1016600070BD00BF18680006F9D41868400514D48E
:1016700018680006F3D4186840050ED418680006F0
:10168000EDD41868400508D4186800064FF0000033
:1016900048BF70BD18684005E4D56FF480601860DD
:1016A000042012E0154603E053F8140F0006D6D4C8
:1016B00018684005F1D4FEF7F3FF401B2368B042E1
:1016C000F2D958690006EFD420200021202221639E
:1016D00084F83D2084F83E10226C104320640120E1
:1016E00084F83C1070BD000080B540F2704043F2B9
:1016F0000001C2F20000C4F202010160FEF7BCFE6C
:10170000002808BF80BDBDE88040FEF7B1BE0000E4
:1017100083B0002043F630010290C4F202010A684F
:1017200042F080020A600A6802F080020292029A85
:1017300001900A6842F001020A600A6802F00102A0
:101740000192019A0090086840F002000860086861
:1017500000F002000090009803B0704780B540F29E
:10176000784045F20041C2F20000C4F2000148F2A4
:10177000A06200234FF4804CC0F2010280E80E000A
:10178000C0E9033CC0E90533C0E90733FEF78EFF2B
:10179000002808BF80BDBDE88040FEF769BE00009C
:1017A00080B540F2CC4041F20001C2F20000C4F228
:1017B000010100234FF00C0C4FF4E13280E80E00E1
:1017C000C0E90333C0E905C3C361FFF7ADFC0028DE
:1017D00008BF80BDBDE88040FEF74ABEFEE70000BE
:1017E000FEE700002DE9F04F83B07F2801930291BE
:1017F0003ED8064602983F283AD80198C0B315460D
:10180000B2B30C9CE81DC0084FF000084FF0070B66
:10181000009006E008F1010801991FFA88F088425B
:1018200026D20298404487B2402F21D200984FF030
:10183000000A08FB00F900BF0AEB060080B280280E
:10184000E8D21FFA8AF109EBD10189B2615C2BEA77
:101850000A02D1400D9B01F00102394600F00CF85C
:101860000AF1010A1FFA8AF0A842E5D3D2E700BFC5
:1018700003B0BDE8F08F00007F284FF0040C98BF44
:101880003F2903D95FFA8CF0704700BF03F0200CAA
:101890005CEA020C20D070B56FF0700501F007040F
:1018A00005EA011140F27005C2F2000505EB010ED8
:1018B00001261EF800C003F00F01042906FA04F304
:1018C00020D002290ED0012922D16AB14CEA0302AC
:1018D0004FF0010C0EE000BF4FF0020C5FFA8CF0ED
:1018E000704700BF002AF1D083F0FF010CEA01022B
:1018F0004FF0000C70440270BDE870405FFA8CF04D
:10190000704700BF62B11CEA030FEDD1DEE700BFF4
:101910004FF0020CBDE870405FFA8CF0704700BFDA
:10192000BDE870405FFA8CF07047000080B5024659
:10193000002840F27000C2F200004FF4806118BF2E
:10194000FF22FEF725FD80BD2DE9F04385B0642020
:10195000FEF7C2FD40F27844AE20C2F200048DF8DA
:1019600013000A2501260DF11307204678210022D5
:101970000123CDE9007602954FF00008FEF748FFFD
:1019800020467821002201238DF81380CDE90076CE
:101990000295FEF73DFF4FF0100920467821002206
:1019A00001238DF81390CDE900760295FEF730FF04
:1019B00020208DF813002046782100220123CDE954
:1019C00000760295FEF724FF2046782100220123AD
:1019D0008DF81390CDE900760295FEF719FFA82047
:1019E0008DF813002046782100220123CDE90076EE
:1019F0000295FEF70DFF3F208DF813002046782159
:101A000000220123CDE900760295FEF701FFD320E5
:101A10008DF813002046782100220123CDE90076BD
:101A20000295FEF7F5FE20467821002201238DF86D
:101A30001380CDE900760295FEF7EAFE40208DF88E
:101A400013002046782100220123CDE9007602957B
:101A5000FEF7DEFEA0208DF813002046782100223C
:101A60000123CDE900760295FEF7D2FEC0208DF865
:101A700013002046782100220123CDE9007602954B
:101A8000FEF7C6FEDA208DF81300204678210022EA
:101A90000123CDE900760295FEF7BAFE12208DF8FB
:101AA00013002046782100220123CDE9007602951B
:101AB000FEF7AEFED5208DF81300204678210022D7
:101AC0000123CDE900760295FEF7A2FE80208DF875
:101AD00013002046782100220123CDE900760295EB
:101AE000FEF796FED9208DF81300204678210022BB
:101AF0000123CDE900760295FEF78AFEF1208DF8EC
:101B000013002046782100220123CDE900760295BA
:101B1000FEF77EFEDB208DF81300204678210022A0
:101B20000123CDE900760295FEF772FE30208DF894
:101B300013002046782100220123CDE9007602958A
:101B4000FEF766FE81208DF81300204678210022E2
:101B50000123CDE900760295FEF75AFE7F208DF82D
:101B600013002046782100220123CDE9007602955A
:101B7000FEF74EFE8D208DF81300204678210022BE
:101B80000123CDE900760295FEF742FE14208DF880
:101B900013002046782100220123CDE9007602952A
:101BA000FEF736FEA4208DF813002046782100228F
:101BB0000123CDE900760295FEF72AFEA6208DF8D6
:101BC00013002046782100220123CDE900760295FA
:101BD000FEF71EFEAF208DF813002046782100226C
:101BE0000123CDE900760295FEF712FE40F2700067
:101BF000C2F200004FF48061FEF7D2FB00F008F85B
:101C00006420FEF769FC05B0BDE8F083AFF3008007
:101C10002DE9F04784B040F27844B020C2F20004CD
:101C20008DF80F004FF00A084FF0010A0DF10F0573
:101C30002046782100220123CDE9005ACDF8088002
:101C4000FEF7E6FD40F270074FF4FA798026C2F203
:101C500000072046782140220123CDE90076CDF807
:101C60000890FEF7D5FDB1208DF80F0020467821B1
:101C700000220123CDE9005ACDF80880FEF7C8FD07
:101C800007F18000CDE9000620467821402201239B
:101C9000CDF80890FEF7BCFDB2208DF80F0020466D
:101CA000782100220123CDE9005ACDF80880FEF703
:101CB000AFFD07F58070CDE900062046782140226F
:101CC0000123CDF80890FEF7A3FDB3208DF80F0097
:101CD0002046782100220123CDE9005ACDF8088062
:101CE000FEF796FD07F5C070CDE900062046782185
:101CF00040220123CDF80890FEF78AFDB4208DF82C
:101D00000F002046782100220123CDE9005ACDF8AA
:101D10000880FEF77DFD07F50070CDE9000620463E
:101D2000782140220123CDF80890FEF771FDB520FF
:101D30008DF80F002046782100220123CDE9005ABA
:101D4000CDF80880FEF764FD07F52070CDE90006A8
:101D50002046782140220123CDF80890FEF758FD57
:101D6000B6208DF80F002046782100220123CDE90E
:101D7000005ACDF80880FEF74BFD07F54070CDE91D
:101D800000062046782140220123CDF80890FEF776
:101D90003FFDB7208DF80F00204678210022012357
:101DA000CDE9005ACDF80880FEF732FD07F56070E6
:101DB000CDE900062046782140220123CDF8089085
:101DC000FEF726FD04B0BDE8F08700007047000074
:101DD00070470000FEF704BEF0B593B007AC204694
:101DE0003021FEF7DDFA002543F640000695CDE9E7
:101DF0000455CDE902550195C4F20200016802269E
:101E000041F08051016000680F2700F08050019080
:101E1000019847F200000195C4F20000016866F3E2
:101E20008F310160006800F440400190019801206A
:101E300007904FF4803008904FF480000E9060209F
:101E4000CDE910060420129020460D960F97FEF75C
:101E50007FFF18B172B600BFFEE700BF4FF480509D
:101E6000CDE9050502A80221CDE902760495FEF729
:101E70005DFE18B172B600BFFEE700BF13B0F0BD43
:101E80004EF68850CEF20000016841F47001016006
:101E900070470000B0B50446006804F108030ECB9B
:101EA0000569194325F440552A4302616269E369D3
:101EB0001143C268194349F20C639A431143C1604C
:101EC0004169A26921F4407141F20043114340F499
:101ED0008062C4F201039A42416103D1FEF7ECFE35
:101EE00002E000BFFEF7D4FEE1694FF69C7563681F
:101EF0001922C0F6FF75B1F5004FA0FB02011FD1FA
:101F00005A00DB0FFEF7CCF948F21F51C5F2EB1176
:101F1000A0FB01235A0905F1805302FB0300322381
:101F200003EBC000A0FB01014FF4F87000EA1110B0
:101F300000EB0210C1F34211084421688860B0BD73
:101F40009A009B0FFEF7ACF948F21F51C5F2EB1156
:101F5000A0FB01235A0902FB0500322303EB00100A
:101F6000A0FB0101F02000EA511000EB0210C1F3C8
:101F70004311084421688860B0BD0000FEE70000FE
:101F800082B0FEF73BFDFFF727FFFFF7C1FBFFF72E
:101F9000E5FBFFF7A9FBFFF703FCFFF7D5FC41F6D4
:101FA000FE750124C0F600050020002140224023D8
:101FB000CDE90054FFF716FCFFF728FE0020FFF7DD
:101FC000B5FC4FF4FA70FEF787FAEDE7F1EE100A70
:101FD0004FF6FF71C0F2C03120EA010040F04070BE
:101FE000E1EE100A7047000000000000000001024E
:101FF00003040607080900000000010203040000B2
:1020000000000000000000000000000000000000D0
:1020100000000000000000000000600078000000E8
:1020200003DC07E30200000004E00004FD80000080
:1020300046000014810000009800001000400008D5
:102040006000008008000010800001000000001106
:10205000000000800100003E040000000000018438
:102060000000000000000208000010000000021044
:10207000200000040000022040000110001005C0F4
:1020800000002002000006C08000304800081880D0
:1020900080005221000821000000520500100101BB
:1020A0000080D417800422010000840E0004060181
:1020B00001052000C4043E00000128078484340088
:1020C000030A3007A404140202445003A04024026F
:1020D000001C600AF650400200284007FE504802EB
:1020E0000030800C16502802047E0013C7501802DE
:1020F00005E00001E960080207BC000FE9202802A2
:102100000D1E000FE18008020E9F000FD0804802D4
:1021100014FF000D8200240214FF800C0100040251
:102120001CBC800C200004020C980007C0100C0698
:1021300004C0000380500A0A044100200810020273
:1021400004260000201003100400000010100110ED
:1021500004800000003000910008000000300041C1
:1021600001243FFF001000290000403F0000001143
:102170000200000F0040000C220000030040000697
:10218000A200400100C0000382004005014000128F
:10219000800040020200001210002004040000121F
:1021A000510035281928001241000EF021280002A4
:1021B00049C000008008000249180006001800020B
:1021C00068F9007C008800026CCD00B7800800022E
:1021D00074BF3CF9C040000A367FF7FCE000000302
:1021E000BEFBF7DF700000003FF83F5FB00000006B
:1021F0003E7D18BFB00000003FFA105FB000000045
:10220000202200080000002010000000F801000853
:102210003022000810000020080B000018020008FF
:1022200001000000100000000024F4000000000085
:040000050800019559
:00000001FF
