:020000040800F2
:10000000C80A0020610200080D16000891100008BF
:100010000916000859040008A51B0008000000008C
:10002000000000000000000000000000E11A0008CD
:100030005D04000800000000DD1A0008E51A000851
:100040007B0200087B0200087B0200087B0200089C
:100050007B0200087B0200087B0200087B0200088C
:100060007B0200087B0200087B0200087B0200087C
:100070007B0200087B0200087B0200087B0200086C
:100080007B0200087B0200087B02000800000000E1
:100090000000000000000000000000007B020008DB
:1000A0007B0200087B0200087B0200087B0200083C
:1000B0007B0200087B0200087B0200087B0200082C
:1000C0007B0200087B0200087B0200087B0200081C
:1000D0007B0200087B0200087B0200080000000091
:1000E0007B0200087B0200087B0200080000000081
:1000F0000000000000000000000000007B0200087B
:10010000000000007B0200087B0200087B02000860
:1001100000000000000000000000000000000000DF
:100120007B0200087B0200087B0200087B020008BB
:100130007B0200080000000000000000000000003A
:100140000000000000000000000000007B0200082A
:100150007B0200087B0200087B0200087B0200088B
:100160007B0200087B020008000000000000000085
:10017000000000000000000000000000000000007F
:10018000000000007B0200080000000000000000EA
:100190007B02000800F002F800F052F814A696E87E
:1001A000000CB244B344DA4501D100F049F8BAE892
:1001B0000F000FA696E83000A5EB040504EB060738
:1001C000AAEB0704A7F101074FEA15154FEA34140B
:1001D000A4F10104AC4201D300F032F813F0010F96
:1001E00018BFFB1A43F0010300F001F8DBE71847E2
:1001F000A81B0000C81B0000103A24BF78C878C1B3
:10020000FAD8520724BF30C830C144BF04680C601C
:1002100070470000704700000023002400250026DE
:10022000103A28BF78C1FBD8520728BF30C148BF59
:100230000B6070471FB501F095FD1FBD10B510BDD7
:1002400000F0D0F81146FFF7F5FF01F0ADFC00F02B
:10025000EEF803B4FFF7F2FF03BC00F0F5F800007E
:100260000948804709480047FEE7FEE7FEE7FEE74A
:10027000FEE7FEE7FEE7FEE7FEE7FEE70448054986
:10028000054A064B70470000911B000895010008C5
:10029000C8040020C80A0020C8060020C8060020A4
:1002A00053EA020C00F069802DE9F04B4FF0000694
:1002B000002B1FBFB3FA83F503FA05F424FA05F601
:1002C0005E4012BF1643B2FA82F502FA05F4C5F198
:1002D00020051EBF22FA05FC44EA0C04203556EA2C
:1002E000044C4FEA144418BF641C4FF000084FF050
:1002F0000009904271EB030C39D3002919BFB1FA00
:1003000081F701FA07F6B0FA80F700FA07F6C7F1AD
:1003100020071EBF20FA07FC46EA0C062037B6FB72
:10032000F4FCA7EB0507103F07F01F0BCBF12006ED
:100330002CFA06F60CFA0BFB44BFB3460026202F1E
:10034000A4BF5E464FF0000B5BEA060C08BF4FF0FF
:10035000010B19EB0B0948EB0608ABFB027C06FB13
:1003600002CC0BFB03CCC01B71EB0C01C1E70B46AD
:10037000024641464846BDE8F08B13B5084318BF16
:100380004FF0FF300146AFF30080BDE81C407047DE
:100390004FF0000200B5134694469646203922BF1E
:1003A000A0E80C50A0E80C50B1F12001BFF4F7AF69
:1003B000090728BFA0E80C5048BF0CC05DF804EB4B
:1003C000890028BF40F8042B08BF704748BF20F8B9
:1003D000022B11F0804F18BF00F8012B70477047B7
:1003E00070477047754600F02BF8AE460500694629
:1003F000534620F00700854618B020B5FFF73EFFB2
:10040000BDE820404FF000064FF000074FF0000815
:100410004FF0000BAC46ACE8C009ACE8C009ACE852
:10042000C009ACE8C00921F007018D46704710B53E
:100430000446AFF300802046BDE81040FFF709BF37
:10044000004870471000002001491820ABBEFEE7AD
:100450002600020070470000FEE700007047000021
:1004600072B600BFFEE70000B0B5044600F0E0F849
:10047000054640F20000C2F200000078611C18BF7F
:10048000044400BF00F0D4F8401BA042FAD3B0BD32
:100490002DE9F04F83B000F1200200F13E4741F218
:1004A0000005009207F1FF77C4F2020507224FEA28
:1004B000B726A84208BF042200254FF000084FF0DD
:1004C0000009042E38BF4FEAB72201920AE000BFAC
:1004D00009F1010908F10208B9F1100F05F104054D
:1004E00000F0A2800F68012202FA09FE17EA0E0A44
:1004F000EED0D1F804C003220CF003077E1E02FAEE
:1005000008F4012E6FEA040B12D88468CE6804EA5E
:100510000B0406FA08F634438460446824EA0E06A5
:10052000CCF3001404FA09F42643466004E000BF4B
:10053000032F01D103271EE0C6688C6806EA0B066C
:1005400004FA08F42643022FC66014D16FF00302A8
:10055000009E02EA590756F807C005F01C040F2256
:100560000B69A2402CEA0202A3401A43F251D1F8CF
:1005700004C00CF00307026807FA08F302EA0B0252
:100580001A431CF4403F0260A2D0002243F6440309
:100590000292C4F202031A6843F6004442F4804215
:1005A0001A601A68C4F2010402F480420292029AAC
:1005B00029F003024FF6084C2244CFF6FF7C52F894
:1005C0000C3005F00C070F26BE40B343019E06FA1F
:1005D00007F73B4342F80C30A2684B6842EA0A072F
:1005E00043F60C4CDE0258BF22EA0A07A760C4F2A9
:1005F000010CDCF800209E0242EA0A0758BF22EAFA
:100600000A07CCF8007062689E0342EA0A0758BFE6
:1006100022EA0A0767602268DB0342EA0A0758BF3A
:1006200022EA0A07276053E703B0BDE8F08F000015
:1006300040F2C440C2F2000000687047002804BFC6
:1006400001207047F0B581B0044690F83D0028B90C
:10065000002084F83C00204600F050F9242084F863
:100660003D002068016821F001010160016841F44A
:1006700000410160016821F40041016000F0D0FAFE
:10068000636848F2A16CC0F2010C40F60011C0F2A0
:100690003D0163453CBF48F28041C0F21E018842E3
:1006A00002D2012001B0F0BD4DF68361C4F21B31CE
:1006B000A0FB01122168970CD1F804E04FF4967664
:1006C0002EF03F0545EA92454D60774348F63816CF
:1006D0000D6AC0F24106A7FB067625F03F07634589
:1006E00038BF960C721C3A430A62CA6948F2A06687
:1006F0004CF6FF77C0F20106B34222EA07020BD89C
:1007000001385B00B0FBF3F001306FF31F300428B9
:1007100098BF04201BE000BFA768013857B1192714
:100720007B43B0FBF3F001306FF31F3070B100F585
:10073000804007E003EB4303B0FBF3F001306FF3BD
:100740001F3018B100F5004001E000BF0120104348
:10075000C8610868D4E9072320F0C000104318439B
:100760000860886848F2FF3204F10C0790438CCF90
:1007700018431043A6698860C86820F0FF0038431A
:100780003043C860086840F0010008600020202164
:10079000206484F83D10206384F83E0001B0F0BD71
:1007A0002DE9F04383B0994616460F460446FFF7FD
:1007B0003FFF94F83D10202924D10546206800BF52
:1007C000816989071AD5FFF733FF411B20681A2971
:1007D000F6D381698907F3D500202021206384F8AE
:1007E0003D1084F83E00216C41F02001216484F822
:1007F0003C00022003B0BDE8F08300BF94F83C1039
:10080000012903D1022003B0BDE8F083012284F85E
:100810003C200368DDE90B180A9ADB0703D1036863
:1008200043F001030360036823F4006303602120A5
:1008300084F83D00402084F83E000020206462627D
:100840006185608D394620850020CFF6FF70E0621B
:10085000204632464B46CDE9008500F01BFC18B11E
:10086000012003B0BDE8F083208D98B920464146B1
:100870002A4600F073FC88B3206C0428F0D120686D
:10088000016841F400710160012003B0BDE8F0830C
:100890000004EBD0204641462A4600F00FFE002817
:1008A000EAD1616A2268084610F8013B1361238D82
:1008B0006062581E2085678D013F678557697F07F5
:1008C000E6D50704E4D048781061881C6062981E61
:1008D0002085618D01396185DAE700BF20680168F4
:1008E00041F400710160202084F83D00002084F86C
:1008F0003E0084F83C0003B0BDE8F083B0B586B09C
:1009000045F200410068C4F20001002488420594C9
:10091000CDE903440294019402D006B0B0BD00BFFB
:1009200043F630050094C4F20205286840F0020046
:100930002860286800F0020000900098C020019014
:100940001220CDE90204032004900420059001F553
:10095000D83001A9FFF79CFD0094286940F40010ED
:100960002861286900F400100090009806B0B0BD1E
:1009700040F2000040F2C441C2F20000C2F20001A5
:1009800000780A68104408607047000080B543F69C
:100990000040C4F20200016841F400710160016886
:1009A00041F480610160016841F4807101600320BD
:1009B00000F074F80F2000F005F800F027F8002090
:1009C00080BD000070B540F20006C2F2000640F2A1
:1009D00008013278C2F200014FF47A730968B3FB60
:1009E000F2F20446B1FBF2F1084600F03BFB0F2C9B
:1009F0004FF0010508D838B94FF0FF3021460022EA
:100A0000002500F01FF87460284670BD82B00020F9
:100A100043F640010190C4F202014A6842F4804268
:100A20004A604A6802F480420192019A0090086884
:100A300040F080500860086800F0805000900098F6
:100A400002B0704710B54EF60C5CCEF2000CDCF82C
:100A50000030C3F3022E8EF00704042C28BF0424B8
:100A6000BEF103034FF0FF3E0EFA04F438BF00233B
:100A7000A14399400EFA03F39A43114300F00F0289
:100A800000F160430901043A03F56443624400281D
:100A900048BF02F10C03197010BD00004EF60C5156
:100AA000CEF200010A684FF6FF031A4060F30A22F3
:100AB00042F0806040F0FD7008607047002804BF7D
:100AC000012070472DE9F04143F60808C4F20208FE
:100AD0000446D8F8F8030D4600F00700814207D914
:100AE00088F8F853D8F8F80300F00700A84277D147
:100AF0002068810717D5410705D5D8F8001041F4C3
:100B0000E051C8F80010010705D5D8F8001041F4ED
:100B10006041C8F80010D8F80010A26821F0F00178
:100B20001143C8F80010C00740D1D8F8F80300F00E
:100B30000700854207D288F8F853D8F8F80300F088
:100B40000700A8424CD12068410707D5D8F800100B
:100B5000E26821F4E0511143C8F80010000708D5FD
:100B6000D8F80000216920F4604040EAC100C8F8CC
:100B7000000000F069F8D8F8001041F67E52C1F389
:100B80000311C0F60002515C40F2080220FA01F1A4
:100B900040F20400C2F200000068C2F200021160DC
:100BA000FFF710FF0020BDE8F08100BF6068811EE4
:100BB000022907D258F8081C89015CBF0120BDE852
:100BC000F08111E0012807D158F8081C89035CBFA7
:100BD0000120BDE8F08107E058F8081C890703D41C
:100BE0000120BDE8F08100BFD8F8001021F003011A
:100BF0000843C8F80000FFF71BFD064641F288379E
:100C0000D8F80000616800F00C00B0EB810F8CD0C8
:100C1000FFF70EFD801BB842F2D90320BDE8F0813A
:100C200040F2080043F60801C2F20000C4F20201DB
:100C30000068096841F68E52C1F38221C0F60002B5
:100C4000515CC8407047000010B543F60404C4F27C
:100C500002046168C1F3810142F20040C0F2F40075
:100C6000DFE801F002040A0210BD00BF47F64000B1
:100C7000C0F27D1010BD00BF2068216823684902C2
:100C800047F64001C0F27D1100F03F02C3F3881027
:100C90005CBF42F20041C0F2F401A1FB000100235D
:100CA000FFF7FEFA21680222C1F3014102EB410184
:100CB000B0FBF1F010BD0000002804BF0120704718
:100CC0002DE9F04182B00446007843F60006C007E3
:100CD000C4F202060CD0B06800F00C00042840F00A
:100CE00081803068800303D56068002800F0688147
:100CF000207880071BD5B06810F00C0F09D0B068C1
:100D000000F00C00082840F087807068400200F175
:100D100083803068800703D5E068012840F0508167
:100D20003068216920F0F80040EAC1003060207886
:100D3000000713D4207840072AD4A569002D00F0BD
:100D40003A81B06800F00C00082840F0A580012D21
:100D500040F00E81012002B0BDE8F08160690028FA
:100D600000F082800020C4F247200121C0F8801EDC
:100D7000FFF75EFC054600BF706F8007DAD4FFF70F
:100D800057FC401B0228F7D9032002B0BDE8F081D0
:100D9000306C5FEAC0080AD400200190306C40F04B
:100DA00080503064306C00F080500190019847F220
:100DB0000007C4F200073868C00547D4386840F41B
:100DC00080703860FFF734FC054600BF3868C00506
:100DD0003CD4FFF72DFC401B0228F7D9032002B0BA
:100DE000BDE8F081B06800F00C00082803D17068FD
:100DF00040023FF576AF61683068B1F5803F07D0BB
:100E0000B1F5A02F40F09A8040F480203060306827
:100E100040F4803030609AE0E068002840F2000042
:100E2000C4F247205CD001210160FFF701FC0546B8
:100E3000306880073FF574AFFFF7FAFB401B0228CC
:100E4000F6D9032002B0BDE8F08100BFA168306F81
:100E5000012905D0052955D140F004003067306FD5
:100E600040F00100306756E00020C4F24720002126
:100E7000C0F8801EFFF7DCFB054600BF706F8007DF
:100E80007FF558AFFFF7D4FB401B0228F6D90320AB
:100E900002B0BDE8F08100BF0027C4F24727002060
:100EA0003866FFF7C5FB022D05460DD1306880017D
:100EB00040F18A80FFF7BCFB401B02284FF0030083
:100EC000F4D902B0BDE8F0813068800173D5FFF736
:100ED000AFFB401B02284FF00300F5D9F1E700BF3C
:100EE00000210160FFF7A4FB054600BF30688007C2
:100EF0007FF51DAFFFF79CFB401B02284FF003005E
:100F0000F4D9DEE720F001003067306F002920F0CF
:100F1000040030677AD0FFF78BFB054641F2883733
:100F2000306F800700F18480FFF782FB401BB842DE
:100F3000F6D9032002B0BDE8F08100BF20F4803074
:100F400030603068002920F4802030607AD0FFF7CC
:100F50006FFB0546306880033FF5CAAEFFF768FBBC
:100F6000401B6428F6D9032002B0BDE8F08100BF21
:100F70007068E16900F480028A4221D1216A00F0A0
:100F80003F028A421CD147F6C071626A0140B1EB50
:100F9000821F15D1A16A4FF6FF73C903994300F46C
:100FA0004032A1F580318A420AD1E16A00F07060D6
:100FB000B0EB016F04D1002002B0BDE8F08100BFAA
:100FC000012002B0BDE8F08104F11C052FCD0843DB
:100FD00040EA8210D9034FF6FF729143A1F58031A8
:100FE00040EA05600843706001203866FFF720FB87
:100FF000044600BF30688001DDD4FFF719FB001BF9
:1010000002284FF00300F5D95BE700BFFFF710FBA4
:10101000054641F2883700BF306F800708D5FFF7DB
:1010200007FB401BB8424FF00300F5D949E700BF6A
:10103000B8F1000F3FF581AE306C20F08050306485
:101040007BE600BFFFF7F4FA054600BF3068800377
:101050007FF54EAEFFF7ECFA401B64284FF003001B
:10106000F4D92EE7411E0020B0EB116F1CBF012008
:1010700070474EF21002CEF2000251604EF623513C
:10108000CEF20001F0230B700721906011607047D1
:10109000FEE700002DE9F04383B0044600680F46E8
:1010A00001680A9D0B9E41F480719946904601604B
:1010B00020464FF0011100222B46009600F0ACF8BC
:1010C00050B120680068C00544BF4FF40070206430
:1010D000032003B0BDE8F083206807F0FE01016142
:1010E0000221C0F2010120462A46334600F07AF977
:1010F00020B1012003B0BDE8F08300BF00200290C2
:10110000206832464169029180692946029002981E
:10111000204600F0D3F958B1206C0428E9D12068AA
:10112000016841F400710160012003B0BDE8F08363
:101130002068B9F1010F0AD04FEA18210161204659
:101140002946324600F0BAF90028E5D120685FFA56
:1011500088F10161002003B0BDE8F08370B5036839
:10116000044653F8140F400711D40E46481C29D0EA
:1011700086BB00BF1868400527D4FFF759FA2368DB
:1011800053F8140F400737D518684007F2D50020F0
:1011900070BD00BF18684007F9D41868400514D422
:1011A00018684007F3D4186840050ED41868400743
:1011B000EDD41868400508D4186840074FF00000C7
:1011C00048BF70BD18684005E4D56FF480601860B2
:1011D000042012E0154603E053F8140F4007D6D45C
:1011E00018684005F1D4FFF723FA401B2368B0428A
:1011F000F2D958694007EFD4202000212022216332
:1012000084F83D2084F83E10226C104320640120B5
:1012100084F83C1070BD00002DE9F04105460068DF
:101220001E46144601F47F0201338FB242D0DDF82E
:101230001880B2F5803F40F0878040693840C01B7D
:10124000B0FA80F04009844240F0C8804EB924E0F2
:1012500040693840C01BB0FA80F04009844240F039
:10126000BD80FFF7E5F9A0EB08012868B142EFD98E
:1012700041693940C91BB1FA81F149098C42E7D172
:101280009BE000BF40693840C01BB0FA80F04009C5
:1012900084424FF0000040F0A280FFF7C9F92868AF
:1012A00041693940C91BB1FA81F149098C42E9D140
:1012B00083E000BFB2F5803F24D100BF41693940CF
:1012C000C91BB1FA81F149098C4240F0878041691C
:1012D0003940C91BB1FA81F149098C4240F07E8046
:1012E00041693940C91BB1FA81F149098C4275D174
:1012F00041693940C91BB1FA81F149098C42DDD0FD
:101300006CE000BF81693940C91BB1FA81F149091C
:101310008C4263D181693940C91BB1FA81F1490915
:101320008C425BD181693940C91BB1FA81F149090D
:101330008C4253D181693940C91BB1FA81F1490905
:101340008C42DFD04AE000BF80693840C01BB0FA51
:1013500080F04009844241D146B923E08069384099
:10136000C01BB0FA80F04009844237D1FFF760F922
:10137000A0EB08012868B142F0D981693940C91B46
:10138000B1FA81F149098C42E8D116E08069384010
:10139000C01BB0FA80F0400984424FF0000018BF33
:1013A000BDE8F081FFF744F9286881693940C91B1D
:1013B000B1FA81F149098C42E8D10020202128634B
:1013C00085F83D1085F83E00296C41F02001296424
:1013D00085F83C000120BDE8F08100BF0020BDE899
:1013E000F0810000F0B581B0044600681D464369F5
:1013F0008FB203EA0701B94202D1002001B0F0BD6B
:101400004169164601323CD0490512D47EB300BF73
:10141000FFF70EF9411B2068B14203D941693940F9
:10142000B9422BD141693940B942E6D041694905F9
:10143000EED5016841F4007101606FF48061416193
:10144000042000212022216384F83D2084F83E10EE
:10145000226C1043206484F83C10012001B0F0BDE0
:1014600041693940B942C8D041694905E1D4FFF723
:10147000DFF8206841693940B942F1D02020E0E727
:1014800041694905D5D441693940B942B5D041696E
:101490004905CED441693940B942AED041694905C8
:1014A000C7D441693940B942A7D041694905C0D480
:1014B00041693940B942E3D19FE7000070B5036844
:1014C000044653F8140F000611D40E46481C29D0C8
:1014D00086BB00BF1868400527D4FFF7A9F823682A
:1014E00053F8140F000637D518680006F2D500200F
:1014F00070BD00BF18680006F9D41868400514D400
:1015000018680006F3D4186840050ED41868000661
:10151000EDD41868400508D4186800064FF00000A4
:1015200048BF70BD18684005E4D56FF4806018604E
:10153000042012E0154603E053F8140F0006D6D439
:1015400018684005F1D4FFF773F8401B2368B042D8
:10155000F2D958690006EFD420200021202221630F
:1015600084F83D2084F83E10226C10432064012052
:1015700084F83C1070BD000083B0002043F63001B9
:101580000290C4F202010A6842F080020A600A680E
:1015900002F080020292029A01900A6842F001026F
:1015A0000A600A6802F001020192019A009008683C
:1015B00040F002000860086800F002000090009807
:1015C00003B0704780B540F2704045F20041C2F26E
:1015D0000000C4F2000148F2A06200234FF4804CE6
:1015E000C0F2010280E80E00C0E9033CC0E9053307
:1015F000C0E90733FFF722F8002808BF80BDBDE827
:101600008040FEF72DBF0000FEE70000FEE700006F
:10161000802898BF402901D9704700BF002A40F2B6
:10162000700201F0070C01F0F801C2F2000202EBB7
:1016300001114FF001030A5C03FA0CF308BFDB430E
:101640001A430A54704700002DE9F04385B0642026
:10165000FEF70AFF40F27044AE20C2F200048DF89B
:1016600013000A2501260DF11307204678210022D8
:101670000123CDE9007602954FF00008FFF790F8BE
:1016800020467821002201238DF81380CDE90076D1
:101690000295FFF785F84FF01009204678210022C7
:1016A00001238DF81390CDE900760295FFF778F8C5
:1016B00020208DF813002046782100220123CDE957
:1016C00000760295FFF76CF820467821002201236E
:1016D0008DF81390CDE900760295FFF761F8A82008
:1016E0008DF813002046782100220123CDE90076F1
:1016F0000295FFF755F83F208DF81300204678211A
:1017000000220123CDE900760295FFF749F8D320A6
:101710008DF813002046782100220123CDE90076C0
:101720000295FFF73DF820467821002201238DF82D
:101730001380CDE900760295FFF732F840208DF84E
:1017400013002046782100220123CDE9007602957E
:10175000FFF726F8A0208DF81300204678210022FC
:101760000123CDE900760295FFF71AF8C0208DF825
:1017700013002046782100220123CDE9007602954E
:10178000FFF70EF8DA208DF81300204678210022AA
:101790000123CDE900760295FFF702F812208DF8BB
:1017A00013002046782100220123CDE9007602951E
:1017B000FEF7F6FFD5208DF8130020467821002291
:1017C0000123CDE900760295FEF7EAFF80208DF82F
:1017D00013002046782100220123CDE900760295EE
:1017E000FEF7DEFFD9208DF8130020467821002275
:1017F0000123CDE900760295FEF7D2FFF1208DF8A6
:1018000013002046782100220123CDE900760295BD
:10181000FEF7C6FFDB208DF813002046782100225A
:101820000123CDE900760295FEF7BAFF30208DF84E
:1018300013002046782100220123CDE9007602958D
:10184000FEF7AEFF81208DF813002046782100229C
:101850000123CDE900760295FEF7A2FF7F208DF8E7
:1018600013002046782100220123CDE9007602955D
:10187000FEF796FF8D208DF8130020467821002278
:101880000123CDE900760295FEF78AFF14208DF83A
:1018900013002046782100220123CDE9007602952D
:1018A000FEF77EFFA4208DF8130020467821002249
:1018B0000123CDE900760295FEF772FFA6208DF890
:1018C00013002046782100220123CDE900760295FD
:1018D000FEF766FFAF208DF8130020467821002226
:1018E0000123CDE900760295FEF75AFF40F270051C
:1018F000C2F2000528464FF480614FF48066FEF77F
:1019000047FD4FF4FA772046782140220123CDE9A4
:1019100000560297FEF744FF05B0BDE8F0830000D3
:101920002DE9F04784B040F27044B020C2F20004C8
:101930008DF80F004FF00A084FF0010A0DF10F0566
:101940002046782100220123CDE9005ACDF80880F5
:10195000FEF726FF40F270074FF4FA798026C2F2B4
:1019600000072046782140220123CDE90076CDF8FA
:101970000890FEF715FFB1208DF80F002046782162
:1019800000220123CDE9005ACDF80880FEF708FFB8
:1019900007F18000CDE9000620467821402201238E
:1019A000CDF80890FEF7FCFEB2208DF80F0020461F
:1019B000782100220123CDE9005ACDF80880FEF7F6
:1019C000EFFE07F58070CDE9000620467821402221
:1019D0000123CDF80890FEF7E3FEB3208DF80F0049
:1019E0002046782100220123CDE9005ACDF8088055
:1019F000FEF7D6FE07F5C070CDE900062046782137
:101A000040220123CDF80890FEF7CAFEB4208DF8DD
:101A10000F002046782100220123CDE9005ACDF89D
:101A20000880FEF7BDFE07F50070CDE900062046F0
:101A3000782140220123CDF80890FEF7B1FEB520B1
:101A40008DF80F002046782100220123CDE9005AAD
:101A5000CDF80880FEF7A4FE07F52070CDE900065A
:101A60002046782140220123CDF80890FEF798FE09
:101A7000B6208DF80F002046782100220123CDE901
:101A8000005ACDF80880FEF78BFE07F54070CDE9CF
:101A900000062046782140220123CDF80890FEF769
:101AA0007FFEB7208DF80F00204678210022012309
:101AB000CDE9005ACDF80880FEF772FE07F5607098
:101AC000CDE900062046782140220123CDF8089078
:101AD000FEF766FE04B0BDE8F08700007047000026
:101AE00070470000FEF744BFF0B593B007AC204646
:101AF0003021FEF74DFC002543F640000695CDE968
:101B00000455CDE902550195C4F202000168022690
:101B100041F08051016000680F2700F08050019073
:101B2000019847F200000195C4F20000016866F3D5
:101B30008F310160006800F440400190019801205D
:101B400007904FF4803008904FF480000E90602092
:101B5000CDE910060420129020460D960F97FFF74E
:101B6000ABF818B172B600BFFEE700BF4FF480506B
:101B7000CDE9050502A80221CDE902760495FEF71C
:101B80009DFF18B172B600BFFEE700BF13B0F0BDF5
:101B90004EF68850CEF20000016841F470010160F9
:101BA00070470000FEE70000FEF7F0FEFFF79CFF25
:101BB000FFF7E2FCFFF706FDFFF746FD00200021DE
:101BC0000122FFF725FD022001210122FFF720FD60
:101BD000042002210122FFF71BFD06200321012220
:101BE000FFF716FD082004210122FFF711FD0A204E
:101BF00005210122FFF70CFD0C2006210122FFF731
:101C000007FD0E2007210122FFF702FD1020082109
:101C10000122FFF7FDFC122009210122FFF7F8FC49
:101C200014200A210122FFF7F3FC16200B210122C8
:101C3000FFF7EEFC18200C210122FFF7E9FC1A2027
:101C40000D210122FFF7E4FC1C200E210122FFF7E9
:101C5000DFFC1E200F210122FFF7DAFC20201021DB
:101C60000122FFF7D5FC222011210122FFF7D0FC31
:101C7000242012210122FFF7CBFC26201321012270
:101C8000FFF7C6FC282014210122FFF7C1FC2A20FF
:101C900015210122FFF7BCFC2C2016210122FFF7A1
:101CA000B7FC2E2017210122FFF7B2FC30201821AB
:101CB0000122FFF7ADFC322019210122FFF7A8FC19
:101CC00034201A210122FFF7A3FC36201B21012218
:101CD000FFF79EFC38201C210122FFF799FC3A20D7
:101CE0001D210122FFF794FC3C201E210122FFF759
:101CF0008FFC3E201F210122FFF78AFC402020217B
:101D00000122FFF785FC422021210122FFF780FC00
:101D1000442022210122FFF77BFC462023210122BF
:101D2000FFF776FC482024210122FFF771FC4A20AE
:101D300025210122FFF76CFC4C2026210122FFF710
:101D400067FC4E2027210122FFF762FC502028214A
:101D50000122FFF75DFCFFF7E3FD4FF4FA70FEF799
:101D600083FB2BE7F1EE100A4FF6FF71C0F2C03192
:101D700020EA010040F04070E1EE100A70470000D8
:101D8000000000000000010203040607080900002B
:101D90000000010203040000B81D0008000000203C
:101DA00010000000F8010008C81D00081000002005
:101DB000B80A00001802000801000000100000002E
:081DC0000024F4000000000003
:040000050800019559
:00000001FF
