:020000040800F2
:10000000E80A002061020008A51600080111000896
:10001000A116000869040008812100080000000002
:10002000000000000000000000000000BD200008EB
:100030006D04000800000000B9200008C12000087D
:100040007B0200087B0200087B0200087B0200089C
:100050007B0200087B0200087B0200087B0200088C
:100060007B0200087B0200087B0200087B0200087C
:100070007B0200087B0200087B0200087B0200086C
:100080007B0200087B0200087B02000800000000E1
:100090000000000000000000000000007B020008DB
:1000A0007B0200087B0200087B0200087B0200083C
:1000B0007B0200087B0200087B0200087B0200082C
:1000C0007B0200087B0200087B0200087B0200081C
:1000D0007B0200087B0200087B0200080000000091
:1000E0007B0200087B0200087B0200080000000081
:1000F0000000000000000000000000007B0200087B
:10010000000000007B0200087B0200087B02000860
:1001100000000000000000000000000000000000DF
:100120007B0200087B0200087B0200087B020008BB
:100130007B0200080000000000000000000000003A
:100140000000000000000000000000007B0200082A
:100150007B0200087B0200087B0200087B0200088B
:100160007B0200087B020008000000000000000085
:10017000000000000000000000000000000000007F
:10018000000000007B0200080000000000000000EA
:100190007B02000800F002F800F052F814A696E87E
:1001A000000CB244B344DA4501D100F049F8BAE892
:1001B0000F000FA696E83000A5EB040504EB060738
:1001C000AAEB0704A7F101074FEA15154FEA34140B
:1001D000A4F10104AC4201D300F032F813F0010F96
:1001E00018BFFB1A43F0010300F001F8DBE71847E2
:1001F0005C3800007C380000103A24BF78C878C111
:10020000FAD8520724BF30C830C144BF04680C601C
:1002100070470000704700000023002400250026DE
:10022000103A28BF78C1FBD8520728BF30C148BF59
:100230000B6070471FB501F0EFFF1FBD10B510BD7B
:1002400000F0D8F81146FFF7F5FF01F09BFF00F032
:10025000F6F803B4FFF7F2FF03BC00F0FDF800006E
:100260000948804709480047FEE7FEE7FEE7FEE74A
:10027000FEE7FEE7FEE7FEE7FEE7FEE70448054986
:10028000054A064B704700006D21000895010008E3
:10029000E8040020E80A0020E8060020E806002024
:1002A00053EA020C00F069802DE9F04B4FF0000694
:1002B000002B1FBFB3FA83F503FA05F424FA05F601
:1002C0005E4012BF1643B2FA82F502FA05F4C5F198
:1002D00020051EBF22FA05FC44EA0C04203556EA2C
:1002E000044C4FEA144418BF641C4FF000084FF050
:1002F0000009904271EB030C39D3002919BFB1FA00
:1003000081F701FA07F6B0FA80F700FA07F6C7F1AD
:1003100020071EBF20FA07FC46EA0C062037B6FB72
:10032000F4FCA7EB0507103F07F01F0BCBF12006ED
:100330002CFA06F60CFA0BFB44BFB3460026202F1E
:10034000A4BF5E464FF0000B5BEA060C08BF4FF0FF
:10035000010B19EB0B0948EB0608ABFB027C06FB13
:1003600002CC0BFB03CCC01B71EB0C01C1E70B46AD
:10037000024641464846BDE8F08B13B5084318BF16
:100380004FF0FF300146AFF30080BDE81C407047DE
:1003900002F0FF0343EA032242EA024200F002B8FD
:1003A0004FF0000200B5134694469646203922BF0E
:1003B000A0E80C50A0E80C50B1F12001BFF4F7AF59
:1003C000090728BFA0E80C5048BF0CC05DF804EB3B
:1003D000890028BF40F8042B08BF704748BF20F8A9
:1003E000022B11F0804F18BF00F8012B70477047A7
:1003F00070477047754600F02BF8AE460500694619
:10040000534620F00700854618B020B5FFF736FFA9
:10041000BDE820404FF000064FF000074FF0000805
:100420004FF0000BAC46ACE8C009ACE8C009ACE842
:10043000C009ACE8C00921F007018D46704710B52E
:100440000446AFF300802046BDE81040FFF701BF2F
:10045000004870472000002001491820ABBEFEE78D
:100460002600020070470000FEE700007047000011
:1004700072B600BFFEE70000002804BF01207047ED
:10048000417919B1012141710020704710B5002157
:100490000171044600F008F82046BDE81040012133
:1004A000417100207047000043F63001C4F20201A0
:1004B0000068A1F50362904218BF704781B0002028
:1004C0000090086840F480500860086800F480508C
:1004D0000090009801B07047B0B5044600F0E0F815
:1004E000054640F20000C2F200000078611C18BF0F
:1004F000044400BF00F0D4F8401BA042FAD3B0BDC2
:100500002DE9F04F83B000F1200200F13E4741F2A7
:100510000005009207F1FF77C4F2020507224FEAB7
:10052000B726A84208BF042200254FF000084FF06C
:100530000009042E38BF4FEAB72201920AE000BF3B
:1005400009F1010908F10208B9F1100F05F10405DC
:1005500000F0A2800F68012202FA09FE17EA0E0AD3
:10056000EED0D1F804C003220CF003077E1E02FA7D
:1005700008F4012E6FEA040B12D88468CE6804EAEE
:100580000B0406FA08F634438460446824EA0E0635
:10059000CCF3001404FA09F42643466004E000BFDB
:1005A000032F01D103271EE0C6688C6806EA0B06FC
:1005B00004FA08F42643022FC66014D16FF0030238
:1005C000009E02EA590756F807C005F01C040F22E6
:1005D0000B69A2402CEA0202A3401A43F251D1F85F
:1005E00004C00CF00307026807FA08F302EA0B02E2
:1005F0001A431CF4403F0260A2D0002243F6440399
:100600000292C4F202031A6843F6004442F48042A4
:100610001A601A68C4F2010402F480420292029A3B
:1006200029F003024FF6084C2244CFF6FF7C52F823
:100630000C3005F00C070F26BE40B343019E06FAAE
:1006400007F73B4342F80C30A2684B6842EA0A07BE
:1006500043F60C4CDE0258BF22EA0A07A760C4F238
:10066000010CDCF800209E0242EA0A0758BF22EA89
:100670000A07CCF8007062689E0342EA0A0758BF76
:1006800022EA0A0767602268DB0342EA0A0758BFCA
:1006900022EA0A07276053E703B0BDE8F08F0000A5
:1006A00040F2E440C2F2000000687047002804BF36
:1006B00001207047F0B581B0044690F83D0028B99C
:1006C000002084F83C00204600F050F9242084F8F3
:1006D0003D002068016821F001010160016841F4DA
:1006E00000410160016821F40041016000F0D0FA8E
:1006F000636848F2A16CC0F2010C40F60011C0F230
:100700003D0163453CBF48F28041C0F21E01884272
:1007100002D2012001B0F0BD4DF68361C4F21B315D
:10072000A0FB01122168970CD1F804E04FF49676F3
:100730002EF03F0545EA92454D60774348F638165E
:100740000D6AC0F24106A7FB067625F03F07634518
:1007500038BF960C721C3A430A62CA6948F2A06616
:100760004CF6FF77C0F20106B34222EA07020BD82B
:1007700001385B00B0FBF3F001306FF31F30042849
:1007800098BF04201BE000BFA768013857B11927A4
:100790007B43B0FBF3F001306FF31F3070B100F515
:1007A000804007E003EB4303B0FBF3F001306FF34D
:1007B0001F3018B100F5004001E000BF01201043D8
:1007C000C8610868D4E9072320F0C000104318432B
:1007D0000860886848F2FF3204F10C0790438CCF20
:1007E00018431043A6698860C86820F0FF003843AA
:1007F0003043C860086840F00100086000202021F4
:10080000206484F83D10206384F83E0001B0F0BD00
:100810002DE9F04383B0994616460F460446FFF78C
:100820003FFF94F83D10202924D10546206800BFE1
:10083000816989071AD5FFF733FF411B20681A2900
:10084000F6D381698907F3D500202021206384F83D
:100850003D1084F83E00216C41F02001216484F8B1
:100860003C00022003B0BDE8F08300BF94F83C10C8
:10087000012903D1022003B0BDE8F083012284F8EE
:100880003C200368DDE90B180A9ADB0703D10368F3
:1008900043F001030360036823F400630360212035
:1008A00084F83D00402084F83E000020206462620D
:1008B0006185608D394620850020CFF6FF70E062AB
:1008C000204632464B46CDE9008500F01BFC18B1AE
:1008D000012003B0BDE8F083208D98B92046414641
:1008E0002A4600F073FC88B3206C0428F0D12068FD
:1008F000016841F400710160012003B0BDE8F0839C
:100900000004EBD0204641462A4600F00FFE0028A6
:10091000EAD1616A2268084610F8013B1361238D11
:100920006062581E2085678D013F678557697F0784
:10093000E6D50704E4D048781061881C6062981EF0
:100940002085618D01396185DAE700BF2068016883
:1009500041F400710160202084F83D00002084F8FB
:100960003E0084F83C0003B0BDE8F083B0B586B02B
:1009700045F200410068C4F2000100248842059459
:10098000CDE903440294019402D006B0B0BD00BF8B
:1009900043F630050094C4F20205286840F00200D6
:1009A0002860286800F0020000900098C0200190A4
:1009B0001220CDE90204032004900420059001F5E3
:1009C000D83001A9FFF79CFD0094286940F400107D
:1009D0002861286900F400100090009806B0B0BDAE
:1009E00040F2000040F2E441C2F20000C2F2000115
:1009F00000780A68104408607047000080B543F62C
:100A00000040C4F20200016841F400710160016815
:100A100041F480610160016841F48071016003204C
:100A200000F074F80F2000F005F800F027F800201F
:100A300080BD000070B540F20006C2F2000640F230
:100A40001C013278C2F200014FF47A730968B3FBDB
:100A5000F2F20446B1FBF2F1084600F03BFB0F2C2A
:100A60004FF0010508D838B94FF0FF302146002279
:100A7000002500F01FF87460284670BD82B0002089
:100A800043F640010190C4F202014A6842F48042F8
:100A90004A604A6802F480420192019A0090086814
:100AA00040F080500860086800F080500090009886
:100AB00002B0704710B54EF60C5CCEF2000CDCF8BC
:100AC0000030C3F3022E8EF00704042C28BF042448
:100AD000BEF103034FF0FF3E0EFA04F438BF0023CB
:100AE000A14399400EFA03F39A43114300F00F0219
:100AF00000F160430901043A03F5644362440028AD
:100B000048BF02F10C03197010BD00004EF60C51E5
:100B1000CEF200010A684FF6FF031A4060F30A2282
:100B200042F0806040F0FD7008607047002804BF0C
:100B3000012070472DE9F04143F60808C4F202088D
:100B40000446D8F8F8030D4600F00700814207D9A3
:100B500088F8F853D8F8F80300F00700A84277D1D6
:100B60002068810717D5410705D5D8F8001041F452
:100B7000E051C8F80010010705D5D8F8001041F47D
:100B80006041C8F80010D8F80010A26821F0F00108
:100B90001143C8F80010C00740D1D8F8F80300F09E
:100BA0000700854207D288F8F853D8F8F80300F018
:100BB0000700A8424CD12068410707D5D8F800109B
:100BC000E26821F4E0511143C8F80010000708D58D
:100BD000D8F80000216920F4604040EAC100C8F85C
:100BE000000000F069F8D8F8001042F23222C1F398
:100BF0000311C0F60002515C40F21C0220FA01F120
:100C000040F20400C2F200000068C2F2000211606B
:100C1000FFF710FF0020BDE8F08100BF6068811E73
:100C2000022907D258F8081C89015CBF0120BDE8E1
:100C3000F08111E0012807D158F8081C89035CBF36
:100C40000120BDE8F08107E058F8081C890703D4AB
:100C50000120BDE8F08100BFD8F8001021F00301A9
:100C60000843C8F80000FFF71BFD064641F288372D
:100C7000D8F80000616800F00C00B0EB810F8CD058
:100C8000FFF70EFD801BB842F2D90320BDE8F081CA
:100C900040F21C0043F60801C2F20000C4F2020157
:100CA0000068096842F24222C1F38221C0F60002C4
:100CB000515CC8407047000010B543F60404C4F20C
:100CC00002046168C1F3810142F20040C0F2F40005
:100CD000DFE801F002040A0210BD00BF47F6400041
:100CE000C0F27D1010BD00BF206821682368490252
:100CF00047F64001C0F27D1100F03F02C3F38810B7
:100D00005CBF42F20041C0F2F401A1FB00010023EC
:100D1000FFF7C6FA21680222C1F3014102EB41014B
:100D2000B0FBF1F010BD0000002804BF01207047A7
:100D30002DE9F04182B00446007843F60006C00772
:100D4000C4F202060CD0B06800F00C00042840F099
:100D500081803068800303D56068002800F06881D6
:100D6000207880071BD5B06810F00C0F09D0B06850
:100D700000F00C00082840F087807068400200F105
:100D800083803068800703D5E068012840F05081F7
:100D90003068216920F0F80040EAC1003060207816
:100DA000000713D4207840072AD4A569002D00F04D
:100DB0003A81B06800F00C00082840F0A580012DB1
:100DC00040F00E81012002B0BDE8F081606900288A
:100DD00000F082800020C4F247200121C0F8801E6C
:100DE000FFF75EFC054600BF706F8007DAD4FFF79F
:100DF00057FC401B0228F7D9032002B0BDE8F08160
:100E0000306C5FEAC0080AD400200190306C40F0DA
:100E100080503064306C00F080500190019847F2AF
:100E20000007C4F200073868C00547D4386840F4AA
:100E300080703860FFF734FC054600BF3868C00595
:100E40003CD4FFF72DFC401B0228F7D9032002B049
:100E5000BDE8F081B06800F00C00082803D170688C
:100E600040023FF576AF61683068B1F5803F07D04A
:100E7000B1F5A02F40F09A8040F4802030603068B7
:100E800040F4803030609AE0E068002840F20000D2
:100E9000C4F247205CD001210160FFF701FC054648
:100EA000306880073FF574AFFFF7FAFB401B02285C
:100EB000F6D9032002B0BDE8F08100BFA168306F11
:100EC000012905D0052955D140F004003067306F65
:100ED00040F00100306756E00020C4F247200021B6
:100EE000C0F8801EFFF7DCFB054600BF706F80076F
:100EF0007FF558AFFFF7D4FB401B0228F6D903203B
:100F000002B0BDE8F08100BF0027C4F247270020EF
:100F10003866FFF7C5FB022D05460DD1306880010C
:100F200040F18A80FFF7BCFB401B02284FF0030012
:100F3000F4D902B0BDE8F0813068800173D5FFF7C5
:100F4000AFFB401B02284FF00300F5D9F1E700BFCB
:100F500000210160FFF7A4FB054600BF3068800751
:100F60007FF51DAFFFF79CFB401B02284FF00300ED
:100F7000F4D9DEE720F001003067306F002920F05F
:100F8000040030677AD0FFF78BFB054641F28837C3
:100F9000306F800700F18480FFF782FB401BB8426E
:100FA000F6D9032002B0BDE8F08100BF20F4803004
:100FB00030603068002920F4802030607AD0FFF75C
:100FC0006FFB0546306880033FF5CAAEFFF768FB4C
:100FD000401B6428F6D9032002B0BDE8F08100BFB1
:100FE0007068E16900F480028A4221D1216A00F030
:100FF0003F028A421CD147F6C071626A0140B1EBE0
:10100000821F15D1A16A4FF6FF73C903994300F4FB
:101010004032A1F580318A420AD1E16A00F0706065
:10102000B0EB016F04D1002002B0BDE8F08100BF39
:10103000012002B0BDE8F08104F11C052FCD08436A
:1010400040EA8210D9034FF6FF729143A1F5803137
:1010500040EA05600843706001203866FFF720FB16
:10106000044600BF30688001DDD4FFF719FB001B88
:1010700002284FF00300F5D95BE700BFFFF710FB34
:10108000054641F2883700BF306F800708D5FFF76B
:1010900007FB401BB8424FF00300F5D949E700BFFA
:1010A000B8F1000F3FF581AE306C20F08050306415
:1010B0007BE600BFFFF7F4FA054600BF3068800307
:1010C0007FF54EAEFFF7ECFA401B64284FF00300AB
:1010D000F4D92EE7411E0020B0EB116F1CBF012098
:1010E00070474EF21002CEF2000251604EF62351CC
:1010F000CEF20001F0230B70072190601160704761
:10110000FEE700002DE9F04383B0044600680F4677
:1011100001680A9D0B9E41F48071994690460160DA
:1011200020464FF0011100222B46009600F0ACF84B
:1011300050B120680068C00544BF4FF400702064BF
:10114000032003B0BDE8F083206807F0FE010161D1
:101150000221C0F2010120462A46334600F07AF906
:1011600020B1012003B0BDE8F08300BF0020029051
:1011700020683246416902918069294602900298AE
:10118000204600F0D3F958B1206C0428E9D120683A
:10119000016841F400710160012003B0BDE8F083F3
:1011A0002068B9F1010F0AD04FEA182101612046E9
:1011B0002946324600F0BAF90028E5D120685FFAE6
:1011C00088F10161002003B0BDE8F08370B50368C9
:1011D000044653F8140F400711D40E46481C29D07A
:1011E00086BB00BF1868400527D4FFF759FA23686B
:1011F00053F8140F400737D518684007F2D5002080
:1012000070BD00BF18684007F9D41868400514D4B1
:1012100018684007F3D4186840050ED418684007D2
:10122000EDD41868400508D4186840074FF0000056
:1012300048BF70BD18684005E4D56FF48060186041
:10124000042012E0154603E053F8140F4007D6D4EB
:1012500018684005F1D4FFF723FA401B2368B04219
:10126000F2D958694007EFD42020002120222163C1
:1012700084F83D2084F83E10226C10432064012045
:1012800084F83C1070BD00002DE9F041054600686F
:101290001E46144601F47F0201338FB242D0DDF8BE
:1012A0001880B2F5803F40F0878040693840C01B0D
:1012B000B0FA80F04009844240F0C8804EB924E082
:1012C00040693840C01BB0FA80F04009844240F0C9
:1012D000BD80FFF7E5F9A0EB08012868B142EFD91E
:1012E00041693940C91BB1FA81F149098C42E7D102
:1012F0009BE000BF40693840C01BB0FA80F0400955
:1013000084424FF0000040F0A280FFF7C9F928683E
:1013100041693940C91BB1FA81F149098C42E9D1CF
:1013200083E000BFB2F5803F24D100BF416939405E
:10133000C91BB1FA81F149098C4240F087804169AB
:101340003940C91BB1FA81F149098C4240F07E80D5
:1013500041693940C91BB1FA81F149098C4275D103
:1013600041693940C91BB1FA81F149098C42DDD08C
:101370006CE000BF81693940C91BB1FA81F14909AC
:101380008C4263D181693940C91BB1FA81F14909A5
:101390008C425BD181693940C91BB1FA81F149099D
:1013A0008C4253D181693940C91BB1FA81F1490995
:1013B0008C42DFD04AE000BF80693840C01BB0FAE1
:1013C00080F04009844241D146B923E08069384029
:1013D000C01BB0FA80F04009844237D1FFF760F9B2
:1013E000A0EB08012868B142F0D981693940C91BD6
:1013F000B1FA81F149098C42E8D116E080693840A0
:10140000C01BB0FA80F0400984424FF0000018BFC2
:10141000BDE8F081FFF744F9286881693940C91BAC
:10142000B1FA81F149098C42E8D1002020212863DA
:1014300085F83D1085F83E00296C41F020012964B3
:1014400085F83C000120BDE8F08100BF0020BDE828
:10145000F0810000F0B581B0044600681D46436984
:101460008FB203EA0701B94202D1002001B0F0BDFA
:101470004169164601323CD0490512D47EB300BF03
:10148000FFF70EF9411B2068B14203D94169394089
:10149000B9422BD141693940B942E6D04169490589
:1014A000EED5016841F4007101606FF48061416123
:1014B000042000212022216384F83D2084F83E107E
:1014C000226C1043206484F83C10012001B0F0BD70
:1014D00041693940B942C8D041694905E1D4FFF7B3
:1014E000DFF8206841693940B942F1D02020E0E7B7
:1014F00041694905D5D441693940B942B5D04169FE
:101500004905CED441693940B942AED04169490557
:10151000C7D441693940B942A7D041694905C0D40F
:1015200041693940B942E3D19FE7000070B50368D3
:10153000044653F8140F000611D40E46481C29D057
:1015400086BB00BF1868400527D4FFF7A9F82368B9
:1015500053F8140F000637D518680006F2D500209E
:1015600070BD00BF18680006F9D41868400514D48F
:1015700018680006F3D4186840050ED418680006F1
:10158000EDD41868400508D4186800064FF0000034
:1015900048BF70BD18684005E4D56FF480601860DE
:1015A000042012E0154603E053F8140F0006D6D4C9
:1015B00018684005F1D4FFF773F8401B2368B04268
:1015C000F2D958690006EFD420200021202221639F
:1015D00084F83D2084F83E10226C104320640120E2
:1015E00084F83C1070BD000080B540F2804043F2AA
:1015F0000001C2F20000C4F202010160FEF73CFFEC
:10160000002808BF80BDBDE88040FEF731BF000064
:1016100083B0002043F630010290C4F202010A6850
:1016200042F080020A600A6802F080020292029A86
:1016300001900A6842F001020A600A6802F00102A1
:101640000192019A0090086840F002000860086862
:1016500000F002000090009803B0704780B540F29F
:10166000884045F20041C2F20000C4F2000148F295
:10167000A06200234FF4804CC0F2010280E80E000B
:10168000C0E9033CC0E90533C0E90733FFF70EF8B2
:10169000002808BF80BDBDE88040FEF7E9BE00001D
:1016A000FEE70000FEE700002DE9F04F83B01C4686
:1016B0000C9B0191032B029004D803F03F0004EB34
:1016C000800041686078002800F07A802378002B41
:1016D00000F07680203AD2B2A37842430D9E02FBFE
:1016E000031A4FF0000B012105E000BF60780BF1F9
:1016F000010B834564D200295CD001984FF00009AA
:1017000000EB0B08002010E0029A0029104480B280
:1017100047D01FFA88F1012200F0ACF8217809F1D6
:10172000010989455FFA89F0E0D2E37809F0070200
:1017300001219140002B4FF0800308BF23FA02F1F2
:10174000032EEBD8A2784FEAD9030BFB02A2D25C9E
:101750001140DFE806F00521030B00BFD4E700BF0E
:101760000029DBD00299084480B2D2E70029D5D005
:1017700002991FFA88F5084487B23846294600F0D6
:10178000EDFA98B13846294600F0E8FA0128C5D1AB
:101790003846294607E000BF0029BFD00299084417
:1017A00080B21FFA88F10022B6E700BF384629460A
:1017B000B1E700BF00210BF1010B8345FFF49BAFA4
:1017C00003B0BDE8F08F00002DE9F04F85B006466C
:1017D000101A0F4604930092039002D503984042DA
:1017E000039000984FF0FF31B0424FF0FF3088BFB8
:1017F0000120049C0190A74238BF01210E9A02915A
:101800003046394600F036F8A74202D100988642A9
:101810002CD00498B0EB070A48BFCAF1000A03981D
:101820000FFA80FBA0EB0A080FFA8AF0C0F100095A
:101830004FEA480000B24845C8BFA8EB0A08019922
:10184000C8BF0E4483450298C8BF07440398B5B289
:10185000BCB20E9AC8BF80442846214600F00AF860
:1018600004988442E4D100988542E1D105B0BDE8F6
:10187000F08F00007F2898BF3F2901D9704700BF33
:10188000002A40F280024FEAD10301F007014FF035
:10189000010CC2F200020CFA01F102EBC312135C5C
:1018A0000CBF23EA01011943115470472DE9F04799
:1018B000154690429046994638BF804688BF0546F7
:1018C00099429A4638BF8A4688BF8946CA4538BF7A
:1018D000A84501D3BDE8F087089E00BF1FFA8AF72C
:1018E000444600BFA0B239463246FFF7C3FF013479
:1018F000A0B2A842F6D30AF1010A1FFA8AF04845BD
:1019000028BFBDE8F087E9E72DE9F04782B01C4623
:101910001378FBB1DDE90A980D468246571C06464E
:1019200003E000BF17F8013BA3B1B0B2A9B2DAB22D
:101930002346CDE90098FFF7B7FE2078064410FA59
:1019400086F08028EED360785646054410FA85F07C
:101950003F28E7D902B0BDE8F0870000994201D9DD
:10196000704700BF90424AD82DE9F043079F40F2EC
:10197000800E4FF0010CC2F2000E3FB94CE000BFE8
:1019800001318CB29C4288BFBDE8F08301F00704AE
:101990000CFA04F8C1F3C7040EEBC415074606465B
:1019A000EC5D44EA0809741CA4B2944205F807905F
:1019B000E6D82F5D47EA0809B71CBFB2974205F881
:1019C0000490DDD8EC5D44EA0809F41CA4B294420A
:1019D00005F80790D4D82F5D043647EA0809B7B256
:1019E000974205F80490DBD9CAE700BFC81C80B253
:1019F000984288BF7047043188B29842B0D8481CDA
:101A000080B29842ACD8881C80B29842EED9A7E741
:101A100001318CB29C4231D801F007040CFA04F475
:101A20006FEA0408C1F3C7040EEBC4150746064667
:101A3000EC5D04EA0809741CA4B2944205F807900E
:101A4000E6D82F5D07EA0809B71CBFB2974205F830
:101A50000490DDD8EC5D04EA0809F41CA4B29442B9
:101A600005F80790D4D82F5D043607EA0809B7B205
:101A7000974205F80490DBD9CAE700BFBDE8F083C0
:101A800080B50246002840F28000C2F200004FF408
:101A9000806118BFFF22FEF77BFC80BD2DE9F0437B
:101AA00085B06420FEF718FD40F28844AE20C2F2F3
:101AB00000048DF813000A2501260DF113072046B6
:101AC000782100220123CDE9007602954FF000082D
:101AD000FEF79EFE20467821002201238DF8138018
:101AE000CDE900760295FEF793FE4FF010092046EF
:101AF0007821002201238DF81390CDE9007602951C
:101B0000FEF786FE20208DF8130020467821002263
:101B10000123CDE900760295FEF77AFE2046782172
:101B2000002201238DF81390CDE900760295FEF78F
:101B30006FFEA8208DF81300204678210022012393
:101B4000CDE900760295FEF763FE3F208DF8130085
:101B50002046782100220123CDE900760295FEF788
:101B600057FED3208DF81300204678210022012350
:101B7000CDE900760295FEF74BFE20467821002243
:101B800001238DF81380CDE900760295FEF740FE23
:101B900040208DF813002046782100220123CDE952
:101BA00000760295FEF734FEA0208DF81300204643
:101BB000782100220123CDE900760295FEF728FE68
:101BC000C0208DF813002046782100220123CDE9A2
:101BD00000760295FEF71CFEDA208DF813002046F1
:101BE000782100220123CDE900760295FEF710FE50
:101BF00012208DF813002046782100220123CDE920
:101C000000760295FEF704FED5208DF813002046DD
:101C1000782100220123CDE900760295FEF7F8FD38
:101C200080208DF813002046782100220123CDE981
:101C300000760295FEF7ECFDD9208DF813002046C2
:101C4000782100220123CDE900760295FEF7E0FD20
:101C5000F1208DF813002046782100220123CDE9E0
:101C600000760295FEF7D4FDDB208DF813002046A8
:101C7000782100220123CDE900760295FEF7C8FD08
:101C800030208DF813002046782100220123CDE971
:101C900000760295FEF7BCFD81208DF813002046EA
:101CA000782100220123CDE900760295FEF7B0FDF0
:101CB0007F208DF813002046782100220123CDE9F2
:101CC00000760295FEF7A4FD8D208DF813002046C6
:101CD000782100220123CDE900760295FEF798FDD8
:101CE00014208DF813002046782100220123CDE92D
:101CF00000760295FEF78CFDA4208DF81300204697
:101D0000782100220123CDE900760295FEF780FDBF
:101D1000A6208DF813002046782100220123CDE96A
:101D200000760295FEF774FDAF208DF81300204673
:101D3000782100220123CDE900760295FEF768FDA7
:101D400040F28000C2F200004FF48061FEF728FBF1
:101D500000F0D4F805B0BDE8F08300007F284FF014
:101D6000020298BF3F2901D9104670476FF07002F8
:101D700040F2800302EA0112C2F200031A44105C2E
:101D800001F00701C84000F0010210467047000052
:101D90002DE9F04F85B040F2800BC2F2000B40F20B
:101DA000DC4640F2884A00250727C2F20006C2F24C
:101DB000000AD84606E000BF0135082D08F180086A
:101DC00000F098804FF0FF096FF0010008EB000170
:101DD0008A78C97882EA090253B25400002B48BFBE
:101DE00087EA420462B26300002A48BF87EA4403DC
:101DF0005AB25C00002A48BF87EA430462B263001B
:101E0000002A48BF87EA44035AB25C00002A48BF50
:101E100087EA430462B26300002A48BF87EA4403AA
:101E20005AB25C00002A48BF87EA430462B26300EA
:101E3000002A48BF87EA440359404AB24B00002AAF
:101E400048BF87EA410359B25A00002948BF87EAD0
:101E5000430251B25300002948BF87EA420359B2F6
:101E60005A00002948BF87EA430251B253000029B3
:101E700048BF87EA420359B25A00002948BF87EA9F
:101E8000430251B25300002948BF87EA420359B2C6
:101E90004FEA4309002900F1020048BF87EA4309DD
:101EA0007E2893D1705D5FFA89F1814284D045F03C
:101EB000B0008DF813000DF1130000900120019087
:101EC00050467821002201230A240294FEF7A0FC48
:101ED0000BEBC510009080200190504678214022E5
:101EE00001234FF4FA740294FEF792FC06F8059071
:101EF00062E700BF05B0BDE8F08F00002DE9F047B4
:101F000084B040F28844B020C2F200048DF80F0083
:101F10004FF00A084FF0010A0DF10F052046782115
:101F200000220123CDE9005ACDF80880FEF770FCAD
:101F300040F280074FF4FA798026C2F2000720466B
:101F4000782140220123CDE90076CDF80890FEF7F4
:101F50005FFCB1208DF80F0020467821002201237C
:101F6000CDE9005ACDF80880FEF752FC07F1800059
:101F7000CDE900062046782140220123CDF80890C3
:101F8000FEF746FCB2208DF80F0020467821002293
:101F90000123CDE9005ACDF80880FEF739FC07F59A
:101FA0008070CDE900062046782140220123CDF83B
:101FB0000890FEF72DFCB3208DF80F002046782105
:101FC00000220123CDE9005ACDF80880FEF720FC5D
:101FD00007F5C070CDE90006204678214022012394
:101FE000CDF80890FEF714FCB4208DF80F002046C1
:101FF000782100220123CDE9005ACDF80880FEF7B0
:1020000007FC07F50070CDE9000620467821402244
:102010000123CDF80890FEF7FBFBB5208DF80F00EB
:102020002046782100220123CDE9005ACDF808800E
:10203000FEF7EEFB07F52070CDE90006204678217B
:1020400040220123CDF80890FEF7E2FBB6208DF880
:102050000F002046782100220123CDE9005ACDF857
:102060000880FEF7D5FB07F54070CDE90006204655
:10207000782140220123CDF80890FEF7C9FBB72054
:102080008DF80F002046782100220123CDE9005A67
:10209000CDF80880FEF7BCFB07F56070CDE90006BF
:1020A0002046782140220123CDF80890FEF7B0FBAE
:1020B00004B0BDE8F08700007047000070470000E2
:1020C000FEF78EBCF0B593B007AC20463021FEF78A
:1020D00067F9002543F640000695CDE90455CDE9A2
:1020E00002550195C4F202000168022641F08051B8
:1020F000016000680F2700F080500190019847F2BE
:1021000000000195C4F20000016866F38F310160A0
:10211000006800F4404001900198012007904FF4BE
:10212000803008904FF480000E906020CDE91006BA
:102130000420129020460D960F97FEF7F5FD18B17A
:1021400072B600BFFEE700BF4FF48050CDE9050531
:1021500002A80221CDE902760495FEF7E7FC18B14A
:1021600072B600BFFEE700BF13B0F0BD4EF6885058
:10217000CEF20000016841F4700101607047000078
:10218000FEE7000082B0FEF739FCFFF79BFFFFF788
:102190003FFAFFF763FAFFF727FAFFF77FFC40F2F9
:1021A000080501264FF00008032719A4C2F2000514
:1021B000002000217F2207230096FFF7CFFB00209D
:1021C000002122462B46CDE90087FFF79DFBFFF754
:1021D000DFFD4FF4FA70FEF77FF90020FFF750FCA7
:1021E00014202821282214230096FFF7EDFA00205E
:1021F00000210A2210230096FFF758FBFFF7C8FDC5
:102200004FF4FA70FEF768F90020FFF739FCCFE7CA
:1022100048656C6C6F000000F1EE100A4FF6FF711C
:10222000C0F2C03120EA010040F04070E1EE100A37
:1022300070470000000000000000010203040607D0
:102240000809000000000102030400000000000073
:102250000000000000000000000000000018181836
:10226000181818180018180000000000006C24242A
:1022700024000000000000000000000000006C6C62
:10228000FE2424FFFF2626000000000000107C7EB4
:10229000161E7C68C86E3E080C00000000864B6B62
:1022A0002F1018EC949673000000000000183E26D2
:1022B000361CDEDB7367FE000000000000181818F3
:1022C000180000000000000000000000002030188E
:1022D000080C0C0C0C0C181830200000000C1C18FA
:1022E00030303020303030180C0400000018587E98
:1022F0003876180000000000000000000000000018
:10230000181818FE1818180000000000000000003F
:1023100000000000001838101C0000000000000041
:102320000000003C00000000000000000000000071
:1023300000000000001818000000000000406020AD
:10234000301018180C0C06060000000000003C6657
:10235000C6F3DBCFC2663C00000000000000181E80
:102360001210101010107E000000000000003C76DB
:10237000606030380C7E7E000000000000003E628D
:1023800060703C6040603E0000000000000030389B
:102390002C2C2623FF2020000000000000007E7E61
:1023A000061E7E6060603E00000000000000781C99
:1023B00006167EC6C6663C000000000000007E7E59
:1023C00060303018180C0C000000000000007C6623
:1023D000466E3C6646667C000000000000003C66DD
:1023E00062467E5C60701E0000000000000000007D
:1023F000181800000018180000000000000000007D
:1024000018180000001838101C0000000000000020
:1024100070180C061C3020000000000000000000B6
:10242000007E7E007E00000000000000000000042E
:102430000E187060381C040000000000000C3C60A6
:102440006060380800181C000000000000386CC6EE
:10245000C2BBAFBFBFFF6B03263C00000000383C8F
:102460003C2C66667EC2C3000000000000003E6691
:1024700066667EE6C6663E00000000000000784CFE
:1024800006060606064E7C000000000000003E72B4
:10249000C2C2C2C2E2723E000000000000007E061E
:1024A00006067E0606067E000000000000007E068E
:1024B00006067E0606060600000000000000FCCEB0
:1024C0000603F3C3C6CEFC00000000000000C6C631
:1024D000C6C6FEC6C6C6C6000000000000007E18C4
:1024E0001818181818187E000000000000007E6000
:1024F0006060606060323E000000000000006666C0
:10250000361E1E1E3666E6000000000000000606AD
:102510000606060606067E0000000000000066E6CD
:10252000EEFADADAC3C3C300000000000000C6CE32
:10253000CEDADAF2F2E2E2000000000000003C6EC7
:10254000C2C3C3C3C3663C000000000000003E7667
:10255000C6C6663E060606000000000000003C6E8F
:10256000C6C3C3C3C3663C18F060000000003E76DB
:1025700066663E366666C6000000000000007C46C7
:10258000060E7C7060623E00000000000000FE1835
:102590001818181818181800000000000000C2C20F
:1025A000C2C2C2C2C2663C00000000000000C3C339
:1025B0004666662C3C3C1800000000000000C3C3C7
:1025C000C3DBDAFAFEE66600000000000000C76622
:1025D0003C3C183C7C66C700000000000000C3665D
:1025E000663C3C18181818000000000000007E7EB1
:1025F0007030180C0C7E7E0000000000003C0C0CBB
:102600000C0C0C0C0C0C0C0C3C3C00000006060CDA
:102610000C1818103020604000000000003C3030E2
:1026200030303030303030303C3C00000000183C5E
:102630002466000000000000000000000000000010
:102640000000000000000000FFFF000000060C007A
:10265000000000000000000000000000000000007A
:102660003E62607C66665E000000000000060606B2
:102670007E6EC6C6C6663E00000000000000000078
:10268000784C0606064E7C0000000000006060608A
:102690007C66666266765C00000000000000000058
:1026A0003C66467E06067C000000000000F0F8183C
:1026B000187E18181818180000000000000000000C
:1026C000FC66667E1E067CC2663C000000060606AE
:1026D0007E6E6666666666000000000000181800E0
:1026E0001E18181818187E00000000000020700046
:1026F0003E202020202020203E1E0000000606064E
:1027000066361E1E3676E60000000000001E1E180B
:102710001818181818187E000000000000000000AB
:102720006FDFDBDBDBDBDB00000000000000000014
:102730007E6E6666666666000000000000000000AF
:102740003C66C6C2C6663C000000000000000000F7
:102750007E6EC6C6C6663E06060600000000000085
:102760007C66666266765C60606000000000000067
:10277000766EC60606060600000000000000000097
:102780007C060E3C60603E000000000000000C0C67
:102790007F0C0C0C0C1878000000000000000000FA
:1027A0006666666666765C00000000000000000059
:1027B000C346666C3C3C18000000000000000000AE
:1027C00083C3DBDAFA6E6600000000000000000040
:1027D000C66C3C183C66E6000000000000000000EB
:1027E000C346666C3C3C18180F0700000000000050
:1027F0007E6030180C0E7E0000000000007018187B
:1028000018180E0E181818187860000018181818E4
:10281000181818181818181818180000000C181094
:1028200010107070101010101C0C00000000000040
:102830000000CEFB6000000000000000003F3333CA
:102840003333333333333F00000000000000000017
:102850000000000000000000000000000018181830
:10286000181818100010180000000000002C242474
:1028700024000000000000000000000000006824A8
:10288000FE2424247E2424000000000000107C1676
:102890001216386848483E080800000000864B6958
:1028A0002E100868949263000000000000003C268F
:1028B000261C4E527362FE0000000000001818181B
:1028C00018000000000000000000000000201018A8
:1028D000080C0C0C0C08081830200000000408102C
:1028E0001030202020301018080400000010502C58
:1028F000385610000000000000000000000000003A
:10290000181818FE18181800000000000000000039
:1029100000000000001818100C000000000000006B
:102920000000003C0000000000000000000000006B
:1029300000000000001818000000000000406020A7
:1029400030101008080404020000000000003C667B
:1029500042E2DACE42663C00000000000000181E91
:102960001210101010107E000000000000003C62E9
:102970006060201008047E000000000000003E603F
:1029800060203C4040603E00000000000000303805
:1029900028242622FF2020000000000000007E06E0
:1029A00006067E4040603E00000000000000780CFB
:1029B00006126E4242463C000000000000007E40CD
:1029C0006020301018080C000000000000003C4699
:1029D000426C386642423C000000000000003C6649
:1029E0004242665840201E00000000000000000027
:1029F0001818000000181800000000000000000077
:102A000018180000001818100C000000000000004A
:102A100020180C06083060000000000000000000D4
:102A200000007E007E0000000000000000000000AA
:102A30000C1820603008040000000000000C386012
:102A40006060180800080800000000000038448298
:102A500082BBADA5A5F52903023C00000000183893
:102A60002C2464467EC283000000000000003E6209
:102A700042623E4242423E000000000000007804F4
:102A80000202020202067C000000000000003E621A
:102A900042C2C2C242621E000000000000007E0668
:102AA00006067E0606067E000000000000007E0688
:102AB00006067E06060606000000000000007806F6
:102AC0000202734242467C000000000000004242C5
:102AD00042427E42424242000000000000007E1856
:102AE0001818181818187E000000000000003E207A
:102AF0002020202020221E00000000000000422292
:102B0000120A0E1A322242000000000000000404E3
:102B10000404040404047C00000000000000466675
:102B2000E6FADADA838383000000000000004646FC
:102B30004E4A5A52726262000000000000003C4699
:102B4000C2C3C3C3C2463C000000000000003E6296
:102B50004242621E020202000000000000003C46E9
:102B6000C2C3C3C3C2463C18F000000000003E666A
:102B700046663E36266646000000000000007C06E1
:102B80000206386040403E00000000000000FE18D1
:102B90001818181818181800000000000000424209
:102BA0004242424242463C0000000000000083C214
:102BB000424664242C381800000000000000838383
:102BC0008292DADA6E666600000000000000C266DB
:102BD0002C1818382466C30000000000000083424F
:102BE000662C3818181818000000000000007E40FD
:102BF0002030180804067E00000000000038080895
:102C0000080808080808080808380000000204043A
:102C1000080810103020604000000000003C3030F8
:102C20003030303030303030303C00000000183868
:102C3000244600000000000000000000000000002A
:102C4000000000000000000000FF00000004080079
:102C50000000000000000000000000000000000074
:102C60003C60407C42625E00000000000002020204
:102C70003A46424242423E0000000000000000008E
:102C80007804060206047C0000000000004040407A
:102C90007C46424242665C000000000000000000EA
:102CA0003C46427E02067C000000000000F018084E
:102CB000087E080808080800000000000000000066
:102CC000FC6642661A027CC2423C0000000202021C
:102CD0003A464242424242000000000000181800FA
:102CE0001E10101010107E000000000000203000A8
:102CF0003E20202020202020301E00000006060656
:102D000046361E0E1626460000000000001E10105B
:102D10001010101010107E000000000000000000D5
:102D20006ED2D2D2D2D2D200000000000000000049
:102D30003A464242424242000000000000000000C9
:102D40003C4642C242463C00000000000000000039
:102D50003A46424242423E020202000000000000A7
:102D60007C46424242665C40404000000000000059
:102D7000764EC606060606000000000000000000B1
:102D80007C04043C60403E00000000000000080895
:102D90007F08080808087800000000000000000014
:102DA0004242424242665C00000000000000000017
:102DB000C24266242C181800000000000000000029
:102DC0008383DA5A7A666600000000000000000083
:102DD0004664381838644600000000000000000017
:102DE000C24266242C3818180C07000000000000AE
:102DF0007E60301808047E00000000000070180893
:102E000008080C0E080808081870000010101010B0
:102E1000101010101010101010100000000C1810DE
:102E20001010307010101010180C0000000000007E
:102E300000008ED26000000000000000001F111191
:102E40001111111111111F000000000000000000FD
:102E500000000000000000000000000000203030F2
:102E600010101010000808000000000000D858489A
:102E70004800000000000000000000000000904832
:102E8000FE4824247E121200000000000060F82496
:102E9000341C386848683F0404000000000C965257
:102EA0006E30186894D27100000000000000784471
:102EB000643CDC5271235E000000000000203030D2
:102EC00010000000000000000000000000C06030A2
:102ED00018080C0404040C08181000000018103026
:102EE000202020203010180C06020000001014785A
:102EF00038D41000000000000000000000000000B6
:102F0000101010FE1808080000000000000000006B
:102F10000000000000181808060000000000000073
:102F20000000003C00000000000000000000000065
:102F300000000000001C1C00000000000080C040D9
:102F4000203010080C04020300000000000078CCC0
:102F500084E29ACE42623C00000000000000302C67
:102F60003030101010187E0000000000000078447F
:102F7000C04020100C067F000000000000007C40D4
:102F80004060384040601E0000000000000060709B
:102F9000586C2422FF303000000000000000F80CC4
:102FA00004047C4040201E00000000000000F018D7
:102FB00004166E4242623C00000000000000FC80EB
:102FC00040603010080C060000000000000078840B
:102FD000C46C386642623E0000000000000078C405
:102FE000C6C6E65860300E00000000000000000079
:102FF0003030000000181800000000000000000041
:103000003030000000181808060000000000000022
:1030100060300C060C1820000000000000000000CA
:1030200000007E007E0000000000000000000000A4
:1030300008102060300C06000000000000186040FE
:1030400040603808000C0C0000000000007088840C
:1030500002FAA9A595552901011E00000000303093
:10306000686C64467E4341000000000000007CC4A0
:10307000C4443E4242623E00000000000000F00CEA
:103080000406020202067C000000000000007CC46E
:10309000868682C242331F00000000000000F80C48
:1030A00004047C0606023E00000000000000F80C4C
:1030B00004047C0406020200000000000000F00C82
:1030C0000602F24242467C000000000000008484B8
:1030D0008686FE4242436100000000000000FC3092
:1030E0001010101818083E00000000000000784082
:1030F0004040602020301E000000000000008C4492
:10310000241C0E1A123263000000000000000808A0
:103110000C04040406067E000000000000008CCCB5
:10312000EAAA9ADAC14141000000000000008C8C3C
:103130008C9ED2525263610000000000000078CCE7
:10314000868282C343623E000000000000007CC40F
:1031500084C4661E0202020000000000000078CC59
:10316000868282C343623E087800000000007CC46F
:10317000C4443E3622226200000000000000F80431
:10318000040C386040603F00000000000000FC308C
:1031900010101018180808000000000000008484B7
:1031A0008686C24242623E000000000000000686A1
:1031B00084446424341C1C0000000000000006024B
:1031C00082929ADA7667630000000000000084CCE7
:1031D00068381838246241000000000000000684AE
:1031E0004C68381818080800000000000000FCC0F7
:1031F0006030100804027F0000000000007010180A
:10320000080808080C040404061E0000000808084A
:1032100008181010103020200000000000784060D6
:103220002020203010101010180E00000000303048
:103230004844000000000000000000000000000002
:103240000000000000000000007F000000081000E7
:10325000000000000000000000000000000000006E
:10326000F844424262527E0000000000000C0C0450
:10327000744C464642621E00000000000000000040
:10328000F80C060202063C0000000000008080806E
:10329000F844424262527E0000000000000000003C
:1032A00078C4463E02023C000000000000C030101E
:1032B00010FE080808080C040603000000000000C7
:1032C000F844424262723E20301E0000000C0C04A2
:1032D000744C46464262220000000000003030007C
:1032E0001E10101818087800000000000040600050
:1032F0003C20202020301010190F000000080C0482
:10330000744C443E123262000000000000180808AD
:1033100008080C0404047C00000000000000000009
:10332000DAB692D24B4949000000000000000000CC
:10333000744E464642622200000000000000000079
:103340007844C2C242623E0000000000000000005B
:10335000744CC64642623E030101000000000000BA
:10336000F844424262723E2020300000000000001B
:1033700074CCC40606020200000000000000000039
:103380007804043860603E0000000000000010185F
:10339000FE0808080C0C38000000000000000000C7
:1033A000C4C4464262727E000000000000000000BB
:1033B000C6C64464241C0C0000000000000000008D
:1033C0008282929A5E7622000000000000000000D7
:1033D000C44C28181C2663000000000000000000F8
:1033E000C6464464241C180C0601000000000000BE
:1033F000FC6030180C063E000000000000E03010B9
:103400001010080E0808080C0C18000020202030AE
:1034100010101010180808080C04000000182020D4
:1034200030103070101808080C0700000000000071
:1034300000008ED2600000000000000000E09090CC
:103440004848442422121F00000000000000000031
:10345000000000000000000000FF00000018181825
:10346000181818100010180000FF0000002C242469
:10347000240000000000000000FF0000000068249D
:10348000FE2424247E24240000FF000000107C166B
:103490001216386848483E0808FF000000864B694D
:1034A0002E1008689492630000FF000000003C2684
:1034B000261C4E527362FE0000FF00000018181810
:1034C000180000000000000000FF0000002010189D
:1034D000080C0C0C0C08081830FF00000004081041
:1034E000103020202030101808FF00000010502C51
:1034F000385610000000000000FF0000000000002F
:10350000181818FE1818180000FF0000000000002E
:1035100000000000001818100CFF00000000000060
:103520000000003C0000000000FF00000000000060
:10353000000000000018180000FF0000004060209C
:10354000301010080804040200FF000000003C6670
:1035500042E2DACE42663C0000FF00000000181E86
:103560001210101010107E0000FF000000003C62DE
:103570006060201008047E0000FF000000003E6034
:1035800060203C4040603E0000FF000000003038FA
:1035900028242622FF20200000FF000000007E06D5
:1035A00006067E4040603E0000FF00000000780CF0
:1035B00006126E4242463C0000FF000000007E40C2
:1035C0006020301018080C0000FF000000003C468E
:1035D000426C386642423C0000FF000000003C663E
:1035E0004242665840201E0000FF0000000000001C
:1035F000181800000018180000FF0000000000006C
:1036000018180000001818100CFF0000000000003F
:1036100020180C060830600000FF000000000000C9
:1036200000007E007E00000000FF0000000000009F
:103630000C1820603008040000FF0000000C386007
:10364000606018080008080000FF0000003844828D
:1036500082BBADA5A5F5290302FF000000001838C4
:103660002C2464467EC2830000FF000000003E62FE
:1036700042623E4242423E0000FF000000007804E9
:103680000202020202067C0000FF000000003E620F
:1036900042C2C2C242621E0000FF000000007E065D
:1036A00006067E0606067E0000FF000000007E067D
:1036B00006067E060606060000FF000000007806EB
:1036C0000202734242467C0000FF000000004242BA
:1036D00042427E424242420000FF000000007E184B
:1036E0001818181818187E0000FF000000003E206F
:1036F0002020202020221E0000FF00000000422287
:10370000120A0E1A3222420000FF000000000404D8
:103710000404040404047C0000FF0000000046666A
:10372000E6FADADA8383830000FF000000004646F1
:103730004E4A5A527262620000FF000000003C468E
:10374000C2C3C3C3C2463C0000FF000000003E628B
:103750004242621E0202020000FF000000003C46DE
:10376000C2C3C3C3C2463C18F0FF000000003E665F
:1037700046663E362666460000FF000000007C06D6
:103780000206386040403E0000FF00000000FE18C6
:10379000181818181818180000FF000000004242FE
:1037A0004242424242463C0000FF0000000083C209
:1037B000424664242C38180000FF00000000838378
:1037C0008292DADA6E66660000FF00000000C266D0
:1037D0002C1818382466C30000FF00000000834244
:1037E000662C38181818180000FF000000007E40F2
:1037F0002030180804067E0000FF0000003808088A
:10380000080808080808080808FF00000002040467
:10381000080810103020604000FF0000003C3030ED
:10382000303030303030303030FF00000000183899
:10383000244600000000000000FF0000000000001F
:10384000000000000000000000FF0000000408006D
:10385000000000000000000000FF00000000000069
:103860003C60407C42625E0000FF000000020202F9
:103870003A46424242423E0000FF00000000000083
:103880007804060206047C0000FF0000004040406F
:103890007C46424242665C0000FF000000000000DF
:1038A0003C46427E02067C0000FF000000F0180843
:1038B000087E08080808080000FF0000000000005B
:1038C000FC6642661A027CC242FF0000000202024D
:1038D0003A4642424242420000FF000000181800EF
:1038E0001E10101010107E0000FF0000002030009D
:1038F0003E2020202020202030FF00000006060669
:1039000046361E0E1626460000FF0000001E101050
:103910001010101010107E0000FF000000000000CA
:103920006ED2D2D2D2D2D20000FF0000000000003E
:103930003A4642424242420000FF000000000000BE
:103940003C4642C242463C0000FF0000000000002E
:103950003A46424242423E0202FF0000000000009E
:103960007C46424242665C4040FF0000000000008E
:10397000764EC6060606060000FF000000000000A6
:103980007C04043C60403E0000FF0000000008088A
:103990007F0808080808780000FF00000000000009
:1039A0004242424242665C0000FF0000000000000C
:1039B000C24266242C18180000FF0000000000001E
:1039C0008383DA5A7A66660000FF00000000000078
:1039D000466438183864460000FF0000000000000C
:1039E000C24266242C3818180CFF000000000000AA
:1039F0007E60301808047E0000FF00000070180888
:103A000008080C0E0808080818FF00001010101015
:103A1000101010101010101010FF0000000C1810E3
:103A2000101030701010101018FF0000000000007F
:103A300000008ED26000000000FF0000001F111186
:103A40001111111111111F00001F0000703A000820
:103A50000000002020000000F8010008903A000853
:103A600020000020C80A0000180200080000000022
:103A70000100000010000000081001014A280008A1
:103A80004A2E00084A2200084A3400080024F400A4
:040000050800019559
:00000001FF
